
mario.elf:     file format elf32-avr

Sections:
Idx Name          Size      VMA       LMA       File off  Algn
  0 .data         00000006  00800100  00007abc  00007b50  2**0
                  CONTENTS, ALLOC, LOAD, DATA
  1 .text         00007abc  00000000  00000000  00000094  2**1
                  CONTENTS, ALLOC, LOAD, READONLY, CODE
  2 .bss          00000637  00800106  00800106  00007b56  2**0
                  ALLOC
  3 .debug_aranges 00000140  00000000  00000000  00007b58  2**3
                  CONTENTS, READONLY, DEBUGGING
  4 .debug_pubnames 0000064f  00000000  00000000  00007c98  2**0
                  CONTENTS, READONLY, DEBUGGING
  5 .debug_info   0000294a  00000000  00000000  000082e7  2**0
                  CONTENTS, READONLY, DEBUGGING
  6 .debug_abbrev 00000e37  00000000  00000000  0000ac31  2**0
                  CONTENTS, READONLY, DEBUGGING
  7 .debug_line   00001fc3  00000000  00000000  0000ba68  2**0
                  CONTENTS, READONLY, DEBUGGING
  8 .debug_frame  00000270  00000000  00000000  0000da2c  2**2
                  CONTENTS, READONLY, DEBUGGING
  9 .debug_str    0000063c  00000000  00000000  0000dc9c  2**0
                  CONTENTS, READONLY, DEBUGGING
 10 .debug_loc    00002059  00000000  00000000  0000e2d8  2**0
                  CONTENTS, READONLY, DEBUGGING
 11 .debug_ranges 00000350  00000000  00000000  00010331  2**0
                  CONTENTS, READONLY, DEBUGGING

Disassembly of section .text:

00000000 <__vectors>:
       0:	0c 94 84 28 	jmp	0x5108	; 0x5108 <__ctors_end>
       4:	0c 94 a1 28 	jmp	0x5142	; 0x5142 <__bad_interrupt>
       8:	0c 94 a1 28 	jmp	0x5142	; 0x5142 <__bad_interrupt>
       c:	0c 94 a1 28 	jmp	0x5142	; 0x5142 <__bad_interrupt>
      10:	0c 94 a1 28 	jmp	0x5142	; 0x5142 <__bad_interrupt>
      14:	0c 94 a1 28 	jmp	0x5142	; 0x5142 <__bad_interrupt>
      18:	0c 94 a1 28 	jmp	0x5142	; 0x5142 <__bad_interrupt>
      1c:	0c 94 a1 28 	jmp	0x5142	; 0x5142 <__bad_interrupt>
      20:	0c 94 a1 28 	jmp	0x5142	; 0x5142 <__bad_interrupt>
      24:	0c 94 a1 28 	jmp	0x5142	; 0x5142 <__bad_interrupt>
      28:	0c 94 a1 28 	jmp	0x5142	; 0x5142 <__bad_interrupt>
      2c:	0c 94 4b 31 	jmp	0x6296	; 0x6296 <__vector_11>
      30:	0c 94 a1 28 	jmp	0x5142	; 0x5142 <__bad_interrupt>
      34:	0c 94 b5 30 	jmp	0x616a	; 0x616a <__vector_13>
      38:	0c 94 a1 28 	jmp	0x5142	; 0x5142 <__bad_interrupt>
      3c:	0c 94 a1 28 	jmp	0x5142	; 0x5142 <__bad_interrupt>
      40:	0c 94 a1 28 	jmp	0x5142	; 0x5142 <__bad_interrupt>
      44:	0c 94 a1 28 	jmp	0x5142	; 0x5142 <__bad_interrupt>
      48:	0c 94 a1 28 	jmp	0x5142	; 0x5142 <__bad_interrupt>
      4c:	0c 94 a1 28 	jmp	0x5142	; 0x5142 <__bad_interrupt>
      50:	0c 94 a1 28 	jmp	0x5142	; 0x5142 <__bad_interrupt>
      54:	0c 94 a1 28 	jmp	0x5142	; 0x5142 <__bad_interrupt>
      58:	0c 94 a1 28 	jmp	0x5142	; 0x5142 <__bad_interrupt>
      5c:	0c 94 a1 28 	jmp	0x5142	; 0x5142 <__bad_interrupt>
      60:	0c 94 a1 28 	jmp	0x5142	; 0x5142 <__bad_interrupt>
      64:	0c 94 a1 28 	jmp	0x5142	; 0x5142 <__bad_interrupt>

00000068 <music1>:
      68:	01 1d 07 1b 02 00 08 18 02 00 08 1f 02 00 12 25     ...............%
      78:	02 00 08 21 02 00 12 29 02 00 01 75 07 6f 02 00     ...!...)...u.o..
      88:	08 63 02 00 08 7d 02 00 12 94 02 00 08 84 02 00     .c...}..........
      98:	12 a6 02 00 01 eb 07 de 02 00 08 c6 02 00 08 fa     ................
      a8:	02 00 12 94 02 00 08 84 02 00 08 94 02 00 08 9d     ................
      b8:	02 00 03 a6 25 00 12 a6 02 00 08 de 02 00 08 d2     ....%...........
      c8:	02 00 05 c6 05 00 05 7d 0f 00 05 c6 05 00 05 7d     .......}.......}
      d8:	0f 00 05 c6 05 00 38 7d 04 00 05 3e 05 00 05 37     ......8}...>...7
      e8:	05 00 05 34 05 00 05 31 05 00 05 3e 05 00 05 37     ...4...1...>...7
      f8:	05 00 0f 31 05 00 05 42 05 00 05 37 0f 00 0f 3e     ...1...B...7...>
     108:	05 00 05 63 05 00 05 53 05 00 05 3e 0f 00 05 de     ...c...S...>....
     118:	05 00 05 d2 05 00 05 c6 05 00 05 7d 0f 00 05 c6     ...........}....
     128:	05 00 05 7d 0f 00 05 c6 05 00 41 7d 05 00 05 4a     ...}......A}...J
     138:	05 00 05 53 05 00 05 58 05 00 05 4a 05 00 05 3e     ...S...X...J...>
     148:	05 00 0f 31 05 00 05 37 05 00 05 3e 05 00 05 4a     ...1...7...>...J
     158:	05 00 3a 37 02 00 05 de 05 00 05 d2 05 00 05 c6     ..:7............
     168:	05 00 05 7d 0f 00 05 c6 05 00 05 7d 0f 00 05 c6     ...}.......}....
     178:	05 00 3a 7d 02 00 05 3e 05 00 05 37 05 00 05 34     ..:}...>...7...4
     188:	05 00 05 31 05 00 05 3e 05 00 05 37 05 00 0f 31     ...1...>...7...1
     198:	05 00 05 42 05 00 05 37 0f 00 0f 3e 05 00 05 63     ...B...7...>...c
     1a8:	05 00 05 53 05 00 05 3e 0f 00 05 3e 05 00 05 37     ...S...>...>...7
     1b8:	05 00 05 31 05 00 05 3e 05 00 05 37 05 00 0f 31     ...1...>...7...1
     1c8:	05 00 05 3e 05 00 05 37 05 00 05 3e 05 00 05 31     ...>...7...>...1
     1d8:	05 00 05 3e 05 00 05 37 05 00 0f 31 05 00 05 3e     ...>...7...1...>
     1e8:	05 00 05 37 05 00 05 3e 05 00 05 31 05 00 05 3e     ...7...>...1...>
     1f8:	05 00 05 37 05 00 0f 31 05 00 05 42 05 00 05 37     ...7...1...B...7
     208:	0f 00 3a 3e 02 00 05 de 05 00 05 d2 05 00 05 c6     ..:>............
     218:	05 00 05 7d 0f 00 05 c6 05 00 05 7d 0f 00 05 c6     ...}.......}....
     228:	05 00 38 7d 04 00 05 3e 05 00 05 37 05 00 05 34     ..8}...>...7...4
     238:	05 00 05 31 05 00 05 3e 05 00 05 37 05 00 0f 31     ...1...>...7...1
     248:	05 00 05 42 05 00 05 37 0f 00 0f 3e 05 00 05 63     ...B...7...>...c
     258:	05 00 05 53 05 00 05 3e 0f 00 05 de 05 00 05 d2     ...S...>........
     268:	05 00 05 c6 05 00 05 7d 0f 00 05 c6 05 00 05 7d     .......}.......}
     278:	0f 00 05 c6 05 00 41 7d 05 00 05 4a 05 00 05 53     ......A}...J...S
     288:	05 00 05 58 05 00 05 4a 05 00 05 3e 05 00 0f 31     ...X...J...>...1
     298:	05 00 05 37 05 00 05 3e 05 00 05 4a 05 00 3a 37     ...7...>...J..:7
     2a8:	02 00 05 de 05 00 05 d2 05 00 05 c6 05 00 05 7d     ...............}
     2b8:	0f 00 05 c6 05 00 05 7d 0f 00 05 c6 05 00 3a 7d     .......}......:}
     2c8:	02 00 05 3e 05 00 05 37 05 00 05 34 05 00 05 31     ...>...7...4...1
     2d8:	05 00 05 3e 05 00 05 37 05 00 0f 31 05 00 05 42     ...>...7...1...B
     2e8:	05 00 05 37 0f 00 0f 3e 05 00 05 63 05 00 05 53     ...7...>...c...S
     2f8:	05 00 05 3e 0f 00 05 3e 05 00 05 37 05 00 05 31     ...>...>...7...1
     308:	05 00 05 3e 05 00 05 37 05 00 0f 31 05 00 05 3e     ...>...7...1...>
     318:	05 00 05 37 05 00 05 3e 05 00 05 31 05 00 05 3e     ...7...>...1...>
     328:	05 00 05 37 05 00 0f 31 05 00 05 3e 05 00 05 37     ...7...1...>...7
     338:	05 00 05 3e 05 00 05 31 05 00 05 3e 05 00 05 37     ...>...1...>...7
     348:	05 00 0f 31 05 00 05 42 05 00 05 37 0f 00 2d 3e     ...1...B...7..->
     358:	05 00 05 63 05 00 05 5d 05 00 05 58 05 00 05 53     ...c...]...X...S
     368:	0f 00 05 4a 05 00 10 53 04 00 05 63 05 00 05 5d     ...J...S...c...]
     378:	05 00 05 58 05 00 05 53 0f 00 05 4a 05 00 10 53     ...X...S...J...S
     388:	04 00 05 63 05 00 05 7d 05 00 05 a6 05 00 05 94     ...c...}........
     398:	05 00 05 84 05 00 05 7d 05 00 05 6f 05 00 05 63     .......}...o...c
     3a8:	05 00 05 6f 00                                      ...o.

000003ad <snd_jump>:
     3ad:	01 c8 01 be 01 b4 01 aa 01 a0 01 96 01 8c 01 82     ................
     3bd:	01 78 01 6e 01 64 00                                .x.n.d.

000003c4 <snd_tram>:
     3c4:	01 cd 01 b9 01 a5 01 91 01 7d 01 69 01 55 01 41     .........}.i.U.A
     3d4:	01 2d 01 19 01 0f 00                                .-.....

000003db <snd_impact>:
     3db:	01 fa 00                                            ...

000003de <snd_fall>:
     3de:	02 3c 02 3e 02 40 02 42 02 44 02 46 02 48 02 4a     .<.>.@.B.D.F.H.J
     3ee:	02 4c 02 4e 02 50 02 52 02 54 02 56 02 58 02 5a     .L.N.P.R.T.V.X.Z
	...

000003ff <text1>:
     3ff:	52 45 54 52 4f 77 49 5a 21 20 41 56 47 41 20 32     RETROwIZ! AVGA 2
     40f:	2e 30 2d 62 61 73 65 64 20 72 65 74 72 6f 20 50     .0-based retro P
     41f:	43 2e 20 54 68 65 20 41 54 6d 65 67 61 33 32 38     C. The ATmega328
     42f:	20 72 75 6e 73 20 61 74 20 33 32 4d 48 7a 20 61      runs at 32MHz a
     43f:	6e 64 20 70 72 6f 64 75 63 65 73 20 31 36 38 2a     nd produces 168*
     44f:	32 30 30 20 70 72 6f 67 72 65 73 73 69 76 65 20     200 progressive 
     45f:	56 47 41 20 73 69 67 6e 61 6c 20 77 69 74 68 20     VGA signal with 
     46f:	31 36 20 63 6f 6c 6f 72 73 2e 20 00                 16 colors. .

0000047b <pgmmap>:
     47b:	99 99 99 99 99 99 99 99 99 99 99 99 99 99 99 99     ................
     48b:	99 99 99 99 99 99 99 99 99 99 99 99 99 99 99 99     ................
     49b:	00 88 88 00 80 98 89 08 88 99 ff 88 98 99 ff 89     ................
     4ab:	98 99 99 89 88 99 99 88 80 98 89 08 00 88 88 00     ................
     4bb:	00 88 88 00 80 a8 8a 08 88 aa ff 88 a8 aa ff 8a     ................
     4cb:	a8 aa aa 8a 88 aa aa 88 80 a8 8a 08 00 88 88 00     ................
     4db:	00 88 88 00 80 c8 8c 08 88 cc ff 88 c8 cc ff 8c     ................
     4eb:	c8 cc cc 8c 88 cc cc 88 80 c8 8c 08 00 88 88 00     ................
     4fb:	00 f0 0f 00 00 f0 0f 00 00 f0 0f 00 ff ff ff ff     ................
     50b:	ff ff ff ff 00 f0 0f 00 00 f0 0f 00 00 f0 0f 00     ................
     51b:	77 77 77 77 07 00 00 00 07 00 00 00 07 00 00 00     wwww............
     52b:	07 00 00 00 07 00 00 00 07 00 00 00 07 00 00 00     ................
     53b:	77 77 77 77 00 00 00 00 00 00 00 00 00 00 00 00     wwww............
	...
     55b:	77 77 77 77 00 00 00 70 00 00 00 70 00 00 00 70     wwww...p...p...p
     56b:	00 00 00 70 00 00 00 70 00 00 00 70 00 00 00 70     ...p...p...p...p
     57b:	00 00 00 70 00 00 00 70 00 00 00 70 00 00 00 70     ...p...p...p...p
     58b:	00 00 00 70 00 00 00 70 00 00 00 70 00 00 00 70     ...p...p...p...p
     59b:	00 00 00 70 00 00 00 70 00 00 00 70 00 00 00 70     ...p...p...p...p
     5ab:	00 00 00 70 00 00 00 70 00 00 00 70 77 77 77 77     ...p...p...pwwww
	...
     5d7:	77 77 77 77 07 00 00 00 07 00 00 00 07 00 00 00     wwww............
     5e7:	07 00 00 00 07 00 00 00 07 00 00 00 07 00 00 00     ................
     5f7:	77 77 77 77 07 00 00 00 07 00 00 00 07 00 00 00     wwww............
     607:	07 00 00 00 07 00 00 00 07 00 00 00 07 00 00 00     ................
     617:	07 00 00 00 00 00 00 00 00 00 77 77 00 00 ff ff     ..........ww....
     627:	00 80 ff ff 00 f0 ff f7 00 f8 7f f0 00 f7 7f f0     ................
     637:	00 ff 0f 80 00 00 00 00 00 77 87 00 07 f7 7f 00     .........w......
     647:	0f f8 ff 00 7f f0 ff 07 ff 80 ff 0f ff 08 ff 8f     ................
     657:	ff 0f f8 7f 00 00 00 00 00 78 77 00 00 f7 7f 70     .........xw....p
     667:	00 ff 8f f0 70 ff 07 f7 f0 ff 08 ff f8 ff 80 ff     ....p...........
     677:	f7 8f f0 ff 00 00 00 00 77 77 77 00 ff ff ff 0f     ........www.....
     687:	ff 88 ff 7f 7f 00 f7 7f 8f 80 ff 8f ff ff ff 07     ................
     697:	ff ff 8f 00 80 ff ff ff f0 ff ff ff f8 ff 78 77     ..............xw
     6a7:	f7 7f 00 00 88 08 00 00 00 00 00 00 00 00 00 00     ................
     6b7:	00 00 00 00 ff 8f f0 ff ff 7f 70 ff f7 ff 00 ff     ..........p.....
     6c7:	70 ff 07 f7 00 88 08 f8 00 00 00 70 00 00 00 80     p..........p....
     6d7:	00 00 00 00 ff 0f f8 ff ff 07 f7 7f ff 00 ff 8f     ................
     6e7:	7f 70 ff 0f 0f 80 88 00 07 00 00 00 08 00 00 00     .p..............
     6f7:	00 00 00 00 f8 ff 00 00 70 ff 07 00 70 ff 0f 00     ........p...p...
     707:	80 ff 8f 00 00 88 88 00 00 00 00 00 00 00 00 00     ................
     717:	00 00 00 00 88 08 88 88 88 87 78 88 88 88 88 88     ..........x.....
     727:	08 88 88 08 88 88 87 88 78 88 88 88 88 88 80 78     ........x......x
     737:	88 88 88 88 77 77 77 77 44 74 4f 44 44 74 44 44     ....wwwwDtODDtDD
     747:	44 74 44 44 77 77 77 77 4f 44 44 74 44 44 44 74     DtDDwwwwODDtDDDt
     757:	44 44 44 74 88 08 88 88 88 87 78 88 88 88 88 88     DDDt......x.....
     767:	08 88 88 08 77 77 77 77 4f 44 44 74 44 44 44 74     ....wwwwODDtDDDt
     777:	44 44 44 74 77 77 77 77 97 99 99 99 97 ff ff ff     DDDtwwww........
     787:	97 bf bb bb 97 bf 99 99 97 bf 19 11 97 bf 19 88     ................
     797:	97 bf 19 08 77 77 77 77 99 99 99 99 ff ff ff ff     ....wwww........
     7a7:	bb bb bb bb 99 99 99 99 11 11 11 11 88 88 88 88     ................
     7b7:	00 00 00 00 77 77 77 77 99 99 99 89 ff ff ff 81     ....wwww........
     7c7:	bb bb 9b 81 99 99 9b 81 11 f1 9b 81 88 f9 9b 81     ................
     7d7:	70 f9 9b 81 70 f9 9b 81 70 f9 9b 81 70 f9 9b 81     p...p...p...p...
     7e7:	70 f9 9b 81 70 f9 9b 81 70 f9 9b 81 70 f9 9b 81     p...p...p...p...
     7f7:	70 f9 9b 81 70 f9 9b 81 77 f9 9b 81 99 f9 9b 81     p...p...w.......
     807:	ff ff 9b 81 bb bb 9b 81 99 99 99 81 11 11 11 81     ................
     817:	88 88 88 88 00 00 00 00 77 77 77 77 99 99 99 99     ........wwww....
     827:	ff ff ff ff bb bb bb bb 99 99 99 99 11 11 11 11     ................
     837:	88 88 88 88 97 bf 19 08 97 bf 19 78 97 bf 19 99     ...........x....
     847:	97 bf f9 ff 97 bf bb bb 97 9f 99 99 97 11 11 11     ................
     857:	87 88 88 88 97 bf 19 08 97 bf 19 08 97 bf 19 08     ................
     867:	97 bf 19 08 97 bf 19 08 97 bf 19 08 97 bf 19 08     ................
     877:	97 bf 19 08 00 00 00 00 00 00 00 00 00 00 00 00     ................
	...
     89b:	00 77 00 00 70 77 07 00 70 77 87 00 00 77 88 00     .w..pw..pw...w..
     8ab:	00 77 08 00 00 80 08 00 00 77 00 00 00 80 08 00     .w.......w......
     8bb:	70 07 77 00 70 87 77 08 70 87 77 08 00 88 80 08     p.w.p.w.p.w.....
	...
     8db:	70 07 77 00 70 87 77 08 77 77 77 07 70 87 77 88     p.w.p.w.www.p.w.
     8eb:	77 77 77 07 70 87 77 88 70 87 77 08 00 88 80 08     www.p.w.p.w.....
     8fb:	00 77 00 00 70 77 77 00 77 88 88 08 70 77 07 00     .w..pww.w...pw..
     90b:	00 88 77 00 77 77 87 08 80 77 88 00 00 80 08 00     ..w.ww...w......
     91b:	00 00 00 00 77 00 70 07 77 08 77 88 80 78 87 08     ....w.p.w.w..x..
     92b:	00 77 88 00 70 87 78 07 77 88 70 87 80 08 00 88     .w..p.x.w.p.....
     93b:	00 77 07 00 70 87 77 00 00 77 87 08 70 77 78 07     .w..p.w..w..pwx.
     94b:	77 78 77 88 77 08 77 08 70 77 70 07 00 88 08 88     wxw.w.w.pwp.....
     95b:	70 07 00 00 70 87 00 00 77 88 00 00 80 08 00 00     p...p...w.......
	...
     97b:	00 70 07 00 00 77 88 00 70 87 08 00 70 87 00 00     .p...w..p...p...
     98b:	70 87 00 00 00 77 00 00 00 70 07 00 00 00 88 00     p....w...p......
     99b:	70 07 00 00 00 77 00 00 00 70 07 00 00 70 87 00     p....w...p...p..
     9ab:	00 70 87 00 00 77 88 00 70 87 08 00 00 88 00 00     .p...w..p.......
     9bb:	00 00 00 00 70 07 70 07 00 77 77 88 77 77 77 77     ....p.p..ww.wwww
     9cb:	80 77 77 88 70 87 78 07 00 88 00 88 00 00 00 00     .ww.p.x.........
     9db:	00 00 00 00 00 77 00 00 00 77 08 00 77 77 77 00     .....w...w..www.
     9eb:	80 77 88 08 00 77 08 00 00 80 08 00 00 00 00 00     .w...w..........
	...
     a0f:	00 77 00 00 00 77 08 00 70 87 08 00 00 00 00 00     .w...w..p.......
	...
     a27:	77 77 77 00 80 88 88 08 00 00 00 00 00 00 00 00     www.............
	...
     a4f:	00 77 00 00 00 77 08 00 00 80 08 00 00 00 70 07     .w...w........p.
     a5f:	00 00 77 88 00 70 87 08 00 77 88 00 70 87 08 00     ..w..p...w..p...
     a6f:	77 88 00 00 87 08 00 00 80 00 00 00 70 77 77 00     w...........pww.
     a7f:	77 88 78 07 77 08 70 87 77 08 70 87 77 08 70 87     w.x.w.p.w.p.w.p.
     a8f:	77 08 70 87 70 77 77 88 00 88 88 08 00 77 00 00     w.p.pww......w..
     a9f:	70 77 08 00 00 77 08 00 00 77 08 00 00 77 08 00     pw...w...w...w..
     aaf:	00 77 08 00 77 77 77 00 80 88 88 08 70 77 07 00     .w..www.....pw..
     abf:	77 88 77 00 80 08 77 08 00 77 87 08 70 87 88 00     w.w...w..w..p...
     acf:	77 88 77 00 77 77 77 08 80 88 88 08 70 77 07 00     w.w.www.....pw..
     adf:	77 88 77 00 80 08 77 08 00 77 87 08 00 80 77 00     w.w...w..w....w.
     aef:	77 00 77 08 70 77 87 08 00 88 88 00 00 70 77 00     w.w.pw.......pw.
     aff:	00 77 77 08 70 87 77 08 77 88 77 08 77 77 77 07     .ww.p.w.w.w.www.
     b0f:	80 88 77 88 00 70 77 07 00 00 88 88 77 77 77 00     ..w..pw.....www.
     b1f:	77 88 88 08 77 77 07 00 80 88 77 00 00 00 77 08     w...ww....w...w.
     b2f:	77 00 77 08 70 77 87 08 00 88 88 00 00 77 07 00     w.w.pw.......w..
     b3f:	70 87 88 00 77 88 00 00 77 77 07 00 77 88 77 00     p...w...ww..w.w.
     b4f:	77 08 77 08 70 77 87 08 00 88 88 00 77 77 77 00     w.w.pw......www.
     b5f:	77 88 77 08 80 08 77 08 00 70 87 08 00 77 88 00     w.w...w..p...w..
     b6f:	00 77 08 00 00 77 08 00 00 80 08 00 70 77 07 00     .w...w......pw..
     b7f:	77 88 77 00 77 08 77 08 70 77 87 08 77 88 77 00     w.w.w.w.pw..w.w.
     b8f:	77 08 77 08 70 77 87 08 00 88 88 00 70 77 07 00     w.w.pw......pw..
     b9f:	77 88 77 00 77 08 77 08 70 77 77 08 00 88 77 08     w.w.w.w.pww...w.
     baf:	00 70 87 08 70 77 88 00 00 88 08 00 00 00 00 00     .p..pw..........
     bbf:	00 77 00 00 00 77 08 00 00 80 08 00 00 00 00 00     .w...w..........
     bcf:	00 77 00 00 00 77 08 00 00 80 08 00 00 00 00 00     .w...w..........
     bdf:	00 77 00 00 00 77 08 00 00 80 08 00 00 00 00 00     .w...w..........
     bef:	00 77 00 00 00 77 08 00 70 87 08 00 00 70 07 00     .w...w..p....p..
     bff:	00 77 88 00 70 87 08 00 77 88 00 00 70 07 00 00     .w..p...w...p...
     c0f:	00 77 00 00 00 70 07 00 00 00 88 00 00 00 00 00     .w...p..........
     c1f:	00 00 00 00 77 77 77 00 80 88 88 08 00 00 00 00     ....www.........
     c2f:	77 77 77 00 80 88 88 08 00 00 00 00 70 07 00 00     www.........p...
     c3f:	00 77 00 00 00 70 07 00 00 00 77 00 00 70 87 08     .w...p....w..p..
     c4f:	00 77 88 00 70 87 08 00 00 88 00 00 70 77 07 00     .w..p.......pw..
     c5f:	77 88 77 00 80 08 77 08 00 70 87 08 00 77 88 00     w.w...w..p...w..
     c6f:	00 80 08 00 00 77 00 00 00 80 08 00 70 77 77 00     .....w......pww.
     c7f:	77 88 78 07 77 78 77 87 77 78 77 87 77 78 77 87     w.x.wxw.wxw.wxw.
     c8f:	77 08 88 88 70 77 07 00 00 88 88 00 00 77 07 00     w...pw.......w..
     c9f:	70 87 77 00 77 88 70 07 77 08 70 87 77 77 77 87     p.w.w.p.w.p.www.
     caf:	77 88 78 87 77 08 70 87 80 08 00 88 77 77 77 00     w.x.w.p.....www.
     cbf:	77 88 78 07 77 08 70 87 77 77 77 88 77 88 78 07     w.x.w.p.www.w.x.
     ccf:	77 08 70 87 77 77 77 88 80 88 88 08 70 77 77 00     w.p.www.....pww.
     cdf:	77 88 78 07 77 08 70 87 77 08 00 88 77 08 00 00     w.x.w.p.w...w...
     cef:	77 08 70 07 70 77 77 88 00 88 88 08 77 77 07 00     w.p.pww.....ww..
     cff:	77 88 77 00 77 08 70 07 77 08 70 87 77 08 70 87     w.w.w.p.w.p.w.p.
     d0f:	77 08 77 88 77 77 87 08 80 88 88 00 77 77 77 07     w.w.ww......www.
     d1f:	77 88 88 88 77 08 00 00 77 77 77 00 77 88 88 08     w...w...www.w...
     d2f:	77 08 00 00 77 77 77 07 80 88 88 88 77 77 77 07     w...www.....www.
     d3f:	77 88 88 88 77 08 00 00 77 77 77 00 77 88 88 08     w...w...www.w...
     d4f:	77 08 00 00 77 08 00 00 80 08 00 00 70 77 77 00     w...w.......pww.
     d5f:	77 88 78 07 77 08 00 88 77 08 77 07 77 08 70 87     w.x.w...w.w.w.p.
     d6f:	77 08 70 87 70 77 77 87 00 88 88 88 77 00 70 07     w.p.pww.....w.p.
     d7f:	77 08 70 87 77 08 70 87 77 77 77 87 77 88 78 87     w.p.w.p.www.w.x.
     d8f:	77 08 70 87 77 08 70 87 80 08 00 88 70 77 07 00     w.p.w.p.....pw..
     d9f:	00 77 88 00 00 77 08 00 00 77 08 00 00 77 08 00     .w...w...w...w..
     daf:	00 77 08 00 70 77 07 00 00 88 88 00 00 70 77 07     .w..pw.......pw.
     dbf:	00 00 78 87 00 00 70 87 00 00 70 87 77 00 70 87     ..x...p...p.w.p.
     dcf:	77 08 70 87 70 77 77 88 00 88 88 08 77 00 70 07     w.p.pww.....w.p.
     ddf:	77 08 77 88 77 78 87 08 77 77 88 00 77 78 07 00     w.w.wx..ww..wx..
     def:	77 08 77 00 77 08 70 07 80 08 00 88 77 00 00 00     w.w.w.p.....w...
     dff:	77 08 00 00 77 08 00 00 77 08 00 00 77 08 00 00     w...w...w...w...
     e0f:	77 08 00 00 77 77 77 07 80 88 88 88 77 00 70 07     w...www.....w.p.
     e1f:	77 07 77 87 77 77 77 87 77 78 78 87 77 08 78 87     w.w.www.wxx.w.x.
     e2f:	77 08 70 87 77 08 70 87 80 08 00 88 77 00 70 07     w.p.w.p.....w.p.
     e3f:	77 07 70 87 77 77 70 87 77 78 77 87 77 08 77 87     w.p.wwp.wxw.w.w.
     e4f:	77 08 70 87 77 08 70 87 80 08 00 88 70 77 77 00     w.p.w.p.....pww.
     e5f:	77 88 78 07 77 08 70 87 77 08 70 87 77 08 70 87     w.x.w.p.w.p.w.p.
     e6f:	77 08 70 87 70 77 77 88 00 88 88 08 77 77 77 00     w.p.pww.....www.
     e7f:	77 88 78 07 77 08 70 87 77 77 77 88 77 88 88 08     w.x.w.p.www.w...
     e8f:	77 08 00 00 77 08 00 00 80 08 00 00 70 77 77 00     w...w.......pww.
     e9f:	77 88 78 07 77 08 70 87 77 08 70 87 77 08 70 87     w.x.w.p.w.p.w.p.
     eaf:	77 08 70 87 70 77 77 88 00 88 78 07 77 77 77 00     w.p.pww...x.www.
     ebf:	77 88 78 07 77 08 70 87 77 77 77 88 77 88 78 07     w.x.w.p.www.w.x.
     ecf:	77 08 70 87 77 08 70 87 80 08 00 88 70 77 07 00     w.p.w.p.....pw..
     edf:	77 88 77 00 70 07 80 08 00 77 00 00 00 70 07 00     w.w.p....w...p..
     eef:	77 00 77 00 70 77 87 08 00 88 88 00 77 77 77 00     w.w.pw......www.
     eff:	80 77 88 08 00 77 08 00 00 77 08 00 00 77 08 00     .w...w...w...w..
     f0f:	00 77 08 00 00 77 08 00 00 80 08 00 77 00 70 07     .w...w......w.p.
     f1f:	77 08 70 87 77 08 70 87 77 08 70 87 77 08 70 87     w.p.w.p.w.p.w.p.
     f2f:	77 08 70 87 70 77 77 88 00 88 88 08 77 00 70 07     w.p.pww.....w.p.
     f3f:	77 08 70 87 77 08 70 87 77 08 70 87 77 08 70 87     w.p.w.p.w.p.w.p.
     f4f:	70 07 77 88 00 77 87 08 00 80 88 00 77 00 70 07     p.w..w......w.p.
     f5f:	77 08 70 87 77 08 70 87 77 78 70 87 77 77 77 87     w.p.w.p.wxp.www.
     f6f:	77 87 77 87 77 88 70 87 80 08 00 88 77 00 70 07     w.w.w.p.....w.p.
     f7f:	77 08 70 87 70 07 77 88 00 77 87 08 70 87 77 00     w.p.p.w..w..p.w.
     f8f:	77 88 70 07 77 08 70 87 80 08 00 88 77 00 00 77     w.p.w.p.....w..w
     f9f:	77 08 00 77 70 07 70 87 00 77 77 88 00 70 87 08     w..wp.p..ww..p..
     faf:	00 70 87 00 00 70 87 00 00 00 88 00 77 77 77 07     .p...p......www.
     fbf:	80 88 77 88 00 70 87 08 00 77 88 00 70 87 08 00     ..w..p...w..p...
     fcf:	77 88 00 00 77 77 77 07 80 88 88 88 00 77 77 00     w...www......ww.
     fdf:	00 77 88 08 00 77 08 00 00 77 08 00 00 77 08 00     .w...w...w...w..
     fef:	00 77 08 00 00 77 77 00 00 80 88 08 77 00 00 00     .w...ww.....w...
     fff:	70 07 00 00 00 77 00 00 00 70 07 00 00 00 77 00     p....w...p....w.
    100f:	00 00 70 07 00 00 00 77 00 00 00 80 00 77 77 00     ..p....w.....ww.
    101f:	00 80 77 08 00 00 77 08 00 00 77 08 00 00 77 08     ..w...w...w...w.
    102f:	00 00 77 08 00 77 77 08 00 80 88 08 00 00 00 00     ..w..ww.........
    103f:	00 77 07 00 70 87 77 00 77 88 70 07 80 08 00 88     .w..p.w.w.p.....
	...
    1077:	77 77 77 77 00 77 00 00 00 77 08 00 00 70 07 00     wwww.w...w...p..
    1087:	00 00 88 00 00 00 00 00 00 00 00 00 00 00 00 00     ................
	...
    10a3:	70 77 77 00 00 88 78 07 70 77 77 87 77 88 78 87     pww...x.pww.w.x.
    10b3:	70 77 77 87 00 88 88 88 77 00 00 00 77 08 00 00     pww.....w...w...
    10c3:	77 77 77 00 77 88 78 07 77 08 70 87 77 07 70 87     www.w.x.w.p.w.p.
    10d3:	77 78 77 88 80 08 88 08 00 00 00 00 00 00 00 00     wxw.............
    10e3:	70 77 77 00 77 88 78 07 77 08 00 88 77 08 00 00     pww.w.x.w...w...
    10f3:	70 77 77 07 00 88 88 88 00 00 70 07 00 00 70 87     pww.......p...p.
    1103:	70 77 77 87 77 88 78 87 77 08 70 87 77 08 77 87     pww.w.x.w.p.w.w.
    1113:	70 77 70 87 00 88 08 88 00 00 00 00 00 00 00 00     pwp.............
    1123:	70 77 77 00 77 88 78 07 77 77 77 87 77 88 88 88     pww.w.x.www.w...
    1133:	70 77 77 07 00 88 88 88 00 70 77 07 00 77 88 88     pww......pw..w..
    1143:	70 77 77 00 00 77 88 08 00 77 08 00 00 77 08 00     pww..w...w...w..
    1153:	00 77 08 00 00 80 08 00 00 00 00 00 00 00 00 00     .w..............
    1163:	70 77 77 07 77 88 78 87 77 08 77 87 70 77 70 87     pww.w.x.w.w.pwp.
    1173:	00 88 78 87 70 77 77 88 77 00 00 00 77 08 00 00     ..x.pww.w...w...
    1183:	77 77 77 00 77 88 78 07 77 08 70 87 77 08 70 87     www.w.x.w.p.w.p.
    1193:	77 08 70 87 80 08 00 88 00 70 07 00 00 00 88 00     w.p......p......
    11a3:	00 77 07 00 00 70 87 00 00 70 87 00 00 70 87 00     .w...p...p...p..
    11b3:	00 77 77 00 00 80 88 08 00 70 07 00 00 00 88 00     .ww......p......
    11c3:	00 77 07 00 00 70 87 00 00 70 87 00 00 70 87 00     .w...p...p...p..
    11d3:	00 70 87 00 77 77 88 00 77 00 00 00 77 08 00 00     .p..ww..w...w...
    11e3:	77 08 77 00 77 78 87 08 77 77 88 00 77 78 07 00     w.w.wx..ww..wx..
    11f3:	77 08 77 00 80 08 80 08 00 77 07 00 00 70 87 00     w.w......w...p..
    1203:	00 70 87 00 00 70 87 00 00 70 87 00 00 70 87 00     .p...p...p...p..
    1213:	00 77 77 00 00 80 88 08 00 00 00 00 00 00 00 00     .ww.............
    1223:	77 00 77 00 77 77 77 07 77 78 78 87 77 08 78 87     w.w.www.wxx.w.x.
    1233:	77 08 70 87 80 08 00 88 00 00 00 00 00 00 00 00     w.p.............
    1243:	77 77 77 00 77 88 78 07 77 08 70 87 77 08 70 87     www.w.x.w.p.w.p.
    1253:	77 08 70 87 80 08 00 88 00 00 00 00 00 00 00 00     w.p.............
    1263:	70 77 77 00 77 88 78 07 77 08 70 87 77 08 70 87     pww.w.x.w.p.w.p.
    1273:	70 77 77 88 00 88 88 08 00 00 00 00 00 00 00 00     pww.............
    1283:	77 77 77 00 77 88 78 07 77 08 70 87 77 07 70 87     www.w.x.w.p.w.p.
    1293:	77 78 77 88 77 08 88 08 00 00 00 00 00 00 00 00     wxw.w...........
    12a3:	70 77 77 07 77 88 78 87 77 08 70 87 77 08 77 87     pww.w.x.w.p.w.w.
    12b3:	70 77 70 87 00 88 78 87 00 00 00 00 00 00 00 00     pwp...x.........
    12c3:	70 07 77 07 70 77 80 88 70 87 08 00 70 87 00 00     p.w.pw..p...p...
    12d3:	70 87 00 00 00 88 00 00 00 00 00 00 00 00 00 00     p...............
    12e3:	70 77 77 00 77 88 88 08 70 77 77 00 00 88 78 07     pww.w...pww...x.
    12f3:	77 77 77 88 80 88 88 08 00 77 00 00 00 77 08 00     www......w...w..
    1303:	70 77 77 00 00 77 88 08 00 77 08 00 00 77 08 00     pww..w...w...w..
    1313:	00 70 77 00 00 00 88 08 00 00 00 00 00 00 00 00     .pw.............
    1323:	77 00 70 07 77 08 70 87 77 08 70 87 77 08 70 87     w.p.w.p.w.p.w.p.
    1333:	70 77 77 87 00 88 88 88 00 00 00 00 00 00 00 00     pww.............
    1343:	77 00 70 07 77 08 70 87 77 08 70 87 70 07 77 88     w.p.w.p.w.p.p.w.
    1353:	00 77 87 08 00 80 88 00 00 00 00 00 00 00 00 00     .w..............
    1363:	77 00 70 07 77 08 70 87 77 78 70 87 77 77 77 87     w.p.w.p.wxp.www.
    1373:	70 87 77 88 00 88 80 08 00 00 00 00 00 00 00 00     p.w.............
    1383:	77 00 70 07 70 07 77 88 00 77 87 08 70 87 77 00     w.p.p.w..w..p.w.
    1393:	77 88 70 07 80 08 00 88 00 00 00 00 00 00 00 00     w.p.............
    13a3:	77 00 70 07 77 08 70 87 77 08 77 87 70 77 70 87     w.p.w.p.w.w.pwp.
    13b3:	00 88 78 87 70 77 77 88 00 00 00 00 00 00 00 00     ..x.pww.........
    13c3:	77 77 77 00 80 78 87 08 00 77 88 00 70 87 08 00     www..x...w..p...
    13d3:	77 77 77 00 80 88 88 08 00 70 77 00 00 77 88 08     www......pw..w..
    13e3:	00 77 08 00 77 87 08 00 80 77 00 00 00 77 08 00     .w..w....w...w..
    13f3:	00 70 77 00 00 00 88 08 00 70 07 00 00 70 87 00     .pw......p...p..
    1403:	00 70 87 00 00 00 88 00 00 70 07 00 00 70 87 00     .p.......p...p..
    1413:	00 70 87 00 00 00 88 00 77 07 00 00 80 77 00 00     .p......w....w..
    1423:	00 77 08 00 00 70 77 00 00 77 88 08 00 77 08 00     .w...pw..w...w..
    1433:	77 87 08 00 80 88 00 00 70 77 70 07 77 78 77 88     w.......pwp.wxw.
    1443:	80 08 88 08 00 00 00 00 00 00 00 00 00 00 00 00     ................
	...
    145f:	00 70 00 00 00 77 07 00 70 87 77 00 77 88 70 07     .p...w..p.w.w.p.
    146f:	77 08 70 87 77 77 77 87 80 88 88 88 00 00 00 00     w.p.www.........
	...

0000149b <map1_tileset>:
	...
    14bb:	00 00 aa aa 00 a0 22 22 00 c0 aa a2 00 a8 cc cc     ......""........
    14cb:	00 cc cc cc 80 cc cc cc 80 cc cc cc c0 cc cc cc     ................
    14db:	aa aa aa aa 22 22 22 22 ca aa 2a ac cc cc cc cc     ....""""..*.....
    14eb:	cc cc cc cc cc cc cc cc cc cc cc cc cc cc cc cc     ................
    14fb:	aa aa aa aa a2 22 22 a2 ca 2a 22 2a ac cc cc cc     .....""..*"*....
    150b:	cc cc cc cc cc cc cc cc cc cc cc cc cc cc cc cc     ................
    151b:	aa aa 00 00 2a a2 00 00 2a a2 08 00 cc 8c 08 00     ....*...*.......
    152b:	cc cc 00 00 cc c8 00 00 8c 08 00 00 8c 88 00 00     ................
    153b:	aa aa aa aa aa 22 9a 99 2a ca 89 00 cc 9c 00 00     ....."..*.......
    154b:	cc 8c 00 00 cc 8c 00 00 cc cc 0c 00 cc cc cc 8c     ................
    155b:	aa da df a2 88 d0 df 88 00 d0 5f 00 00 d0 5f 00     .........._..._.
    156b:	00 d0 5f 00 00 d0 5f 00 00 d0 9f 00 00 d0 8d 00     .._..._.........
    157b:	aa 2a aa aa 88 98 a9 a8 00 00 80 2a 00 00 00 c8     .*.........*....
    158b:	00 00 00 c0 00 00 00 c8 00 00 80 cc 8c c8 cc cc     ................
    159b:	8c 80 8c c8 0c 88 0c c8 88 c8 08 c8 08 c8 0c c8     ................
    15ab:	08 88 0c c0 0c 80 08 98 88 00 80 80 cc 00 00 80     ................
    15bb:	82 00 00 00 aa aa 8a 08 aa 2a a2 aa cc ac 2a a2     .........*....*.
    15cb:	cc cc cc a2 cc cc cc 6c cc cc cc cc cc cc cc cc     .......l........
	...
    15e3:	00 00 00 c0 00 00 00 a8 00 00 00 22 00 00 00 88     ..........."....
	...
    15fb:	c8 cc cc cc cc cc cc cc ca cc aa cc a2 22 22 aa     ............."".
    160b:	aa aa 22 2a a9 89 98 a9 88 88 8c 08 c8 08 08 0e     .."*............
    161b:	cc cc cc cc cc cc cc cc cc ca ca 6c aa a2 22 aa     ...........l..".
    162b:	22 2a a2 a2 2c 88 82 82 c8 0c c8 88 88 08 88 89     "*..,...........
    163b:	cc cc cc cc cc cc cc cc ca cc cc 9c aa 22 aa 2a     .............".*
    164b:	aa aa 82 82 89 88 8a 8a 88 00 8c 88 80 08 88 c0     ................
    165b:	c8 8c 00 00 c8 c0 00 00 88 c8 00 00 c8 80 00 00     ................
    166b:	8c c0 00 00 88 c0 00 00 88 08 00 00 88 e8 00 00     ................
    167b:	8c 80 8c c8 0c 88 0c c8 88 c8 08 c8 08 c8 0c c8     ................
    168b:	08 88 0c c0 0c 80 08 98 8c 00 80 80 cc 00 00 80     ................
    169b:	08 c0 8c 80 0c 88 8c 80 80 c8 09 80 88 88 08 c8     ................
    16ab:	08 88 80 c8 80 c8 0c 88 80 89 88 80 80 c8 8c 00     ................
    16bb:	cc cc cc cc cc cc cc cc ca ca ca 6c aa a2 2a aa     ...........l..*.
    16cb:	a2 22 aa a2 a9 88 0a aa cc 80 0c c8 80 0c 0c 88     ."..............
    16db:	cc 08 08 c0 89 00 08 c8 08 c0 08 c8 08 c8 08 88     ................
    16eb:	0c 80 0c 88 8c 80 8c 80 0c 88 89 80 0b 80 0c e0     ................
    16fb:	cc cc cc cc cc cc cc cc ca cc cc cc aa 22 aa aa     ............."..
    170b:	aa 22 22 22 98 a8 a2 aa c8 8c c8 88 80 08 88 80     ."""............
    171b:	cc cc cc cc cc cc cc cc cc cc cc cc cc cc cc cc     ................
    172b:	a2 a2 cc cc 22 22 2a cc 2a 2a 22 2a 98 2d aa aa     ....""*.**"*.-..
	...
    1743:	02 00 00 00 aa 02 00 00 2a a2 02 00 22 22 a2 08     ........*...""..
    1753:	cc a2 22 aa cc cc 2c 2a 00 00 00 00 00 00 00 00     .."...,*........
	...
    1773:	02 00 00 00 a2 08 00 00 89 80 8c c8 8c 80 8c 8c     ................
    1783:	cc 80 8c 88 8c 80 c8 c8 8c 80 cc c0 88 80 8c c8     ................
    1793:	8c 80 8c 8c 88 80 88 cc cc 08 08 c0 89 00 08 c8     ................
    17a3:	08 c0 08 c8 08 c8 08 88 0c 80 0c 88 8c 80 8c 80     ................
    17b3:	0c 88 89 80 0b 80 0c e0 08 98 0c c0 08 00 80 c8     ................
    17c3:	0c 80 08 c8 08 c8 8c 88 88 c8 0c 88 80 8c 8c 80     ................
    17d3:	80 c9 8c 80 88 88 8c c0 00 80 8d 00 00 80 8d 00     ................
    17e3:	00 d0 5f 00 00 d0 5f 00 00 d0 5f 00 00 d0 5f 00     .._..._..._..._.
    17f3:	00 d0 5f 00 00 d0 5f 00 00 d0 5f 00 00 d0 5f 00     .._..._..._..._.
    1803:	00 d0 5f 00 00 d0 5f 00 00 d0 5f 00 00 d0 5f 00     .._..._..._..._.
    1813:	00 d0 5f 00 00 d0 5f 00 00 d0 5f 00 00 d0 5f 00     .._..._..._..._.
    1823:	00 d0 5f 00 00 d0 5f 00 00 d0 5f 00 00 d0 5f 00     .._..._..._..._.
    1833:	00 00 0d 00 00 00 00 00 00 d0 8f 00 00 d0 5f 00     .............._.
    1843:	00 d0 5f 00 00 d0 5f 00 00 d0 5f 00 00 d0 5f 00     .._..._..._..._.
    1853:	00 d0 5f 00 00 d0 5f 00 cc cc cc 2c cc cc cc 2c     .._..._....,...,
    1863:	cc cc cc cc cc cc cc cc cc cc cc cc cc cc cc cc     ................
    1873:	c6 cc cc cc 2a aa cc cc 22 aa 08 00 2a 22 aa 08     ....*..."...*"..
    1883:	cc aa 22 aa cc cc 22 22 cc cc 2c a2 cc cc cc cc     .."...""..,.....
    1893:	cc cc cc cc cc cc cc cc 00 00 00 00 00 00 00 00     ................
    18a3:	02 00 00 00 aa 02 00 00 2a a2 00 00 aa 22 2a 08     ........*...."*.
    18b3:	ac aa 22 aa cc cc aa 22 00 00 00 00 00 00 00 00     .."...."........
	...
    18d3:	08 00 00 00 aa 82 00 00 00 00 00 98 00 00 00 88     ................
    18e3:	00 00 00 88 00 00 00 cc 00 00 00 88 00 00 00 80     ................
    18f3:	00 00 00 80 00 00 00 00 cc 8c 00 00 c8 c0 00 00     ................
    1903:	88 c8 00 00 c8 80 00 00 8c 08 00 00 88 08 00 00     ................
    1913:	08 08 00 00 0c 08 00 00 cc 08 00 c0 89 00 08 c8     ................
    1923:	08 c0 08 c8 08 c8 08 88 0c 80 0c 88 8c 80 8c c0     ................
    1933:	08 80 89 00 00 00 08 00 08 98 0c c0 08 00 80 c8     ................
    1943:	0c 80 08 c8 08 c8 8c 88 88 c8 0c 88 80 8c 8c 80     ................
    1953:	80 c9 8c 80 00 80 08 00 08 c8 00 88 8c c0 0c 00     ................
    1963:	0c c0 8c 80 88 80 c8 80 88 80 89 80 0c 08 08 c8     ................
    1973:	8c 80 00 c8 08 00 00 80 80 00 08 c0 00 00 08 80     ................
    1983:	08 88 0c 80 0c 88 8c 00 8c 00 99 80 cc 00 80 88     ................
    1993:	cc 00 c0 c0 08 00 88 00 88 88 a8 a2 c0 80 c8 88     ................
    19a3:	08 88 98 0c 0c 88 cc 08 8c 80 cc 80 cc 08 c8 88     ................
    19b3:	8c 08 c0 80 cc 08 c0 80 a2 22 aa cc a9 22 22 c2     ........."..."".
    19c3:	cc 2a 22 a2 98 a8 aa 22 88 0c 98 a2 88 08 c8 9a     .*"...."........
    19d3:	cc 08 c8 9c cc 08 80 89 cc cc cc cc cc cc cc cc     ................
    19e3:	c2 cc cc cc a2 cc cc cc 22 2a aa cc 22 22 22 c2     ........"*..""".
    19f3:	a8 22 22 22 ac a8 aa 22 cc cc cc 22 cc cc cc ac     ."""..."..."....
    1a03:	cc cc cc cc cc cc cc cc cc cc cc cc cc cc cc cc     ................
    1a13:	ac cc cc cc aa ca cc cc 22 a2 aa aa 2a aa 22 a2     ........"...*.".
    1a23:	cc cc aa a2 cc 2c cc cc cc cc cc cc cc cc cc cc     .....,..........
    1a33:	cc cc cc cc cc cc cc cc 89 99 0c 88 8c 88 8c 88     ................
    1a43:	cc 80 8c 80 88 80 c8 88 88 80 cc 80 88 80 8c 08     ................
    1a53:	8c 80 8c 00 88 00 88 00 8c 00 00 00 08 00 00 00     ................
    1a63:	08 00 00 00 00 00 00 00 00 00 00 00 00 00 00 00     ................
	...
    1a7b:	aa aa 2a a2 2a a2 aa cc aa cc cc cc cc cc cc cc     ..*.*...........
    1a8b:	cc cc cc cc cc cc cc ac cc cc cc aa cc cc aa a2     ................
	...
    1aa3:	00 00 00 a8 00 00 a8 2a 00 20 2a aa 80 aa a2 cc     .......*. *.....
    1ab3:	a2 aa c8 cc aa cc cc cc 00 00 28 aa 28 aa 2a 22     ..........(.(.*"
    1ac3:	2a 2a 22 a2 2a ac cc cc cc cc cc cc cc cc cc cc     **".*...........
    1ad3:	cc cc cc cc cc cc cc cc 8c 88 a9 aa 08 80 cc 88     ................
    1ae3:	08 90 cc 88 0c 88 8c 88 8c 80 cc 90 c8 08 c8 88     ................
    1af3:	88 08 c0 80 cc 08 c0 80 2a 22 ca cc aa 22 22 cc     ........*"..."".
    1b03:	89 a8 2a ca cc 28 28 a2 c8 80 c8 2a 89 08 c8 a9     ..*..((....*....
    1b13:	cc 08 c8 88 cc 08 80 09 cc 08 08 c0 89 00 08 c8     ................
    1b23:	08 c0 08 c8 08 88 08 88 0c 80 0c 88 8c 80 8c c0     ................
    1b33:	08 88 89 00 00 00 08 00 cc cc cc cc cc cc cc ac     ................
    1b43:	ca ac aa aa aa 22 2a 2a 2a 2a aa c9 99 8a 9a 0c     ....."****......
    1b53:	c9 00 8c 0c 88 00 8c 08 cc aa a2 9a a2 a2 aa 8a     ................
    1b63:	a2 82 98 88 9a 88 80 08 88 88 88 80 88 08 c0 88     ................
    1b73:	c8 00 c0 80 c0 00 c0 80 cc cc cc cc cc cc cc cc     ................
    1b83:	cc cc cc cc cc cc aa a2 c6 a2 a2 2a 22 2a aa 88     ...........*"*..
    1b93:	aa aa c8 80 8a 98 88 80 cc cc cc cc cc cc cc cc     ................
    1ba3:	ca cc aa cc a2 22 22 aa 2a aa 22 2a 89 89 98 89     ....."".*."*....
    1bb3:	08 0c 8c 08 88 0c 80 08 0c c8 00 88 8c c0 0c 00     ................
    1bc3:	0c c0 8c 80 88 00 cc 80 88 80 89 80 0c 08 08 c8     ................
    1bd3:	8c 80 00 c8 08 00 00 80 80 00 08 c0 00 00 08 80     ................
    1be3:	08 88 0c 80 0c 88 8c 00 8c 00 99 80 cc 00 80 88     ................
    1bf3:	cc 00 c0 c0 08 00 88 00 08 98 0c e0 08 00 80 c8     ................
    1c03:	0c 80 08 c8 08 c8 8c 88 88 c8 0c 88 80 8c 8c 80     ................
    1c13:	80 c9 8c 80 00 80 08 00 08 c8 00 88 8c c0 0c 00     ................
    1c23:	0c c0 8c 80 88 80 c8 80 88 80 89 80 0c 08 08 c8     ................
    1c33:	8c 80 00 c8 08 80 08 80 00 00 00 00 00 00 00 00     ................
	...
    1c53:	00 00 00 20 00 00 80 aa 00 00 00 00 00 00 00 00     ... ............
    1c63:	00 00 00 20 00 00 80 2a 00 20 aa a2 20 a2 22 c2     ... ...*. .. .".
    1c73:	2a a2 ca cc 22 c2 c8 cc 00 20 aa a2 20 2a a2 ca     *...".... .. *..
    1c83:	2a 2a 8c cc a2 cc cc cc ca cc cc cc cc cc cc ac     **..............
    1c93:	cc cc aa aa cc ac 22 a2 00 00 00 98 00 00 00 c8     ......".........
    1ca3:	00 00 00 c8 00 00 00 c0 00 00 00 90 00 00 00 88     ................
    1cb3:	00 00 00 c0 00 00 00 80 ca cc cc 8c c6 cc cc 2c     ...............,
    1cc3:	cc cc 2c a2 cc cc 2a 22 cc aa a2 a2 aa 22 98 ca     ..,...*"....."..
    1cd3:	a2 9a 89 c8 8a 88 8c 90 2c 2a a2 aa 2a a2 aa c8     ........,*..*...
    1ce3:	a8 88 ca 80 a2 08 c8 80 c8 88 c8 80 88 08 c8 80     ................
    1cf3:	c8 08 c0 80 cc 08 c0 80 88 aa aa aa 8c a8 22 a2     ..............".
    1d03:	88 c8 aa a2 88 2c cc 6c 8c cc cc cc cc cc cc cc     .....,.l........
    1d13:	c8 cc cc cc cc cc cc cc 8a 80 08 80 88 00 08 80     ................
    1d23:	08 88 09 80 0c 88 8c 80 8c 80 cc 80 cc 08 c8 88     ................
    1d33:	8c 08 c0 80 cc 08 c0 80 89 99 8c 8a 8c 88 8c 68     ...............h
    1d43:	cc 80 8c a0 8c 80 c8 a8 8c 80 cc 28 8c 80 c8 88     ...........(....
    1d53:	8c 80 cc 00 88 80 88 08 cc cc cc cc cc cc cc cc     ................
    1d63:	ca cc aa cc a2 22 22 aa 8a 2a a2 2a a8 a8 98 a8     .....""..*.*....
    1d73:	8c 08 cc 08 98 08 88 08 cc cc cc c8 cc cc cc c0     ................
    1d83:	ca ca 8a 89 a2 a2 aa 88 22 22 aa 88 aa 98 8a 88     ........""......
    1d93:	88 90 8c 80 0e 88 0c 70 ff ff ff ff 77 77 77 f7     .......p....www.
    1da3:	78 77 8f f7 88 88 f0 f0 88 88 f0 78 78 78 8f f7     xw.........xxx..
    1db3:	f7 ff f7 f7 77 77 77 f7 cc ce cc ce ce ee 4e ce     ....www.......N.
    1dc3:	ce ce ee ce 44 cc ec c4 4c ee ce c4 4c 4c 4e ce     ....D...L...LLN.
    1dd3:	ee ee ee ee ce ee ec ce ff ff ff ff 87 00 00 f8     ................
    1de3:	87 00 00 f8 77 fc cf fb c7 fc cf fc b7 fc dc fb     ....w...........
    1df3:	f7 00 78 ff 77 77 77 77 00 00 07 00 00 30 0f 00     ..x.wwww.....0..
    1e03:	00 80 73 00 00 89 b0 08 00 89 f8 0f 00 98 00 0f     ..s.............
    1e13:	00 89 80 0f 00 90 bb 00 00 00 07 00 00 30 0f 00     .............0..
    1e23:	00 88 07 00 00 89 f8 00 90 08 ff 08 90 09 30 07     ..............0.
    1e33:	80 88 f0 08 00 99 8b 00 00 00 07 00 00 30 0f 00     .............0..
    1e43:	00 30 73 00 00 89 b0 08 00 89 f8 0f 00 98 00 0f     .0s.............
    1e53:	00 89 80 0f 00 90 b3 00 00 00 07 00 00 30 0f 00     .............0..
    1e63:	00 b0 f0 00 00 30 08 0f 00 89 f0 8f 00 99 00 73     .....0.........s
    1e73:	00 90 08 8b 00 80 b3 08 8c 80 8c c8 0c 88 0c c8     ................
    1e83:	88 c8 08 c8 08 c8 0c c8 08 88 0c c0 0c 80 08 98     ................
    1e93:	8c 00 80 80 cc 00 00 80 08 c0 8c 80 0c 88 8c 80     ................
    1ea3:	80 c8 09 80 88 88 08 c8 08 88 80 c8 80 c8 0c 88     ................
    1eb3:	80 89 88 80 80 c8 8c 00 0c c0 0c c8 09 c8 0c 98     ................
    1ec3:	0c 80 0c 80 8c 00 8c 80 cc 08 cc 80 98 80 8c 80     ................
    1ed3:	98 00 08 88 08 88 00 0c 8c 00 c8 c0 c8 00 c8 88     ................
    1ee3:	88 80 c8 80 08 80 8c 80 cc 00 c8 88 8c 08 c0 0c     ................
    1ef3:	c8 08 80 0c c8 08 80 09 cc 08 08 c0 89 00 08 c8     ................
    1f03:	08 c0 08 c8 08 c8 08 88 0c 80 0c 88 8c 80 8c 80     ................
    1f13:	0c 88 89 80 0b 80 0c c0 08 98 0c c0 08 00 80 c8     ................
    1f23:	0c 80 08 c8 08 c8 8c 88 88 c8 0c 88 80 8c 8c 80     ................
    1f33:	80 c9 8c 80 88 88 8c c0 08 c8 00 88 8c c0 0c 00     ................
    1f43:	0c c0 8c 80 88 80 c8 80 88 80 89 80 0c 08 08 c8     ................
    1f53:	8c 80 00 c8 0c 80 0c 88 80 00 08 80 00 00 08 80     ................
    1f63:	08 88 0c 80 0c 88 8c 00 8c 00 99 80 cc 00 80 88     ................
    1f73:	cc 00 c0 80 89 00 c8 c0 00 00 80 00 00 00 f0 0f     ................
    1f83:	00 00 4c 8f 00 c0 cf 00 00 fc 0c 00 f0 c4 00 00     ..L.............
    1f93:	80 0f 00 00 00 00 00 00 00 00 00 00 00 c8 cc 00     ................
    1fa3:	80 4c fc 0c c0 44 c4 84 c0 44 44 8c 40 44 44 0c     .L...D...DD.@DD.
    1fb3:	00 cc cc 04 00 80 08 00 00 00 00 00 00 fb ff 00     ................
    1fc3:	80 cf fe 0f c0 0c e0 fc c0 0f 80 cc c0 ff f7 0e     ................
    1fd3:	00 ee fc 0c 00 80 08 00 00 79 09 00 80 ff 7f 00     .........y......
    1fe3:	00 ff 8f 00 00 f9 0f 00 00 c8 0c 00 00 c8 08 00     ................
    1ff3:	00 c0 00 00 00 80 00 00 00 00 00 00 00 00 00 00     ................
    2003:	00 0f 90 07 80 b2 ab 0f 20 aa 80 08 a8 0a 00 00     ........ .......
    2013:	80 08 00 00 00 00 00 00 00 00 00 00 00 00 00 cc     ................
    2023:	00 00 88 88 80 ee ee ee 80 fe 87 88 00 e0 c8 ee     ................
    2033:	00 fc cc ee 00 78 8a 88 00 00 00 00 00 00 88 00     .....x..........
    2043:	ee ee ce 08 ee ff 8e 00 e0 88 ce 08 cc cc cf 0c     ................
    2053:	f8 9f 8e 00 88 88 ee 0c cc 88 cc ee cc e8 ee ee     ................
    2063:	cc 90 ef 88 aa 8a a8 8a 22 a2 2a 8a 2c 28 89 22     ........".*.,(."
    2073:	cc c8 cc 28 8c 09 8c 89 cc cf e8 88 cc 99 89 c8     ...(............
    2083:	88 40 88 6c c8 2c aa aa c8 8c 2a a2 88 a8 8a 82     .@.l.,....*.....
    2093:	c9 ca cc c8 88 09 8c c9 00 00 00 00 00 00 00 00     ................
	...
    20c3:	00 00 00 80 00 00 80 f7 00 00 70 77 00 00 88 f8     ..........pw....
    20d3:	00 00 88 88 00 80 88 88 00 00 00 00 00 00 00 00     ................
    20e3:	09 00 00 00 ff 00 00 00 77 8f 00 00 77 77 00 00     ........w...ww..
    20f3:	77 f7 08 00 7f f7 08 00 cc 98 88 78 cc 98 88 88     w..........x....
    2103:	cc 82 89 88 aa 2a 88 88 22 2a a2 aa 2c 98 82 82     .....*.."*..,...
    2113:	cc c8 cc c8 8c 09 8c c9 77 77 8f cc 77 77 8f cc     ........ww..ww..
    2123:	f7 ff 8f 6c 88 88 a8 aa a2 2a a2 a2 2c 98 82 82     ...l.....*..,...
    2133:	cc c8 cc c8 8c 09 8c c9 22 aa 84 22 44 08 4c 48     ........".."D.LH
    2143:	88 c8 84 04 44 cc c8 44 cc cc c4 e4 ee 4e 4c e4     ....D..D.....NL.
    2153:	ee 4f e4 ee ee ee e4 ee aa 84 88 2a 88 48 4c 40     .O.........*.HL@
    2163:	8c c0 84 cc 48 4c 04 cc 8c c4 4e e4 4c e4 ee ee     ....HL....N.L...
    2173:	ce cc 4e ee ee ff 4e ef 2a a0 88 2a 88 0c 8c 42     ..N...N.*..*...B
    2183:	88 c4 84 48 c4 44 4c c8 cc 4c 4c 4c cf 44 ee cf     ...H.DL..LLL.D..
    2193:	ce ec 4e ee ee ee fe ee 82 8a a2 a2 48 c8 80 84     ..N.........H...
    21a3:	04 8c 48 8c 88 c4 c4 48 44 4e e4 44 c4 ce ec 4c     ..H....HDN.D...L
    21b3:	fc e4 4c 4e ee fc ee 4f 2a 2a a0 28 40 08 8c a4     ..LN...O**.(@...
    21c3:	c4 84 c8 a8 4c c4 4c c8 e4 4e c4 8e ce ce ec 84     ....L.L..N......
    21d3:	ee cc 4e 8c ff ee ef 8c 4f ff ef fc 44 4c cc 44     ..N.....O...DL.D
    21e3:	c8 88 88 8c aa aa aa aa 22 2a a2 a2 2c 98 82 82     ........"*..,...
    21f3:	cc c8 cc c8 8c 09 8c c9 ef e4 fc cc 44 cc c8 c4     ............D...
    2203:	88 88 8a 8c aa aa a2 aa 22 2a a2 a2 2c 98 82 82     ........"*..,...
    2213:	cc c8 cc c8 8c 09 8c c9 ff ce ff f4 44 0c cc 84     ............D...
    2223:	88 c8 88 8c aa aa aa aa 22 2a a2 a2 2c 98 82 82     ........"*..,...
    2233:	cc c8 cc c8 8c 09 8c c9 ef ee ef 4c cc 88 cc c4     ...........L....
    2243:	88 4a 88 8c aa a2 aa aa 22 2a a2 a2 2c 98 82 82     .J......"*..,...
    2253:	cc c8 cc c8 8c 09 8c c9 ce ff 4e c4 44 4c cc c8     ..........N.DL..
    2263:	88 88 88 cc aa aa aa aa 22 2a a2 a2 2c 98 82 82     ........"*..,...
    2273:	cc c8 cc c8 8c 09 8c c9 2a aa 88 a2 c2 08 4c 88     ........*.....L.
    2283:	88 c8 84 84 48 cc c8 44 c8 cc c4 4c 48 4e 4c cc     ....H..D...LHNL.
    2293:	48 4f e4 fc 48 ee e4 ff c8 e4 ef e4 8c c4 4c 4c     HO..H.........LL
    22a3:	8c 82 88 88 aa a2 aa aa 22 2a a2 a2 2c 98 82 82     ........"*..,...
    22b3:	cc c8 cc c8 8c 09 8c c9 00 00 00 00 00 00 00 00     ................
    22c3:	70 77 77 07 77 88 78 87 77 08 70 87 77 08 77 87     pww.w.x.w.p.w.w.
    22d3:	70 77 70 87 00 88 78 87 00 00 00 00 00 00 00 00     pwp...x.........
    22e3:	70 07 77 07 70 77 80 88 70 87 08 00 70 87 00 00     p.w.pw..p...p...
    22f3:	70 87 00 00 00 88 00 00 00 00 00 00 00 00 00 00     p...............
    2303:	70 77 77 00 77 88 88 08 70 77 77 00 00 88 78 07     pww.w...pww...x.
    2313:	77 77 77 88 80 88 88 08 00 77 00 00 00 77 08 00     www......w...w..
    2323:	70 77 77 00 00 77 88 08 00 77 08 00 00 77 08 00     pww..w...w...w..
    2333:	00 70 77 00 00 00 88 08 00 00 00 00 00 00 00 00     .pw.............
    2343:	77 00 70 07 77 08 70 87 77 08 70 87 77 08 70 87     w.p.w.p.w.p.w.p.
    2353:	70 77 77 87 00 88 88 88 00 00 00 00 00 00 00 00     pww.............
    2363:	77 00 70 07 77 08 70 87 77 08 70 87 70 07 77 88     w.p.w.p.w.p.p.w.
    2373:	00 77 87 08 00 80 88 00 00 00 00 00 00 00 00 00     .w..............
    2383:	77 00 70 07 77 08 70 87 77 78 70 87 77 77 77 87     w.p.w.p.wxp.www.
    2393:	70 87 77 88 00 88 80 08 00 00 00 00 00 00 00 00     p.w.............
    23a3:	77 00 70 07 70 07 77 88 00 77 87 08 70 87 77 00     w.p.p.w..w..p.w.
    23b3:	77 88 70 07 80 08 00 88 00 00 00 00 00 00 00 00     w.p.............
    23c3:	77 00 70 07 77 08 70 87 77 08 77 87 70 77 70 87     w.p.w.p.w.w.pwp.
    23d3:	00 88 78 87 70 77 77 88 00 00 00 00 00 00 00 00     ..x.pww.........
    23e3:	77 77 77 00 80 78 87 08 00 77 88 00 70 87 08 00     www..x...w..p...
    23f3:	77 77 77 00 80 88 88 08 00 70 77 00 00 77 88 08     www......pw..w..
    2403:	00 77 08 00 77 87 08 00 80 77 00 00 00 77 08 00     .w..w....w...w..
    2413:	00 70 77 00 00 00 88 08 00 70 07 00 00 70 87 00     .pw......p...p..
    2423:	00 70 87 00 00 00 88 00 00 70 07 00 00 70 87 00     .p.......p...p..
    2433:	00 70 87 00 00 00 88 00 77 07 00 00 80 77 00 00     .p......w....w..
    2443:	00 77 08 00 00 70 77 00 00 77 88 08 00 77 08 00     .w...pw..w...w..
    2453:	77 87 08 00 80 88 00 00 70 77 70 07 77 78 77 88     w.......pwp.wxw.
    2463:	80 08 88 08 00 00 00 00 00 00 00 00 00 00 00 00     ................
	...
    247f:	00 70 00 00 00 77 07 00 70 87 77 00 77 88 70 07     .p...w..p.w.w.p.
    248f:	77 08 70 87 77 77 77 87 80 88 88 88 00 00 00 00     w.p.www.........
	...
    24bb:	66 67 66 66 66 66 66 67 66 77 76 66 76 66 66 66     fgfffffgfwvfvfff
    24cb:	66 76 76 76 67 76 66 67 66 67 76 67 66 66 76 66     fvvvgvfgfgvgffvf
    24db:	99 99 99 99 99 11 99 99 99 99 99 99 19 91 19 91     ................
    24eb:	99 99 99 99 99 19 91 99 99 99 99 11 19 91 99 99     ................
    24fb:	70 77 77 00 00 87 77 00 00 77 77 00 00 78 77 00     pww...w..ww..xw.
    250b:	00 77 78 00 00 77 77 00 00 87 77 00 00 77 77 07     .wx..ww...w..ww.
    251b:	00 44 44 44 44 f4 44 44 44 44 44 f4 44 4f f4 44     .DDDD.DDDDD.DO.D
    252b:	44 44 44 44 44 44 44 44 70 87 77 00 70 78 78 00     DDDDDDDDp.w.pxx.
    253b:	04 00 00 00 44 44 00 00 44 f4 44 00 4f 44 44 04     ....DD..D.D.ODD.
    254b:	44 f4 44 04 44 00 00 00 00 00 00 00 00 00 00 00     D.D.D...........
    255b:	00 00 00 00 00 00 00 40 00 00 44 4f 00 44 44 44     .......@..DO.DDD
    256b:	00 44 4f f4 40 44 44 44 40 44 04 00 00 00 00 00     .DO.@DDD@D......
	...
    2593:	00 00 02 02 20 00 02 02 00 00 00 00 00 00 00 20     .... .......... 
    25a3:	00 00 00 22 00 00 00 22 00 00 20 22 00 00 20 02     ..."...".. ".. .
    25b3:	00 20 20 02 20 20 20 02 20 20 80 08 22 00 88 08     .  .   .  .."...
    25c3:	88 88 68 08 67 76 66 08 76 66 88 00 88 88 08 00     ..h.gvf.vf......
	...
    25db:	00 00 00 02 00 20 00 02 00 20 20 00 00 02 20 00     ..... ...  ... .
    25eb:	00 02 80 88 00 88 88 66 80 66 76 67 68 67 76 76     .......f.fvghgvv
    25fb:	68 76 66 88 76 66 88 00 66 86 00 00 67 08 00 00     hvf.vf..f...g...
    260b:	86 08 00 00 86 00 00 00 08 00 00 00 08 00 00 00     ................
    261b:	00 02 20 02 20 02 20 00 22 00 88 88 88 88 76 66     .. . . .".....vf
    262b:	67 66 66 67 66 67 88 88 88 88 00 00 00 00 00 00     gffgfg..........
    263b:	00 6c c6 00 c0 6c c6 0c cc 6c c6 cc cc cc cc cc     .l...l...l......
    264b:	cc cc cc cc cc cc cc cc c0 cc cc 0c 00 cc cc 00     ................
	...
    2673:	20 20 00 00 20 20 00 02 00 68 86 00 00 78 86 00       ..  ...h...x..
    2683:	00 68 86 00 00 68 86 00 00 68 87 00 00 68 86 00     .h...h...h...h..
    2693:	00 78 86 00 00 68 86 00 00 68 86 00 00 78 86 00     .x...h...h...x..
    26a3:	00 68 86 00 08 68 86 80 86 68 86 68 76 68 86 67     .h...h...h.hvh.g
    26b3:	66 76 66 66 68 66 76 86 20 00 00 22 20 02 00 02     fvffhfv. .." ...
    26c3:	00 02 00 02 28 02 00 82 86 00 00 68 67 08 80 67     ....(......hg..g
    26d3:	66 86 68 66 68 67 76 86 00 00 00 80 00 00 88 68     f.hfhgv........h
    26e3:	00 88 76 66 88 66 66 66 88 66 67 67 00 88 66 66     ..vf.fff.fgg..ff
    26f3:	00 00 88 68 00 00 00 80 08 00 00 00 86 88 00 00     ...h............
    2703:	66 67 88 00 66 66 66 88 76 76 66 88 66 66 88 00     fg..fff.vvf.ff..
    2713:	86 88 00 00 08 00 00 00 08 00 00 00 08 00 00 00     ................
    2723:	88 00 00 00 08 00 00 00 88 00 00 00 88 00 00 00     ................
    2733:	88 00 00 00 08 00 00 00 00 00 00 80 00 00 00 80     ................
    2743:	00 00 00 88 00 00 00 80 00 00 00 88 00 00 00 88     ................
    2753:	00 00 00 88 00 00 00 80 88 88 88 88 66 66 66 76     ............fffv
    2763:	66 66 66 66 66 ff f6 66 f6 6f f6 6f 66 66 66 66     fffff..f.o.offff
    2773:	66 66 66 67 88 88 88 88 77 77 77 77 44 74 44 44     fffg....wwwwDtDD
    2783:	44 74 44 44 44 74 44 44 77 77 77 77 44 44 44 74     DtDDDtDDwwwwDDDt
    2793:	44 44 44 74 44 44 44 74 20 00 02 00 20 00 02 00     DDDtDDDt ... ...
    27a3:	20 00 20 00 88 88 88 88 66 66 76 66 67 76 66 66      . .....ffvfgvff
    27b3:	66 76 88 88 88 88 00 00 77 87 7f 77 77 87 7f 77     fv......w..ww..w
    27c3:	77 87 7f 77 88 88 88 88 ff 8f ff ff 77 87 7f 77     w..w........w..w
    27d3:	77 87 7f 77 77 87 7f 77 80 66 66 08 80 76 66 08     w..ww..w.ff..vf.
    27e3:	80 66 66 08 80 66 66 08 80 66 76 08 80 76 66 08     .ff..ff..fv..vf.
    27f3:	80 66 66 08 80 66 67 08 00 00 00 00 02 00 00 00     .ff..fg.........
    2803:	22 00 00 00 22 00 00 00 22 02 00 00 20 02 00 00     "..."..."... ...
    2813:	20 02 02 00 20 02 02 02 80 08 02 02 80 88 00 22      ... .........."
    2823:	80 86 88 88 80 66 67 76 00 88 66 67 00 80 88 88     .....fgv..fg....
	...
    283b:	68 67 76 87 66 66 66 66 66 66 66 66 76 66 67 66     hgv.ffffffffvfgf
    284b:	67 76 66 76 67 66 66 66 66 66 66 67 66 67 66 66     gvfvgffffffgfgff
    285b:	00 20 00 02 00 20 00 02 00 02 00 02 88 88 88 88     . ... ..........
    286b:	66 67 66 66 66 66 67 76 88 88 67 66 00 00 88 88     fgffffgv..gf....
    287b:	20 00 00 00 20 00 02 00 00 02 02 00 00 02 20 00      ... ......... .
    288b:	88 08 20 00 66 88 88 00 76 67 66 08 67 67 76 86     .. .f...vgf.ggv.
    289b:	88 66 76 86 00 88 67 66 00 00 68 67 00 00 80 76     .fv...gf..hg...v
    28ab:	00 00 80 68 00 00 00 68 00 00 00 80 00 00 00 80     ...h...h........
    28bb:	20 02 20 00 00 02 20 02 88 88 00 22 66 67 88 88      . ... ...."fg..
    28cb:	76 66 66 76 88 88 76 66 00 00 88 88 00 00 00 00     vffv..vf........
    28db:	ee ee ee ee 00 00 00 00 00 00 00 00 00 00 00 00     ................
	...
    28fb:	0e 00 00 00 e0 00 00 00 00 0e 00 00 00 e0 00 00     ................
    290b:	00 00 0e 00 00 00 e0 00 00 00 00 0e 00 00 00 e0     ................
    291b:	00 00 00 e0 00 00 00 0e 00 00 e0 00 00 00 0e 00     ................
    292b:	00 e0 00 00 00 0e 00 00 e0 00 00 00 0e 00 00 00     ................
    293b:	ee ee ee ee ee ee ee ee e0 ee ee ee e0 ee ec ee     ................
    294b:	00 ee ce ee 00 e0 ee cc 00 00 ee ee 00 00 00 ee     ................
    295b:	ee ee ee ee ee ee ee ee ee ee ee 0e ee ce ee 0e     ................
    296b:	ee ec ee 00 cc ee 0e 00 ee ee 00 00 ee 00 00 00     ................
    297b:	00 00 00 ee 00 00 ee ee 00 e0 ee ee 00 ee ee ee     ................
    298b:	e0 ee ee ee e0 ee ce ee ee ee ee ee ee ee ee ee     ................
    299b:	ee 00 00 00 ee ee 00 00 ee ee 0e 00 ee ee ee 00     ................
    29ab:	ee ee ee 0e ee ec ee 0e ee ee ee ee ee ee ee ee     ................
    29bb:	66 67 66 66 66 66 66 67 66 77 76 66 76 66 66 66     fgfffffgfwvfvfff
    29cb:	66 76 76 76 67 76 66 67 66 67 76 67 66 66 76 66     fvvvgvfgfgvgffvf
    29db:	7c 77 77 77 c8 44 47 44 68 4c 47 44 86 c8 47 44     |www.DGDhLGD..GD
    29eb:	88 68 7c 77 88 86 c8 44 68 88 68 4c 86 88 86 c8     .h|w...Dh.hL....
    29fb:	88 c8 88 88 88 c8 88 87 88 c8 88 88 88 c8 88 88     ................
    2a0b:	88 c8 88 88 88 c8 88 88 88 c8 88 88 88 c8 88 88     ................
    2a1b:	0c 00 00 00 c0 00 00 00 00 0c 00 00 00 c0 00 00     ................
    2a2b:	00 00 0c 00 00 00 00 00 00 00 00 00 00 00 00 00     ................
    2a3b:	00 00 00 c0 00 00 00 0c 00 00 c0 00 00 00 0c 00     ................
    2a4b:	00 c0 00 00 00 00 00 00 00 00 00 00 00 00 00 00     ................
    2a5b:	86 88 86 88 68 88 68 88 88 86 88 86 88 68 88 68     ....h.h......h.h
    2a6b:	86 88 86 88 68 88 68 88 88 86 88 86 88 68 88 68     ....h.h......h.h
    2a7b:	00 00 00 c0 00 00 00 8c 00 00 c0 86 00 00 8c 68     ...............h
    2a8b:	00 c0 86 88 00 8c 68 88 c0 86 88 86 8c 68 88 68     ......h......h.h
    2a9b:	88 68 88 68 88 86 88 86 68 88 68 88 86 88 86 88     .h.h....h.h.....
    2aab:	88 68 88 68 88 86 88 86 68 88 68 88 86 88 86 88     .h.h....h.h.....
    2abb:	0c 00 00 00 c8 00 00 00 68 0c 00 00 86 c8 00 00     ........h.......
    2acb:	88 68 0c 00 88 86 c8 00 68 88 68 0c 86 88 86 c8     .h......h.h.....
    2adb:	bb bb bb bb 00 bb bb bb 00 00 bb bb 00 00 b0 bb     ................
    2aeb:	00 00 00 bb 00 00 00 bb 00 00 00 b0 00 00 00 b0     ................
    2afb:	bb bb bb bb bb bb bb 00 bb bb 00 00 bb 0b 00 00     ................
    2b0b:	bb 00 00 00 bb 00 00 00 0b 00 00 00 0b 00 00 00     ................
    2b1b:	0b 00 00 00 0b 00 00 00 bb 00 00 00 bb 00 00 00     ................
    2b2b:	bb 0b 00 00 bb bb 00 00 bb bb bb 00 bb bb bb bb     ................
    2b3b:	00 00 00 b0 00 00 00 b0 00 00 00 bb 00 00 00 bb     ................
    2b4b:	00 00 b0 bb 00 00 bb bb 00 bb bb bb bb bb bb bb     ................
    2b5b:	bb bb bb bb bb bb bb bb bb bb bb bb bb bb bb bb     ................
    2b6b:	bb bb bb bb bb bb bb bb bb bb bb bb bb bb bb bb     ................
    2b7b:	bb bb bb 0b bb bb bb 00 bb bb bb 00 bb bb bb 00     ................
    2b8b:	bb bb 0b 00 bb bb 0b 00 bb bb bb 00 bb bb bb 0b     ................
    2b9b:	b0 bb bb bb 00 bb bb bb 00 bb bb bb 00 bb bb bb     ................
    2bab:	00 b0 bb bb 00 b0 bb bb 00 bb bb bb b0 bb bb bb     ................
    2bbb:	bb bb bb bb bb bb bb 0b bb bb bb 0b bb bb bb 00     ................
    2bcb:	bb bb bb 00 bb bb 0b 00 bb 0b 00 00 00 00 00 00     ................
    2bdb:	00 00 00 00 bb 0b 00 00 bb bb 0b 00 bb bb bb 00     ................
    2beb:	bb bb bb 00 bb bb bb 0b bb bb bb 0b bb bb bb bb     ................
	...
    2c07:	00 00 00 bb 00 00 b0 bb 00 bb bb bb bb bb bb bb     ................
    2c17:	bb bb bb bb 00 00 00 00 00 00 00 00 00 00 00 00     ................
    2c27:	bb 00 00 00 bb 0b 00 00 bb bb 0b 00 bb bb bb bb     ................
    2c37:	bb bb bb bb 00 00 00 00 00 00 b0 bb 00 b0 bb bb     ................
    2c47:	00 bb bb bb 00 bb bb bb b0 bb bb bb b0 bb bb bb     ................
    2c57:	bb bb bb bb bb bb bb bb b0 bb bb bb b0 bb bb bb     ................
    2c67:	00 bb bb bb 00 bb bb bb 00 b0 bb bb 00 00 b0 bb     ................
    2c77:	00 00 00 00 bb bb bb bb bb bb bb bb bb bb bb bb     ................
    2c87:	00 bb bb bb 00 00 b0 bb 00 00 00 b0 00 00 00 00     ................
    2c97:	00 00 00 00 bb bb bb bb bb bb bb bb bb bb bb bb     ................
    2ca7:	bb bb bb 0b bb bb bb 0b 0b b0 00 00 00 00 00 00     ................
    2cb7:	00 00 00 00 00 07 70 00 00 70 07 00 00 07 70 00     ......p..p....p.
    2cc7:	00 70 07 00 00 07 70 00 00 70 07 00 00 07 70 00     .p....p..p....p.
    2cd7:	00 70 07 00 00 20 00 00 00 20 02 00 00 a2 2a 00     .p... ... ....*.
    2ce7:	00 a2 2a 00 20 aa 2a 00 22 aa 2a 00 a2 aa 2a 00     ..*. .*.".*...*.
    2cf7:	a2 aa 02 00 aa 2a 00 00 aa 2a 00 00 aa 02 00 00     .....*...*......
    2d07:	2a 00 00 00 02 00 00 00 00 00 00 00 00 00 00 00     *...............
    2d17:	00 00 00 00 22 02 00 00 20 22 02 00 00 a2 2a 00     ...."... "....*.
    2d27:	00 a2 2a 00 00 22 aa 02 00 20 aa 02 00 20 aa 2a     ..*.."... ... .*
    2d37:	00 00 a2 2a 00 00 a2 aa 00 00 a2 aa 00 00 20 aa     ...*.......... .
    2d47:	00 00 00 a2 00 00 00 20 00 00 00 00 00 00 00 00     ....... ........
    2d57:	00 00 00 00 00 20 02 00 00 22 00 00 00 a2 22 00     ..... ..."....".
    2d67:	20 a2 2a 00 20 aa aa 02 20 aa aa 02 22 aa aa 02      .*. ... ..."...
    2d77:	22 a2 aa 2a 2a a2 aa a2 aa a2 2a aa aa 2a a2 aa     "..**.....*..*..
    2d87:	aa aa a2 2a a2 2a a2 2a 22 aa 22 22 20 a2 2a 02     ...*.*.*"."" .*.
    2d97:	00 22 22 00 00 00 ec fe 00 00 c0 fe 00 00 c0 fe     ."".............
    2da7:	00 00 c0 ee 00 00 00 ec 00 00 00 cc 00 00 00 c0     ................
    2db7:	00 00 00 c0 ef ce 00 00 ef 0c 00 00 ef 0c 00 00     ................
    2dc7:	ee 0c 00 00 ce 00 00 00 cc 00 00 00 0c 00 00 00     ................
    2dd7:	0c 00 00 00 88 07 00 00 88 07 00 00 8c 07 00 00     ................
    2de7:	cc 00 00 00 ee 0c 00 00 ee ce 00 00 ef ce 00 00     ................
    2df7:	ef ce 00 00 00 00 70 88 00 00 70 88 00 00 70 c8     ......p...p...p.
    2e07:	00 00 00 cc 00 00 c0 ee 00 00 ec ee 00 00 ec fe     ................
    2e17:	00 00 ec fe 88 00 00 00 77 08 00 00 77 08 00 00     ........w...w...
    2e27:	77 87 00 00 87 87 00 00 77 87 00 00 78 08 00 00     w.......w...x...
    2e37:	88 00 00 00 00 00 00 88 00 00 88 78 00 00 88 77     ...........x...w
    2e47:	00 88 77 77 00 88 78 78 00 78 77 77 00 80 78 87     ..ww..xx.xww..x.
    2e57:	00 80 88 78 77 77 77 78 7f 77 78 78 77 77 77 88     ...xwwwx.wxxwww.
    2e67:	77 77 77 77 77 77 77 77 77 78 77 77 77 78 87 78     wwwwwwwwwxwwwx.x
    2e77:	77 78 77 77 00 00 00 00 00 00 00 00 00 00 00 00     wxww............
	...
    2e8f:	00 80 88 00 80 78 87 08 78 77 77 87 aa 06 06 06     .....x..xww.....
    2e9f:	aa 00 00 00 0a 00 00 00 0a 00 00 00 0a 00 00 00     ................
	...
    2ebb:	0a 00 00 00 aa 00 00 00 aa 00 00 00 a6 00 00 00     ................
    2ecb:	a6 00 00 00 aa 00 00 00 0a 00 00 00 0a 00 00 00     ................
    2edb:	00 00 00 a0 00 00 00 aa 00 00 00 aa 00 00 00 6a     ...............j
    2eeb:	00 00 00 6a 00 00 00 aa 00 00 00 a0 00 00 00 a0     ...j............
    2efb:	06 06 06 aa 00 00 00 aa 00 00 00 a0 00 00 00 a0     ................
    2f0b:	00 00 00 a0 00 00 00 00 00 00 00 00 00 00 00 00     ................
    2f1b:	00 00 aa aa 00 aa aa aa a0 aa aa a6 a0 aa a6 6a     ...............j
    2f2b:	aa 6a 6a 6a aa aa a6 a6 aa 6a a6 66 aa 66 66 66     .jjj.....j.f.fff
    2f3b:	aa aa aa aa aa aa aa aa aa a6 a6 aa 66 aa 6a aa     ............f.j.
    2f4b:	aa 66 a6 66 66 aa a6 6a a6 76 76 68 66 68 66 76     .f.ff..j.vvhfhfv
    2f5b:	aa aa aa aa aa aa aa aa a6 6a 6a 6a aa aa 6a aa     .........jjj..j.
    2f6b:	a6 66 6a 76 76 86 67 6a 66 77 76 66 66 66 67 78     .fjvv.gjfwvfffgx
    2f7b:	66 66 66 66 66 66 68 76 78 68 86 66 66 78 66 67     ffffffhvxh.ffxfg
    2f8b:	66 67 86 66 66 66 66 66 86 86 66 67 66 66 87 66     fg.fffff..fgff.f
    2f9b:	66 66 66 66 67 68 67 68 76 76 66 66 66 66 68 77     ffffghghvvffffhw
    2fab:	66 68 86 66 78 67 77 66 66 86 66 68 86 66 76 67     fh.fxgwff.fh.fvg
    2fbb:	aa aa 00 00 aa aa aa 00 6a aa aa 0a a6 6a aa 0a     ........j....j..
    2fcb:	a6 a6 a6 aa 6a 6a aa aa 66 6a a6 aa 66 66 66 aa     ....jj..fj..fff.
    2fdb:	00 00 00 80 00 00 00 88 00 00 00 68 00 00 80 68     ...........h...h
    2feb:	00 00 88 76 00 80 78 66 80 88 67 66 88 66 66 67     ...v..xf..gf.ffg
    2ffb:	08 00 00 00 88 00 00 00 86 00 00 00 86 08 00 00     ................
    300b:	67 88 00 00 66 87 08 00 66 76 88 08 76 66 66 88     g...f...fv..vff.
    301b:	68 67 66 86 68 76 66 87 68 66 76 86 68 67 76 86     hgf.hvf.hfv.hgv.
    302b:	68 76 76 86 68 66 66 86 68 76 76 86 78 66 67 86     hvv.hff.hvv.xfg.
    303b:	11 01 00 00 b0 19 01 00 00 9b 11 00 00 9b 19 01     ................
    304b:	b1 99 99 11 99 19 91 99 99 99 99 11 19 91 99 99     ................
    305b:	cc cc cc cc cc cc cc cc 38 33 37 33 73 83 33 38     ........8373s.38
    306b:	38 33 83 73 00 70 07 00 00 07 70 00 00 70 07 00     83.s.p....p..p..
    307b:	c0 cc cc cc cc cc cc cc cc 3c 37 33 cc 73 33 37     .........<73.s37
    308b:	cc 33 33 33 cc 00 00 00 00 00 00 00 00 00 00 00     .333............
    309b:	cc cc cc 0c cc cc cc cc 33 37 c7 cc 33 73 33 cc     ........37..3s3.
    30ab:	33 33 33 cc 00 00 00 cc 00 00 00 00 00 00 00 00     333.............
	...

0000329b <anim1>:
    329b:	00 00 00 ae 0e 00 00 00 00 00 e0 ae eb 00 00 00     ................
    32ab:	00 00 20 df fd 00 00 00 00 00 e0 ff ff 00 00 00     .. .............
    32bb:	00 00 00 f8 07 00 00 00 00 00 00 fd 08 00 00 00     ................
    32cb:	00 00 d0 5d 0d 00 00 00 00 00 f0 d8 0d 00 00 00     ...]............
    32db:	00 00 f0 d0 0d 00 00 00 00 00 00 d7 7b 00 00 00     ............{...
    32eb:	00 00 00 f8 08 00 00 00 00 00 00 b1 03 00 00 00     ................
    32fb:	00 00 00 b9 03 00 00 00 00 00 00 b9 f0 00 00 00     ................
    330b:	00 00 80 48 0f 00 00 00 00 00 80 b7 08 00 00 00     ...H............
	...
    3323:	00 00 00 f0 ff 0f 00 00 00 00 00 8f ea ae 00 00     ................
    3333:	00 00 00 8f ee 08 00 00 00 00 00 ef f8 8f 00 00     ................
    3343:	00 00 00 88 86 0f 00 00 00 00 00 d0 dd 00 00 00     ................
    3353:	00 00 00 d5 dd 00 00 00 00 00 00 8f d5 08 00 00     ................
    3363:	00 00 00 07 02 00 00 00 00 00 00 08 8f 00 00 00     ................
    3373:	00 00 00 10 b8 03 00 00 00 00 80 14 19 00 00 00     ................
    3383:	00 00 b8 8f 00 00 00 00 00 00 4c 07 00 00 00 00     ..........L.....
    3393:	00 00 80 08 00 00 00 00 00 00 00 00 00 00 00 00     ................
    33a3:	00 00 00 20 bf 0f 00 00 00 00 00 a8 e2 8a 00 00     ... ............
    33b3:	00 00 00 a8 ea 08 00 00 00 00 00 8e fe 8f 00 00     ................
    33c3:	00 00 00 a0 a8 0f 00 00 00 00 00 d5 dd 00 00 00     ................
    33d3:	00 00 f8 d5 dd 7f 00 00 00 00 08 d8 5d 88 00 00     ............]...
    33e3:	00 00 70 8f 0d 00 00 00 00 00 00 f8 08 00 00 00     ..p.............
    33f3:	00 c0 88 88 b9 00 00 00 00 c0 84 80 b9 00 00 00     ................
    3403:	00 00 0f 80 3b 00 00 00 00 00 00 c0 48 0f 00 00     ....;.......H...
    3413:	00 00 00 80 b7 08 00 00 00 00 00 f0 bf 08 00 00     ................
    3423:	00 00 00 aa e2 0e 00 00 00 00 d0 a8 ee 00 00 00     ................
    3433:	00 00 d0 8e fe 0f 00 00 00 00 00 a8 78 07 00 00     ............x...
    3443:	00 00 00 d5 0f 00 00 00 00 00 00 5d 5d 00 00 00     ...........]]...
    3453:	00 00 80 8f 0d 00 00 00 00 00 80 8f 08 00 00 00     ................
    3463:	00 00 00 80 0f 00 00 00 00 00 00 88 88 00 00 00     ................
    3473:	00 00 08 b1 89 00 00 00 00 00 18 b9 00 00 00 00     ................
    3483:	00 00 1c 01 00 00 00 00 00 00 4f 8c 00 00 00 00     ..........O.....
    3493:	00 00 70 87 00 00 00 00 00 00 00 00 00 00 00 00     ..p.............
    34a3:	00 00 00 70 87 00 00 00 00 00 00 2a ea 00 00 00     ...p.......*....
    34b3:	00 00 a0 a8 ee 0c 00 00 00 00 a0 8a 72 00 00 00     ............r...
    34c3:	00 00 20 ee fe 00 00 00 00 00 08 90 00 80 00 00     .. .............
    34d3:	00 f0 58 d5 0d 78 00 00 00 00 58 85 fd 00 00 00     ..X..x....X.....
    34e3:	00 00 80 5d 00 00 00 00 00 00 ef 89 00 00 00 00     ...]............
    34f3:	00 00 30 bb 08 00 00 00 00 c0 99 91 0b 00 00 00     ..0.............
    3503:	00 48 09 90 09 00 00 00 00 f0 0c 88 cc 08 00 00     .H..............
    3513:	00 00 00 80 88 00 00 00 00 00 00 d8 07 00 00 00     ................
    3523:	00 00 a0 a2 fa 00 00 00 00 00 88 ee 88 00 00 00     ................
    3533:	00 00 a8 a8 ff 00 00 00 00 00 e0 ee 8f ff 8f 00     ................
    3543:	00 00 55 d8 8f 00 80 00 00 00 5d dd 5d 00 00 00     ..U.......].]...
    3553:	00 70 08 d0 cd 00 00 00 00 00 f8 0f bf 08 00 00     .p..............
    3563:	00 80 ef b8 bb 0b 00 00 00 00 10 ba 90 0b 00 00     ................
    3573:	00 00 90 89 10 01 00 00 00 80 98 01 84 00 00 00     ................
    3583:	00 80 44 00 f8 0c 00 00 00 00 ff 00 80 08 00 00     ..D.............
	...
    359b:	00 00 00 80 07 00 00 00 00 00 00 ea fe 00 00 00     ................
    35ab:	00 00 20 ee ee 00 00 00 00 00 80 ee 09 00 00 00     .. .............
    35bb:	00 00 08 f8 8f 00 00 00 00 70 dd 8f 00 00 00 00     .........p......
    35cb:	00 00 50 dd dd 0f 00 00 00 00 80 d5 0d fa 00 00     ..P.............
    35db:	00 00 8e fb 0d 80 07 00 00 00 91 9b bb 00 00 00     ................
    35eb:	00 80 91 88 b9 00 00 00 00 48 00 00 b0 0b 00 00     .........H......
    35fb:	00 f0 0f 00 80 09 00 00 00 00 00 00 c8 04 00 00     ................
    360b:	00 00 00 00 f0 0f 00 00 00 00 00 00 00 00 00 00     ................

0000361b <colldata>:
	...
    3623:	00 00 00 01 01 0f 00 0f 0f 00 00 01 0f 00 00 08     ................
    3633:	0f 00 00 00 00 00 00 00 00 00 00 00 0f 0f 0f 0f     ................
    3643:	0f 00 00 00 00 0f 00 00 00 00 00 0f 00 01 00 00     ................
    3653:	01 00 00 00 00 00 00 00 00 00 00 00 00 00 01 01     ................
    3663:	00 00 00 00 00 00 00 0f 0f 0f 0f 0f 0f 0f 00 00     ................
	...
    369b:	00 0f 20 00 00 00 00 00 00 00 00 00 00 00 00 00     .. .............
    36ab:	00 00 00 00 00 00 01 00 00 00 00 00 00 0f 00 00     ................
	...
    36ef:	0f 0f 0f 0f 0f 0f 00 00 00 20 11 00 00 00 00 00     ......... ......
	...

0000370b <__c.1940>:
    370b:	78 3d 20 20 20 20 20 20 79 3d 20 20 20 20 20 20     x=      y=      
    371b:	20 00                                                .

0000371d <__c.1843>:
    371d:	50 52 45 53 53 20 41 4e 59 20 4b 45 59 00           PRESS ANY KEY.

0000372b <__c.1841>:
    372b:	28 41 6c 70 68 61 56 65 72 73 69 6f 6e 29 00        (AlphaVersion).

0000373a <__c.1839>:
    373a:	3d 3d 3d 3d 3d 3d 3d 3d 3d 3d 3d 3d 3d 3d 00        ==============.

00003749 <__c.1837>:
    3749:	43 6f 6d 6d 61 6e 64 65 72 20 4b 45 45 4e 20 34     Commander KEEN 4
	...

0000375a <__c.1835>:
    375a:	52 65 74 72 6f 57 69 7a 20 44 45 4d 4f 00           RetroWiz DEMO.

00003768 <__c.1824>:
    3768:	0a 53 44 20 52 65 73 65 74 3a 20 25 64 0a 0a 00     .SD Reset: %d...

00003778 <__c.1815>:
    3778:	f8 03 7a 00 0b 02 f8 03 7a 00 02 80 00 00 00 00     ..z.....z.......
	...

0000378a <map1>:
    378a:	49 49 49 49 49 49 49 49 49 49 49 49 49 49 49 49     IIIIIIIIIIIIIIII
    379a:	49 49 49 49 49 49 49 49 49 49 49 49 49 49 49 49     IIIIIIIIIIIIIIII
    37aa:	49 49 49 49 49 49 49 49 49 49 49 49 49 49 49 49     IIIIIIIIIIIIIIII
    37ba:	49 49 49 49 49 49 49 49 49 49 49 49 49 49 49 49     IIIIIIIIIIIIIIII
    37ca:	49 49 49 49 49 49 49 49 49 49 49 49 49 49 49 49     IIIIIIIIIIIIIIII
    37da:	49 49 49 49 49 49 49 49 49 49 49 49 49 49 49 49     IIIIIIIIIIIIIIII
    37ea:	49 49 49 49 49 49 49 49 49 49 49 49 49 49 49 49     IIIIIIIIIIIIIIII
    37fa:	49 49 49 49 49 49 49 49 49 49 49 49 49 49 49 49     IIIIIIIIIIIIIIII
    380a:	49 49 49 49 49 49 49 49 49 49 49 49 49 49 49 49     IIIIIIIIIIIIIIII
    381a:	49 49 49 49 49 49 49 49 49 49 49 49 49 49 49 49     IIIIIIIIIIIIIIII
    382a:	49 49 49 49 49 49 49 49 49 49 49 49 49 49 49 49     IIIIIIIIIIIIIIII
    383a:	49 49 49 49 49 49 49 49 49 49 49 49 49 49 49 49     IIIIIIIIIIIIIIII
    384a:	49 49 49 49 49 49 49 49 49 49 49 49 49 49 49 49     IIIIIIIIIIIIIIII
    385a:	49 49 49 49 49 49 49 49 49 49 49 49 49 49 49 49     IIIIIIIIIIIIIIII
    386a:	49 49 49 49 49 49 49 49 49 49 49 49 49 49 49 49     IIIIIIIIIIIIIIII
    387a:	49 49 49 49 49 49 49 49 49 49 49 49 49 49 49 49     IIIIIIIIIIIIIIII
    388a:	49 49 49 49 49 49 49 49 49 49 49 49 49 49 49 49     IIIIIIIIIIIIIIII
    389a:	49 49 49 49 49 49 49 49 49 49 49 49 49 49 49 49     IIIIIIIIIIIIIIII
    38aa:	49 49 49 49 49 49 00 00 00 00 00 00 00 00 00 00     IIIIII..........
	...
    393e:	49 49 49 49 00 00 00 00 00 00 00 00 00 00 00 00     IIII............
	...
    39ce:	00 00 49 49 49 49 00 00 00 00 00 00 00 00 00 00     ..IIII..........
	...
    3a62:	49 49 49 49 00 00 00 00 00 00 00 00 00 00 00 00     IIII............
	...
    3af2:	00 00 49 49 49 49 00 00 00 00 00 00 00 00 00 00     ..IIII..........
	...
    3b22:	00 5a 00 00 00 00 00 00 00 00 00 00 00 00 00 00     .Z..............
	...
    3b86:	49 49 49 49 00 00 00 00 00 00 00 00 00 00 00 00     IIII............
	...
    3bb2:	00 00 4e 4e 4e 00 00 00 00 00 00 00 00 00 00 00     ..NNN...........
	...
    3bce:	00 00 4d 00 00 00 00 00 00 00 00 00 00 00 00 00     ..M.............
	...
    3bf2:	4b 4c 4e 4c 00 00 00 00 00 00 00 00 00 00 00 00     KLNL............
	...
    3c0e:	00 00 00 4e 00 00 00 00 00 00 49 49 49 49 00 00     ...N......IIII..
	...
    3c42:	00 00 00 4e 4d 4c 4e 4e 00 00 00 00 00 00 00 00     ...NMLNN........
	...
    3c5e:	00 00 00 4c 00 4e 00 00 00 00 00 00 00 00 00 00     ...L.N..........
	...
    3c8e:	00 4b 00 00 00 00 00 00 00 00 00 00 00 00 00 00     .K..............
    3c9e:	00 00 00 00 4c 00 4c 00 00 00 00 00 49 49 49 49     ....L.L.....IIII
	...
    3cd6:	4c 4c 4e 4d 4e 4d 4d 00 00 00 00 00 00 00 00 00     LLNMNMM.........
	...
    3d1e:	00 00 4c 00 4e 00 00 00 00 00 00 00 00 00 00 00     ..L.N...........
    3d2e:	00 00 00 00 00 4b 00 00 00 4d 00 00 00 00 49 49     .....K...M....II
    3d3e:	49 49 00 00 00 00 00 00 00 00 00 00 00 00 00 00     II..............
    3d4e:	00 00 00 00 00 4e 4e 4e 00 00 00 00 00 00 00 00     .....NNN........
	...
    3dce:	49 49 49 49 00 00 00 00 00 00 00 00 00 00 00 00     IIII............
    3dde:	00 00 00 00 00 00 4e 00 00 00 4e 00 00 00 00 00     ......N...N.....
	...
    3e2a:	4c 4e 00 00 00 00 00 00 00 00 00 00 00 00 00 00     LN..............
	...
    3e5e:	00 00 49 49 48 00 00 00 00 00 00 00 00 00 00 00     ..IIH...........
	...
    3eae:	4b 4b 00 00 00 00 00 00 00 00 00 00 00 4b 00 00     KK...........K..
    3ebe:	4b 00 00 00 00 00 00 00 00 00 00 00 00 00 00 00     K...............
	...
    3ef2:	49 49 48 00 00 00 00 00 00 00 00 00 00 00 00 00     IIH.............
	...
    3f3e:	00 4b 00 00 4b 00 00 00 00 00 00 00 00 00 00 00     .K..K...........
	...
    3f7a:	00 3d 30 31 02 02 02 02 02 02 49 49 48 00 00 00     .=01......IIH...
	...
    400a:	00 3d 3e 3f 37 38 0c 0c 0c 0c 0c 0c 49 49 48 00     .=>?78......IIH.
	...
    4076:	00 3d 30 31 02 02 02 02 02 02 61 62 02 02 02 02     .=01......ab....
    4086:	02 02 02 02 02 02 02 02 02 02 02 04 00 00 01 02     ................
    4096:	02 02 02 02 02 02 02 2f 41 42 4f 50 51 52 4f 50     ......./ABOPQROP
    40a6:	51 52 49 49 48 02 02 02 5c 5d 02 61 62 02 02 02     QRIIH...\].ab...
    40b6:	09 15 16 00 00 00 00 00 00 00 00 00 00 00 00 00     ................
    40c6:	00 00 3d 30 31 02 09 15 16 00 00 00 00 00 00 00     ..=01...........
	...
    40ee:	00 00 21 00 00 00 00 00 00 00 00 00 00 00 00 00     ..!.............
	...
    4106:	00 3d 3e 3f 37 38 0c 0c 0c 0c 0c 0c 63 64 0c 0c     .=>?78......cd..
    4116:	0c 0c 0c 0c 0c 0c 0c 0c 0c 0c 0c 0c 0d 0e 00 0a     ................
    4126:	0b 0c 0c 0c 0c 0c 0c 0c 35 36 55 56 53 54 55 56     ........56UVSTUV
    4136:	53 54 55 56 49 49 48 0c 0c 0c 5e 5f 0c 63 64 0c     STUVIIH...^_.cd.
    4146:	0c 13 14 1e 1f 20 00 00 00 00 00 00 00 00 00 00     ..... ..........
    4156:	00 00 3d 3e 3f 37 38 13 14 1e 1f 20 00 00 00 00     ..=>?78.... ....
	...
    417e:	30 31 02 09 20 21 00 00 00 00 00 00 00 00 00 00     01.. !..........
	...
    4196:	00 3d 3e 3f 41 42 4f 50 51 52 4f 50 51 52 51 52     .=>?ABOPQROPQRQR
    41a6:	4f 50 51 52 4f 50 51 52 4f 50 51 52 4f 50 17 0e     OPQROPQROPQROP..
    41b6:	00 40 18 52 4f 50 51 52 4f 50 51 52 4f 50 53 54     .@.ROPQROPQROPST
    41c6:	55 56 53 54 55 56 49 49 49 49 4f 50 51 52 4f 52     UVSTUVIIIIOPQROR
    41d6:	4f 50 51 52 4f 29 2a 2b 02 02 02 02 02 02 02 02     OPQRO)*+........
    41e6:	02 02 02 02 2f 41 42 50 51 52 4f 29 2a 2b 02 02     ..../ABPQRO)*+..
    41f6:	02 02 02 02 02 02 02 02 02 02 02 02 02 02 02 02     ................
    4206:	02 02 02 02 02 02 02 02 02 2f 37 0c 13 14 2b 2c     ........./7...+,
    4216:	02 04 00 00 00 00 00 00 00 3d 30 31 02 02 02 02     .........=01....
    4226:	02 02 02 2f 41 36 4f 50 53 54 55 56 53 54 55 56     .../A6OPSTUVSTUV
    4236:	55 56 53 54 55 56 4f 50 51 52 53 54 55 56 53 50     UVSTUVOPQRSTUVSP
    4246:	17 0e 00 40 55 56 53 54 55 56 53 54 55 56 53 54     ...@UVSTUVSTUVST
    4256:	4f 50 51 52 4f 50 51 52 49 49 49 49 53 54 55 56     OPQROPQRIIIISTUV
    4266:	53 56 53 54 55 56 53 54 32 33 0c 0c 0c 0c 0c 0c     SVSTUVST23......
    4276:	0c 0c 0c 0c 0c 35 36 56 53 54 55 56 53 54 32 33     .....56VSTUVST23
    4286:	0c 0c 0c 0c 0c 0c 0c 0c 0c 0c 0c 0c 0c 0c 0c 0c     ................
    4296:	0c 0c 0c 0c 0c 0c 0c 0c 0c 0c 35 36 51 51 52 28     ..........56QQR(
    42a6:	33 0c 0d 23 00 00 00 00 00 3d 3e 3f 37 38 0c 0c     3..#.....=>?78..
    42b6:	0c 0c 0c 0c 35 36 4f 50 53 54 55 56 51 52 4f 50     ....56OPSTUVQROP
    42c6:	51 52 4f 50 51 52 4f 50 53 54 55 56 4f 50 51 52     QROPQROPSTUVOPQR
    42d6:	53 54 17 23 00 40 18 18 18 18 18 56 53 54 55 56     ST.#.@.....VSTUV
    42e6:	53 54 53 54 55 56 53 54 55 56 49 49 49 49 4f 50     STSTUVSTUVIIIIOP
    42f6:	51 52 4f 52 4f 50 51 52 4f 50 51 52 4f 50 51 52     QROROPQROPQROPQR
    4306:	4f 50 51 52 4f 50 51 52 4f 50 51 52 4f 50 51 52     OPQROPQROPQROPQR
    4316:	4f 50 53 54 25 26 25 24 25 26 25 26 24 25 24 25     OPST%&%$%&%&$%$%
    4326:	26 25 26 27 24 25 24 25 26 25 26 24 25 26 25 26     &%&'$%$%&%&$%&%&
    4336:	24 25 25 27 2d 2e 00 00 00 3d 3e 3f 41 42 4f 50     $%%'-....=>?ABOP
    4346:	4f 50 4f 50 51 52 4f 56 53 54 4f 50 52 55 25 25     OPOPQROVSTOPRU%%
    4356:	24 25 25 26 24 25 26 56 53 54 4f 50 51 52 53 54     $%%&$%&VSTOPQRST
    4366:	55 56 51 27 2d 2e 00 40 0f 0f 0f 0f 10 52 4f 50     UVQ'-..@.....ROP
    4376:	51 52 4f 50 55 25 26 27 27 25 51 52 49 49 49 49     QROPU%&''%QRIIII
    4386:	53 54 55 56 55 56 53 54 55 56 53 54 55 56 53 25     STUVUVSTUVSTUVS%
    4396:	26 25 26 24 25 24 25 26 24 25 24 24 55 56 53 54     &%&$%$%&$%$$UVST
    43a6:	55 56 53 54 4f 17 0e 00 00 4b 00 00 00 00 00 00     UVSTO....K......
	...
    43ce:	00 3d 3e 3f 41 42 55 56 51 52 4f 50 51 52 4f 50     .=>?ABUVQROPQROP
    43de:	51 52 4f 50 53 54 56 17 0e 57 00 00 00 00 00 57     QROPSTV..W.....W
    43ee:	40 50 51 52 53 54 55 56 4f 50 51 52 17 0e 00 00     @PQRSTUVOPQR....
    43fe:	00 40 18 18 18 18 19 56 53 54 55 56 53 54 17 0e     .@.....VSTUVST..
    440e:	58 4e 58 40 55 56 49 49 49 49 4f 50 51 52 51 52     XNX@UVIIIIOPQRQR
    441e:	4f 50 51 52 4f 50 51 17 23 00 00 00 00 00 00 00     OPQROPQ.#.......
    442e:	00 00 00 00 57 40 52 53 4f 50 51 52 4f 50 56 17     ....W@RSOPQROPV.
    443e:	0e 00 4b 4e 4c 00 00 00 00 00 00 00 00 4c 4b 00     ..KNL........LK.
	...
    4456:	4e 00 00 00 00 00 00 00 00 3d 3e 3f 41 42 55 56     N........=>?ABUV
    4466:	51 52 55 56 53 54 55 56 53 54 55 56 53 60 60 50     QRUVSTUVSTUVS``P
    4476:	52 17 0e 00 00 00 00 00 00 00 40 54 55 56 4f 50     R.........@TUVOP
    4486:	51 52 53 54 55 56 17 0e 00 00 00 40 51 52 4f 50     QRSTUV.....@QROP
    4496:	51 52 4f 50 51 52 4f 50 17 0e 4d 4c 4e 40 51 52     QROPQROP..MLN@QR
    44a6:	49 49 49 49 53 54 55 56 55 56 53 54 55 26 26 25     IIIISTUVUVSTU&&%
    44b6:	26 2d 2e 00 00 00 00 00 00 00 00 00 00 00 00 22     &-............."
    44c6:	27 24 53 54 55 56 53 54 52 17 0e 4c 4e 4b 4e 4c     '$STUVSTR..LNKNL
    44d6:	00 00 00 00 00 00 4b 00 00 4e 00 00 00 00 00 00     ......K..N......
    44e6:	00 4b 00 4b 00 00 00 00 00 3d 3e 3f 41 42 55 56     .K.K.....=>?ABUV
    44f6:	4f 50 51 52 4f 50 51 52 4f 50 51 52 4f 50 51 60     OPQROPQROPQROPQ`
    4506:	60 54 56 17 43 02 02 04 00 01 02 02 02 50 51 52     `TV.C........PQR
    4516:	53 54 55 56 4f 50 51 52 17 0e 00 00 00 40 55 56     STUVOPQR.....@UV
    4526:	53 54 55 56 53 54 55 56 53 54 17 0e 4e 1d 4e 40     STUVSTUVST..N.N@
    4536:	55 56 49 49 49 49 4f 50 51 52 51 52 4f 52 17 23     UVIIIIOPQRQROR.#
	...
    455a:	52 53 51 52 60 60 56 17 0e 00 00 00 00 00 00 00     RSQR``V.........
	...
    457e:	00 3d 3e 3f 41 42 55 56 51 52 53 54 55 56 53 54     .=>?ABUVQRSTUVST
    458e:	55 56 53 54 55 56 53 54 55 56 4f 50 52 45 46 46     UVSTUVSTUVOPREFF
    459e:	0d 23 0a 0b 0c 0c 47 50 51 52 4f 50 51 52 53 54     .#....GPQROPQRST
    45ae:	55 56 17 43 02 04 00 40 51 52 4f 50 51 52 4f 50     UV.C...@QROPQROP
    45be:	51 52 4f 50 17 43 05 06 07 02 51 52 49 49 49 49     QROP.C....QRIIII
    45ce:	53 54 55 56 25 26 25 26 2d 2e 00 00 00 00 00 00     STUV%&%&-.......
	...
    45ea:	57 00 27 24 55 56 60 60 50 17 0e 00 00 00 00 00     W.'$UV``P.......
	...
    460e:	00 3d 3e 3f 41 42 55 56 4f 50 51 52 4f 50 51 52     .=>?ABUVOPQROPQR
    461e:	4f 50 51 27 24 25 26 27 24 25 26 27 24 25 26 27     OPQ'$%&'$%&'$%&'
    462e:	24 26 2d 2e 22 24 24 25 26 25 26 27 24 25 26 27     $&-."$$%&%&'$%&'
    463e:	24 25 26 52 45 46 0d 0e 00 40 55 56 53 54 55 56     $%&REF...@UVSTUV
    464e:	53 54 55 56 53 54 45 46 0c 11 0c 47 55 56 49 49     STUVSTEF...GUVII
    465e:	49 49 4f 50 51 17 23 57 00 00 00 00 00 00 00 00     IIOPQ.#W........
	...
    467e:	00 40 52 53 4f 50 54 17 23 00 00 00 00 00 00 00     .@RSOPT.#.......
	...
    469a:	00 1d 00 00 00 3d 3e 3f 41 42 55 56 51 52 53 54     .....=>?ABUVQRST
    46aa:	55 56 53 54 55 56 53 54 17 0e 57 00 00 00 00 00     UVSTUVST..W.....
	...
    46d2:	40 56 4f 50 17 0e 00 40 51 52 4f 50 51 52 4f 50     @VOP...@QROPQROP
    46e2:	51 52 4f 50 4f 50 0f 08 0f 53 54 52 49 49 49 49     QROPOP...STRIIII
    46f2:	53 25 26 2d 2e 00 00 00 00 00 00 00 00 00 3d 30     S%&-..........=0
    4702:	31 03 02 04 00 00 00 00 00 00 00 00 00 00 57 22     1.............W"
    4712:	27 24 24 25 25 2d 2e 00 00 00 00 00 00 00 00 00     '$$%%-..........
    4722:	00 00 00 00 00 3d 30 31 02 02 05 06 07 02 02 2f     .....=01......./
    4732:	41 42 55 56 4f 50 51 52 25 26 25 26 24 25 26 52     ABUVOPQR%&%&$%&R
    4742:	4f 50 17 0e 00 57 00 00 00 00 00 00 00 00 00 00     OP...W..........
	...
    4762:	00 00 40 52 53 54 17 23 00 40 18 18 18 19 18 19     ..@RST.#.@......
    4772:	18 19 19 19 18 19 18 19 18 12 18 4f 50 56 49 49     ...........OPVII
    4782:	49 49 17 0e 00 00 00 00 00 00 00 00 00 00 3d 3e     II............=>
    4792:	3f 37 38 0c 0d 0e 00 00 00 00 00 00 00 00 00 00     ?78.............
	...
    47b6:	00 3d 3e 3f 37 38 0c 0c 0c 11 0c 0c 35 36 55 56     .=>?78......56UV
    47c6:	51 52 53 54 55 17 0e 00 00 00 00 00 40 56 53 54     QRSTU.......@VST
    47d6:	17 0e 00 00 00 00 00 00 00 00 00 00 00 00 00 00     ................
	...
    47f6:	22 27 24 25 2d 2e 00 40 0f 0f 10 0f 10 0f 10 10     "'$%-..@........
    4806:	10 0f 10 0f 10 0f 0f 08 0f 54 54 52 49 49 49 49     .........TTRIIII
    4816:	17 0e 00 00 00 00 00 00 00 00 3d 3e 3f 41 42 54     ..........=>?ABT
    4826:	55 56 17 0e 00 00 00 00 00 00 00 00 00 00 00 00     UV..............
    4836:	4a 00 00 00 00 00 00 00 00 00 00 00 00 00 00 00     J...............
    4846:	00 3d 3e 3f 41 42 4f 50 4f 4f 0f 08 0f 51 55 56     .=>?ABOPOO...QUV
    4856:	51 52 55 56 4f 50 51 17 0e 00 00 00 00 00 40 56     QRUVOPQ.......@V
    4866:	4f 50 17 0e 00 00 01 02 02 02 02 02 02 04 00 01     OP..............
    4876:	02 02 02 02 02 02 02 02 04 00 00 01 02 02 02 02     ................
    4886:	09 20 21 00 00 00 00 00 00 40 18 18 19 18 19 18     . !......@......
    4896:	19 19 19 18 19 18 19 18 18 12 18 56 50 56 49 49     ...........VPVII
    48a6:	49 49 17 0e 00 01 02 02 02 02 02 03 2f 41 42 52     II........../ABR
    48b6:	4f 50 51 52 17 0e 00 00 00 00 00 00 00 00 00 00     OPQR............
    48c6:	00 01 02 02 02 02 02 02 02 02 02 02 02 61 62 02     .............ab.
    48d6:	02 02 02 2f 41 42 55 56 53 54 53 53 18 12 18 55     .../ABUVSTSS...U
    48e6:	51 52 55 56 4f 50 53 54 55 17 0e 00 00 01 02 02     QRUVOPSTU.......
    48f6:	02 52 53 54 17 0e 00 0a 0b 0c 0c 0c 0c 0c 0d 0e     .RST............
    4906:	0a 0b 0c 0c 0c 0c 0c 0c 0c 0d 0e 00 0a 0b 0c 0c     ................
    4916:	0c 13 14 2b 2c 02 02 02 02 02 02 02 55 56 53 54     ...+,.......UVST
    4926:	55 56 53 54 55 56 53 54 53 55 0f 08 0f 52 54 52     UVSTUVSTSU...RTR
    4936:	49 49 49 49 17 0e 0a 0b 0c 0c 0c 0c 0c 35 36 44     IIII.........56D
    4946:	55 56 53 54 55 56 17 0e 00 00 00 00 00 00 00 00     UVSTUV..........
    4956:	00 00 0a 0b 0c 0c 0c 0c 0c 0c 0c 0c 0c 0c 0c 63     ...............c
    4966:	64 0c 0c 0c 35 36 55 56 53 54 60 60 53 54 34 3b     d...56UVST``ST4;
    4976:	34 52 55 56 55 56 53 54 4f 50 51 17 23 00 0a 0b     4RUVUVSTOPQ.#...
    4986:	0c 0c 47 56 4f 50 17 23 00 22 26 24 25 26 52 50     ..GVOP.#."&$%&RP
    4996:	17 0e 40 51 52 50 51 52 53 54 50 17 0e 00 40 51     ..@QRPQRSTP...@Q
    49a6:	53 54 55 55 28 33 0c 0c 0c 0c 0c 0c 0c 0d 55 56     STUU(3........UV
    49b6:	53 24 25 26 27 24 24 25 53 54 53 55 39 3c 3a 27     S$%&'$$%STSU9<:'
    49c6:	24 56 49 49 49 49 17 0e 22 24 25 26 27 24 25 26     $VIIII.."$%&'$%&
    49d6:	27 26 25 52 4f 50 51 52 17 43 6f 65 66 65 66 67     '&%ROPQR.Coefefg
    49e6:	68 67 68 69 02 52 51 52 4f 50 51 52 4f 50 51 52     hghi.RQROPQROPQR
    49f6:	4f 50 51 52 4f 50 4f 50 51 52 4f 50 60 60 4f 17     OPQROPOPQROP``O.
    4a06:	0e 1a 22 27 24 25 26 25 26 27 24 25 26 2d 2e 00     .."'$%&%&'$%&-..
    4a16:	22 24 24 25 26 24 25 26 2d 2e 00 00 00 00 57 40     "$$%&$%&-.....W@
    4a26:	56 54 17 0e 40 0f 10 0f 0f 08 10 50 54 17 0e 00     VT..@......PT...
    4a36:	40 52 4f 50 51 52 4f 50 51 52 4f 50 51 52 4f 50     @ROPQROPQROPQROP
    4a46:	51 52 17 0e 00 4e 58 4e 00 40 51 50 51 17 0e 1a     QR...NXN.@QPQ...
    4a56:	00 5a 40 52 49 49 49 49 17 0e 00 00 00 00 00 00     .Z@RIIII........
    4a66:	00 00 00 57 40 52 53 54 55 56 45 46 70 6a 6b 6a     ...W@RSTUVEFpjkj
    4a76:	6b 6c 6d 6c 6d 6e 47 56 55 56 53 54 55 56 53 54     klmlmnGVUVSTUVST
    4a86:	55 56 53 54 55 56 53 54 53 54 55 56 53 54 55 56     UVSTUVSTSTUVSTUV
    4a96:	53 17 0e 1b 00 00 00 00 00 00 00 00 00 00 00 00     S...............
	...
    4ab6:	00 40 56 54 17 0e 40 0f 10 0f 10 12 19 54 54 17     .@VT..@......TT.
    4ac6:	0e 00 22 24 24 54 55 56 60 60 55 56 53 54 55 56     .."$$TUV``UVSTUV
    4ad6:	53 54 55 56 17 0e 4e 58 4e 58 4e 40 55 54 55 17     STUV..NXNXN@UTU.
    4ae6:	0e 1c 00 00 40 56 49 49 49 49 17 0e 00 00 00 00     ....@VIIII......
    4af6:	00 00 00 00 00 00 22 27 24 50 51 52 4f 50 51 52     ......"'$PQROPQR
    4b06:	4f 50 4f 50 4f 50 51 24 25 24 25 24 4f 50 51 52     OPOPOPQ$%$%$OPQR
    4b16:	4f 50 51 52 4f 50 51 52 4f 50 51 52 4f 50 51 52     OPQROPQROPQROPQR
    4b26:	4f 50 51 17 0e 1b 00 00 00 00 00 00 00 00 00 00     OPQ.............
	...
    4b46:	01 02 02 02 52 50 17 0e 40 18 19 18 19 12 19 52     ....RP..@......R
    4b56:	4f 17 0e 00 00 00 40 52 53 50 60 60 4f 50 51 52     O.....@RSP``OPQR
    4b66:	4f 50 51 52 4f 50 17 23 00 4e 4d 4e 00 40 4f 52     OPQROP.#.NMN.@OR
    4b76:	4f 17 43 02 02 02 02 52 49 49 49 49 17 43 02 02     O.C....RIIII.C..
    4b86:	09 15 16 00 00 00 00 00 00 57 40 52 53 56 53 54     .........W@RSVST
    4b96:	55 56 53 54 18 19 53 51 17 23 59 5b 59 40 53 54     UVST..SQ.#Y[Y@ST
    4ba6:	55 56 53 26 27 24 25 26 56 56 53 54 55 56 53 54     UVS&'$%&VVSTUVST
    4bb6:	55 56 53 54 55 17 0e 1c 00 00 00 00 00 00 00 00     UVSTU...........
	...
    4bd6:	00 0a 0b 0c 0c 47 56 54 17 0e 40 0f 10 0f 0f 08     .....GVT..@.....
    4be6:	10 56 53 17 43 04 00 00 22 27 24 25 26 27 24 25     .VS.C..."'$%&'$%
    4bf6:	26 27 24 25 26 27 24 25 2d 2e 00 00 00 00 00 40     &'$%&'$%-......@
    4c06:	53 56 53 45 46 0c 0c 0c 47 56 49 49 49 49 45 46     SVSEF...GVIIIIEF
    4c16:	0c 13 14 1e 1f 15 16 00 00 00 00 00 22 27 24 24     ............"'$$
    4c26:	25 24 25 24 25 24 39 3a 25 26 2d 2e 00 00 00 40     %$%$%$9:%&-....@
    4c36:	4f 50 51 52 17 0e 58 5a 58 40 51 52 4f 50 51 52     OPQR..XZX@QROPQR
    4c46:	4f 50 51 52 4f 50 51 17 43 02 02 02 02 02 02 02     OPQROPQ.C.......
    4c56:	02 02 02 02 02 02 02 02 02 02 02 02 02 02 02 02     ................
    4c66:	02 02 02 02 50 51 52 51 52 50 17 43 02 4f 51 52     ....PQRQRP.C.OQR
    4c76:	18 12 19 52 4f 45 0d 0e 00 00 00 00 00 00 00 00     ...ROE..........
	...
    4c96:	00 40 4f 52 4f 50 55 56 53 54 55 56 49 49 49 49     .@OROPUVSTUVIIII
    4ca6:	4f 50 51 52 17 29 2a 1e 1f 15 16 00 00 00 00 00     OPQR.)*.........
	...
    4cc6:	00 40 4f 54 55 56 17 0e 00 00 00 40 55 56 53 54     .@OTUV.....@UVST
    4cd6:	55 56 53 54 55 56 53 54 55 45 46 0c 0c 0c 0c 0c     UVSTUVSTUEF.....
    4ce6:	0c 0c 0c 0c 0c 0c 0c 0c 0c 0c 0c 0c 0c 0c 0c 0c     ................
    4cf6:	0c 0c 0c 0c 0c 47 54 55 56 55 56 54 45 46 47 53     .....GTUVUVTEFGS
    4d06:	55 56 0f 08 10 56 53 54 17 0e 00 00 00 00 00 00     UV...VST........
	...
    4d26:	00 00 00 40 53 56 60 60 55 56 53 54 55 56 49 49     ...@SV``UVSTUVII
    4d36:	49 49 53 54 55 56 56 56 32 29 2a 1e 1f 20 21 00     IISTUVVV2)*.. !.
	...
    4d56:	00 00 00 40 53 50 51 52 17 0e 00 00 00 40 18 19     ...@SPQR.....@..
    4d66:	4f 50 51 52 4f 50 51 52 4f 50 51 52 4f 50 51 52     OPQROPQROPQROPQR
    4d76:	4f 50 51 52 4f 50 51 52 4f 50 51 52 4f 50 51 52     OPQROPQROPQROPQR
    4d86:	4f 50 51 52 4f 50 51 52 52 4f 50 4f 50 50 55 56     OPQROPQRROPOPPUV
    4d96:	53 54 51 52 18 12 19 52 4f 54 17 43 02 02 02 02     STQR...ROT.C....
    4da6:	02 02 02 02 02 02 02 02 02 02 02 02 02 02 02 02     ................
    4db6:	02 02 02 02 02 02 4f 52 60 60 51 52 4f 50 51 52     ......OR``QROPQR
    4dc6:	49 49 49 49 53 54 55 60 60 56 53 54 32 29 2a 2b     IIIISTU``VST2)*+
    4dd6:	2c 02 2c 02 02 02 02 02 02 02 02 02 02 02 02 02     ,.,.............
    4de6:	02 02 02 02 02 40 4f 54 55 56 17 0e 00 00 00 40     .....@OTUV.....@
    4df6:	0f 10 0f 10 0f 10 0f 10 0f 10 0f 10 10 0f 10 0f     ................
    4e06:	10 0f 10 0f 10 0f 10 0f 10 0f 10 0f 10 0f 10 0f     ................
    4e16:	10 0f 10 0f 10 0f 10 0f 10 0f 10 0f 10 0f 10 0f     ................
    4e26:	10 0f 10 0f 10 0f 0f 0f 10 56 53 54 45 46 0c 0c     .........VSTEF..
    4e36:	0c 0c 0c 0c 0c 0c 0c 0c 0c 0c 0c 0c 0c 0c 0c 0c     ................
    4e46:	0c 0c 0c 0c 0c 0c 0c 47 53 56 53 54 55 56 53 54     .......GSVSTUVST
    4e56:	55 56 49 49 49 49 4f 50 51 60 60 52 4f 50 4f 4f     UVIIIIOPQ``ROPOO
    4e66:	32 33 0c 0c 0c 0c 0c 0c 0c 0c 0c 0c 0c 0c 0c 0c     23..............
    4e76:	0c 0c 0c 0c 0c 0c 0c 47 53 50 51 52 17 43 02 02     .......GSPQR.C..
    4e86:	02 40 18 19 18 19 18 19 18 19 18 19 18 19 19 18     .@..............
    4e96:	19 18 19 18 19 18 19 18 19 18 19 18 19 18 19 18     ................
    4ea6:	19 18 19 18 19 18 19 18 19 18 19 18 19 18 19 18     ................
    4eb6:	19 18 19 18 19 18 19 18 18 18 19 52 4f 50 51 52     ...........ROPQR
    4ec6:	4f 50 51 52 4f 50 51 52 4f 50 51 52 4f 50 51 52     OPQROPQROPQROPQR
    4ed6:	4f 50 51 52 4f 50 51 52 4f 50 51 52 4f 50 51 52     OPQROPQROPQROPQR
    4ee6:	4f 50 51 52 49 49 49 49 53 54 55 56 55 56 53 54     OPQRIIIISTUVUVST
    4ef6:	55 56 53 54 55 56 53 54 55 56 53 54 55 56 53 54     UVSTUVSTUVSTUVST
    4f06:	55 56 53 54 55 56 53 54 55 56 53 54 55 56 45 46     UVSTUVSTUVSTUVEF
    4f16:	0c 0c 0c 47 55 56 53 54 55 56 53 54 55 56 53 54     ...GUVSTUVSTUVST
    4f26:	55 56 53 54 55 56 53 54 55 56 53 54 55 56 53 54     UVSTUVSTUVSTUVST
    4f36:	55 56 53 54 55 56 53 54 55 56 53 54 55 56 53 54     UVSTUVSTUVSTUVST
    4f46:	55 56 53 54 55 56 53 54 55 56 53 54 55 56 53 54     UVSTUVSTUVSTUVST
    4f56:	55 56 53 54 55 56 53 54 55 56 53 54 55 56 53 54     UVSTUVSTUVSTUVST
    4f66:	55 56 53 54 55 56 53 54 55 56 53 54 55 56 53 54     UVSTUVSTUVSTUVST
    4f76:	55 56 53 54 55 56 49 49 49 49 49 49 49 49 49 49     UVSTUVIIIIIIIIII
    4f86:	49 49 49 49 49 49 49 49 49 49 49 49 49 49 49 49     IIIIIIIIIIIIIIII
    4f96:	49 49 49 49 49 49 49 49 49 49 49 49 49 49 49 49     IIIIIIIIIIIIIIII
    4fa6:	49 49 49 49 49 49 49 49 49 49 49 49 49 49 49 49     IIIIIIIIIIIIIIII
    4fb6:	49 49 49 49 49 49 49 49 49 49 49 49 49 49 49 49     IIIIIIIIIIIIIIII
    4fc6:	49 49 49 49 49 49 49 49 49 49 49 49 49 49 49 49     IIIIIIIIIIIIIIII
    4fd6:	49 49 49 49 49 49 49 49 49 49 49 49 49 49 49 49     IIIIIIIIIIIIIIII
    4fe6:	49 49 49 49 49 49 49 49 49 49 49 49 49 49 49 49     IIIIIIIIIIIIIIII
    4ff6:	49 49 49 49 49 49 49 49 49 49 49 49 49 49 49 49     IIIIIIIIIIIIIIII
    5006:	49 49 49 49 49 49 49 49 49 49 49 49 49 49 49 49     IIIIIIIIIIIIIIII
    5016:	49 49 49 49 49 49 49 49 49 49 49 49 49 49 49 49     IIIIIIIIIIIIIIII
    5026:	49 49 49 49 49 49 49 49 49 49 49 49 49 49 49 49     IIIIIIIIIIIIIIII
    5036:	49 49 49 49 49 49 49 49 49 49 49 49 49 49 49 49     IIIIIIIIIIIIIIII
    5046:	49 49 49 49 49 49 49 49 49 49 49 49 49 49 49 49     IIIIIIIIIIIIIIII
    5056:	49 49 49 49 49 49 49 49 49 49 49 49 49 49 49 49     IIIIIIIIIIIIIIII
    5066:	49 49 49 49 49 49 49 49 49 49 49 49 49 49 49 49     IIIIIIIIIIIIIIII
    5076:	49 49 49 49 49 49 49 49 49 49 49 49 49 49 49 49     IIIIIIIIIIIIIIII
    5086:	49 49 49 49 49 49 49 49 49 49 49 49 49 49 49 49     IIIIIIIIIIIIIIII
    5096:	49 49 49 49 49 49 49 49 49 49 49 49                 IIIIIIIIIIII

000050a2 <codes>:
    50a2:	70 69 72 7a 6b 73 74 6c 75 7d 1c 32 21 23 24 2b     pirzkstlu}.2!#$+
    50b2:	34 33 43 3b 42 4b 3a 31 44 4d 15 2d 1b 2c 3c 2a     43C;BK:1DM.-.,<*
    50c2:	1d 22 35 1a 16 1e 26 25 2e 36 3d 3e 46 45 29 41     ."5...&%.6=>FE)A
    50d2:	49 4a 5a                                            IJZ

000050d5 <chars>:
    50d5:	30 31 32 33 34 35 36 37 38 39 41 42 43 44 45 46     0123456789ABCDEF
    50e5:	47 48 49 4a 4b 4c 4d 4e 4f 50 51 52 53 54 55 56     GHIJKLMNOPQRSTUV
    50f5:	57 58 59 5a 31 32 33 34 35 36 37 38 39 30 20 2c     WXYZ1234567890 ,
    5105:	2e 2f 0d                                            ./.

00005108 <__ctors_end>:
    5108:	11 24       	eor	r1, r1
    510a:	1f be       	out	0x3f, r1	; 63
    510c:	cf ef       	ldi	r28, 0xFF	; 255
    510e:	d8 e0       	ldi	r29, 0x08	; 8
    5110:	de bf       	out	0x3e, r29	; 62
    5112:	cd bf       	out	0x3d, r28	; 61

00005114 <__do_clear_bss>:
    5114:	17 e0       	ldi	r17, 0x07	; 7
    5116:	a6 e0       	ldi	r26, 0x06	; 6
    5118:	b1 e0       	ldi	r27, 0x01	; 1
    511a:	01 c0       	rjmp	.+2      	; 0x511e <.do_clear_bss_start>

0000511c <.do_clear_bss_loop>:
    511c:	1d 92       	st	X+, r1

0000511e <.do_clear_bss_start>:
    511e:	ad 33       	cpi	r26, 0x3D	; 61
    5120:	b1 07       	cpc	r27, r17
    5122:	e1 f7       	brne	.-8      	; 0x511c <.do_clear_bss_loop>

00005124 <__do_copy_data>:
    5124:	11 e0       	ldi	r17, 0x01	; 1
    5126:	a0 e0       	ldi	r26, 0x00	; 0
    5128:	b1 e0       	ldi	r27, 0x01	; 1
    512a:	ec eb       	ldi	r30, 0xBC	; 188
    512c:	fa e7       	ldi	r31, 0x7A	; 122
    512e:	02 c0       	rjmp	.+4      	; 0x5134 <.do_copy_data_start>

00005130 <.do_copy_data_loop>:
    5130:	05 90       	lpm	r0, Z+
    5132:	0d 92       	st	X+, r0

00005134 <.do_copy_data_start>:
    5134:	a6 30       	cpi	r26, 0x06	; 6
    5136:	b1 07       	cpc	r27, r17
    5138:	d9 f7       	brne	.-10     	; 0x5130 <.do_copy_data_loop>
    513a:	0e 94 59 29 	call	0x52b2	; 0x52b2 <main>
    513e:	0c 94 5c 3d 	jmp	0x7ab8	; 0x7ab8 <_exit>

00005142 <__bad_interrupt>:
    5142:	0c 94 00 00 	jmp	0	; 0x0 <__vectors>

00005146 <my_background_draw>:




unsigned char my_background_draw(signed char x, signed char y, PGM_P img, uint8_t width, uint8_t height)
{
    5146:	af 92       	push	r10
    5148:	bf 92       	push	r11
    514a:	cf 92       	push	r12
    514c:	df 92       	push	r13
    514e:	ef 92       	push	r14
    5150:	ff 92       	push	r15
    5152:	0f 93       	push	r16
    5154:	1f 93       	push	r17
    5156:	cf 93       	push	r28
    5158:	df 93       	push	r29
    515a:	ea 01       	movw	r28, r20
    515c:	b2 2e       	mov	r11, r18
	register unsigned char endrow = window_get_height();
    515e:	e0 91 cc 03 	lds	r30, 0x03CC
    5162:	f0 91 cd 03 	lds	r31, 0x03CD
    5166:	71 81       	ldd	r23, Z+1	; 0x01
	register unsigned char *scraddr = window_get_ptr();
    5168:	40 91 c7 03 	lds	r20, 0x03C7
    516c:	50 91 c8 03 	lds	r21, 0x03C8
	endrow++;

	//do all the calculations, to make the loop as fast as possible
	signed int  wx = x + width;
    5170:	a8 2f       	mov	r26, r24
    5172:	bb 27       	eor	r27, r27
    5174:	a7 fd       	sbrc	r26, 7
    5176:	b0 95       	com	r27
    5178:	e2 2e       	mov	r14, r18
    517a:	ff 24       	eor	r15, r15
    517c:	97 01       	movw	r18, r14
    517e:	2a 0f       	add	r18, r26
    5180:	3b 1f       	adc	r19, r27
    5182:	27 31       	cpi	r18, 0x17	; 23
    5184:	31 05       	cpc	r19, r1
    5186:	14 f0       	brlt	.+4      	; 0x518c <my_background_draw+0x46>
    5188:	26 e1       	ldi	r18, 0x16	; 22
    518a:	30 e0       	ldi	r19, 0x00	; 0
    518c:	e8 2f       	mov	r30, r24
    518e:	ff 27       	eor	r31, r31
    5190:	e7 fd       	sbrc	r30, 7
    5192:	f0 95       	com	r31
	if(wx > DRIVER_COLUMNS) wx = DRIVER_COLUMNS;
	if(x >= 0) { scraddr += x; wx -= x; }
    5194:	87 fd       	sbrc	r24, 7
    5196:	05 c0       	rjmp	.+10     	; 0x51a2 <my_background_draw+0x5c>
    5198:	4e 0f       	add	r20, r30
    519a:	5f 1f       	adc	r21, r31
    519c:	2a 1b       	sub	r18, r26
    519e:	3b 0b       	sbc	r19, r27
    51a0:	02 c0       	rjmp	.+4      	; 0x51a6 <my_background_draw+0x60>
	else img -= x;
    51a2:	ce 1b       	sub	r28, r30
    51a4:	df 0b       	sbc	r29, r31
	if(wx <= 0) return 2;
    51a6:	12 16       	cp	r1, r18
    51a8:	13 06       	cpc	r1, r19
    51aa:	0c f0       	brlt	.+2      	; 0x51ae <my_background_draw+0x68>
    51ac:	76 c0       	rjmp	.+236    	; 0x529a <my_background_draw+0x154>

	signed int  tmp = y + height;
    51ae:	e6 2f       	mov	r30, r22
    51b0:	ff 27       	eor	r31, r31
    51b2:	e7 fd       	sbrc	r30, 7
    51b4:	f0 95       	com	r31



unsigned char my_background_draw(signed char x, signed char y, PGM_P img, uint8_t width, uint8_t height)
{
	register unsigned char endrow = window_get_height();
    51b6:	76 95       	lsr	r23
    51b8:	76 95       	lsr	r23
    51ba:	76 95       	lsr	r23
    51bc:	7f 5f       	subi	r23, 0xFF	; 255
    51be:	a7 2f       	mov	r26, r23
    51c0:	b0 e0       	ldi	r27, 0x00	; 0
    51c2:	cf 01       	movw	r24, r30
    51c4:	80 0f       	add	r24, r16
    51c6:	91 1d       	adc	r25, r1
    51c8:	8c 01       	movw	r16, r24
    51ca:	a8 17       	cp	r26, r24
    51cc:	b9 07       	cpc	r27, r25
    51ce:	0c f4       	brge	.+2      	; 0x51d2 <my_background_draw+0x8c>
    51d0:	8d 01       	movw	r16, r26
	else img -= x;
	if(wx <= 0) return 2;

	signed int  tmp = y + height;
	if(tmp > endrow) tmp=endrow;
	if(y >= 0) { scraddr += y*DRIVER_COLUMNS; tmp -= y; }
    51d2:	67 fd       	sbrc	r22, 7
    51d4:	0f c0       	rjmp	.+30     	; 0x51f4 <my_background_draw+0xae>
    51d6:	86 e1       	ldi	r24, 0x16	; 22
    51d8:	90 e0       	ldi	r25, 0x00	; 0
    51da:	bc 01       	movw	r22, r24
    51dc:	e6 9f       	mul	r30, r22
    51de:	c0 01       	movw	r24, r0
    51e0:	e7 9f       	mul	r30, r23
    51e2:	90 0d       	add	r25, r0
    51e4:	f6 9f       	mul	r31, r22
    51e6:	90 0d       	add	r25, r0
    51e8:	11 24       	eor	r1, r1
    51ea:	48 0f       	add	r20, r24
    51ec:	59 1f       	adc	r21, r25
    51ee:	0e 1b       	sub	r16, r30
    51f0:	1f 0b       	sbc	r17, r31
    51f2:	09 c0       	rjmp	.+18     	; 0x5206 <my_background_draw+0xc0>
	else img -= y*width;
    51f4:	ee 9e       	mul	r14, r30
    51f6:	c0 01       	movw	r24, r0
    51f8:	ef 9e       	mul	r14, r31
    51fa:	90 0d       	add	r25, r0
    51fc:	fe 9e       	mul	r15, r30
    51fe:	90 0d       	add	r25, r0
    5200:	11 24       	eor	r1, r1
    5202:	c8 1b       	sub	r28, r24
    5204:	d9 0b       	sbc	r29, r25
	if(tmp <= 0) return 3;
    5206:	10 16       	cp	r1, r16
    5208:	11 06       	cpc	r1, r17
    520a:	14 f0       	brlt	.+4      	; 0x5210 <my_background_draw+0xca>
    520c:	83 e0       	ldi	r24, 0x03	; 3
    520e:	46 c0       	rjmp	.+140    	; 0x529c <my_background_draw+0x156>


static unsigned char ff=0;
ff++;
    5210:	80 91 08 01 	lds	r24, 0x0108
    5214:	8f 5f       	subi	r24, 0xFF	; 255
    5216:	80 93 08 01 	sts	0x0108, r24

		{
                  	register unsigned char tile = pgm_read_byte(imgptr++);
			if(tile >= 0x4B && tile <= 0x4E)
			{
                 	 tile += (ff/4)%4;
    521a:	f8 2e       	mov	r15, r24
    521c:	f6 94       	lsr	r15
    521e:	f6 94       	lsr	r15
    5220:	73 e0       	ldi	r23, 0x03	; 3
    5222:	f7 22       	and	r15, r23
    5224:	82 2f       	mov	r24, r18
    5226:	81 50       	subi	r24, 0x01	; 1
    5228:	6a 01       	movw	r12, r20
    522a:	c8 0e       	add	r12, r24
    522c:	d1 1c       	adc	r13, r1
    522e:	ba 01       	movw	r22, r20
  		}

		scraddr += DRIVER_COLUMNS;
		img += width;
	}
	while(--wy);
    5230:	90 2f       	mov	r25, r16
    5232:	91 50       	subi	r25, 0x01	; 1
    5234:	86 e1       	ldi	r24, 0x16	; 22
    5236:	98 9f       	mul	r25, r24
    5238:	80 01       	movw	r16, r0
    523a:	11 24       	eor	r1, r1
    523c:	04 0f       	add	r16, r20
    523e:	15 1f       	adc	r17, r21




unsigned char my_background_draw(signed char x, signed char y, PGM_P img, uint8_t width, uint8_t height)
{
    5240:	ab 2c       	mov	r10, r11
    5242:	bb 24       	eor	r11, r11

		{
                  	register unsigned char tile = pgm_read_byte(imgptr++);
			if(tile >= 0x4B && tile <= 0x4E)
			{
                 	 tile += (ff/4)%4;
    5244:	ae 01       	movw	r20, r28
    5246:	db 01       	movw	r26, r22
    5248:	fa 01       	movw	r30, r20
		register unsigned char tmp1;
		for(tmp1=wx;tmp1;tmp1--)
		//*scrptr++ = pgm_read_byte(imgptr++);

		{
                  	register unsigned char tile = pgm_read_byte(imgptr++);
    524a:	4f 5f       	subi	r20, 0xFF	; 255
    524c:	5f 4f       	sbci	r21, 0xFF	; 255
    524e:	34 91       	lpm	r19, Z+
			if(tile >= 0x4B && tile <= 0x4E)
    5250:	83 2f       	mov	r24, r19
    5252:	8b 54       	subi	r24, 0x4B	; 75
    5254:	84 30       	cpi	r24, 0x04	; 4
    5256:	20 f4       	brcc	.+8      	; 0x5260 <my_background_draw+0x11a>
			{
                 	 tile += (ff/4)%4;
    5258:	3f 0d       	add	r19, r15
                 	 if(tile>0x4E) tile-=4;
    525a:	3f 34       	cpi	r19, 0x4F	; 79
    525c:	08 f0       	brcs	.+2      	; 0x5260 <my_background_draw+0x11a>
    525e:	34 50       	subi	r19, 0x04	; 4
   			}
			if(tile >= 0x65 && tile <= 0x69)
    5260:	83 2f       	mov	r24, r19
    5262:	85 56       	subi	r24, 0x65	; 101
    5264:	85 30       	cpi	r24, 0x05	; 5
    5266:	20 f4       	brcc	.+8      	; 0x5270 <my_background_draw+0x12a>
			{
                 	 tile += (ff/4)%4;
    5268:	3f 0d       	add	r19, r15
                 	 if(tile>0x69) tile-=4;
    526a:	3a 36       	cpi	r19, 0x6A	; 106
    526c:	08 f0       	brcs	.+2      	; 0x5270 <my_background_draw+0x12a>
    526e:	34 50       	subi	r19, 0x04	; 4
   			}

   			*scrptr++=tile;
    5270:	3c 93       	st	X, r19
	do
	{
		PGM_P imgptr = img;
		register unsigned char *scrptr = scraddr;
		register unsigned char tmp1;
		for(tmp1=wx;tmp1;tmp1--)
    5272:	ac 15       	cp	r26, r12
    5274:	bd 05       	cpc	r27, r13
    5276:	11 f0       	breq	.+4      	; 0x527c <my_background_draw+0x136>
			{
                 	 tile += (ff/4)%4;
                 	 if(tile>0x69) tile-=4;
   			}

   			*scrptr++=tile;
    5278:	11 96       	adiw	r26, 0x01	; 1
    527a:	e6 cf       	rjmp	.-52     	; 0x5248 <my_background_draw+0x102>
    527c:	86 e1       	ldi	r24, 0x16	; 22
    527e:	c8 2e       	mov	r12, r24
    5280:	d1 2c       	mov	r13, r1
    5282:	ca 0e       	add	r12, r26
    5284:	db 1e       	adc	r13, r27
  		}

		scraddr += DRIVER_COLUMNS;
		img += width;
	}
	while(--wy);
    5286:	60 17       	cp	r22, r16
    5288:	71 07       	cpc	r23, r17
    528a:	11 f4       	brne	.+4      	; 0x5290 <my_background_draw+0x14a>
    528c:	80 e0       	ldi	r24, 0x00	; 0
    528e:	06 c0       	rjmp	.+12     	; 0x529c <my_background_draw+0x156>
   			}

   			*scrptr++=tile;
  		}

		scraddr += DRIVER_COLUMNS;
    5290:	6a 5e       	subi	r22, 0xEA	; 234
    5292:	7f 4f       	sbci	r23, 0xFF	; 255




unsigned char my_background_draw(signed char x, signed char y, PGM_P img, uint8_t width, uint8_t height)
{
    5294:	ca 0d       	add	r28, r10
    5296:	db 1d       	adc	r29, r11
    5298:	d5 cf       	rjmp	.-86     	; 0x5244 <my_background_draw+0xfe>
    529a:	82 e0       	ldi	r24, 0x02	; 2
		img += width;
	}
	while(--wy);

	return 0;
}
    529c:	df 91       	pop	r29
    529e:	cf 91       	pop	r28
    52a0:	1f 91       	pop	r17
    52a2:	0f 91       	pop	r16
    52a4:	ff 90       	pop	r15
    52a6:	ef 90       	pop	r14
    52a8:	df 90       	pop	r13
    52aa:	cf 90       	pop	r12
    52ac:	bf 90       	pop	r11
    52ae:	af 90       	pop	r10
    52b0:	08 95       	ret

000052b2 <main>:

extern unsigned int c0;


int main( void )
{
    52b2:	2f 92       	push	r2
    52b4:	3f 92       	push	r3
    52b6:	4f 92       	push	r4
    52b8:	5f 92       	push	r5
    52ba:	6f 92       	push	r6
    52bc:	7f 92       	push	r7
    52be:	8f 92       	push	r8
    52c0:	9f 92       	push	r9
    52c2:	af 92       	push	r10
    52c4:	bf 92       	push	r11
    52c6:	cf 92       	push	r12
    52c8:	df 92       	push	r13
    52ca:	ef 92       	push	r14
    52cc:	ff 92       	push	r15
    52ce:	0f 93       	push	r16
    52d0:	1f 93       	push	r17
    52d2:	df 93       	push	r29
    52d4:	cf 93       	push	r28
    52d6:	cd b7       	in	r28, 0x3d	; 61
    52d8:	de b7       	in	r29, 0x3e	; 62
    52da:	a8 97       	sbiw	r28, 0x28	; 40
    52dc:	0f b6       	in	r0, 0x3f	; 63
    52de:	f8 94       	cli
    52e0:	de bf       	out	0x3e, r29	; 62
    52e2:	0f be       	out	0x3f, r0	; 63
    52e4:	cd bf       	out	0x3d, r28	; 61
	//map memory for video driver
	driver_mmap(screen, pgmmap, rammap);
    52e6:	8b e7       	ldi	r24, 0x7B	; 123
    52e8:	94 e0       	ldi	r25, 0x04	; 4
    52ea:	90 93 c6 03 	sts	0x03C6, r25
    52ee:	80 93 c5 03 	sts	0x03C5, r24
    52f2:	83 e7       	ldi	r24, 0x73	; 115
    52f4:	91 e0       	ldi	r25, 0x01	; 1
    52f6:	90 93 72 01 	sts	0x0172, r25
    52fa:	80 93 71 01 	sts	0x0171, r24
    52fe:	8f ec       	ldi	r24, 0xCF	; 207
    5300:	93 e0       	ldi	r25, 0x03	; 3
    5302:	90 93 ca 03 	sts	0x03CA, r25
    5306:	80 93 c9 03 	sts	0x03C9, r24
    530a:	8f e2       	ldi	r24, 0x2F	; 47
    530c:	97 ee       	ldi	r25, 0xE7	; 231
    530e:	90 93 10 07 	sts	0x0710, r25
    5312:	80 93 0f 07 	sts	0x070F, r24

	//initialization
	sound_init();
    5316:	0e 94 a7 32 	call	0x654e	; 0x654e <sound_init>
	video_init(VGA2);
    531a:	88 e7       	ldi	r24, 0x78	; 120
    531c:	97 e3       	ldi	r25, 0x37	; 55
    531e:	0e 94 05 33 	call	0x660a	; 0x660a <video_init>
	//input_init();

	enable(); 			//start engine.
    5322:	78 94       	sei
    5324:	02 e3       	ldi	r16, 0x32	; 50
    5326:	10 e0       	ldi	r17, 0x00	; 0
    5328:	02 c0       	rjmp	.+4      	; 0x532e <main+0x7c>
	


	wait_seconds(1); 	//wait for display to sync.
    532a:	0e 94 eb 32 	call	0x65d6	; 0x65d6 <video_sync>
    532e:	01 50       	subi	r16, 0x01	; 1
    5330:	10 40       	sbci	r17, 0x00	; 0
    5332:	d9 f7       	brne	.-10     	; 0x532a <main+0x78>

	sync();
    5334:	0e 94 eb 32 	call	0x65d6	; 0x65d6 <video_sync>
	sync();
    5338:	0e 94 eb 32 	call	0x65d6	; 0x65d6 <video_sync>
//	sound_play(music1);
	//sound_stop();

	keyboard_init(onKbEvent);
    533c:	8e ed       	ldi	r24, 0xDE	; 222
    533e:	9e e2       	ldi	r25, 0x2E	; 46
    5340:	0e 94 83 36 	call	0x6d06	; 0x6d06 <keyboard_init>



	console_init_stdio();
    5344:	0e 94 38 30 	call	0x6070	; 0x6070 <console_init_stdio>

	SD_Init();
    5348:	0e 94 fd 36 	call	0x6dfa	; 0x6dfa <SD_Init>


        unsigned char res = SD_Reset();
    534c:	0e 94 a1 37 	call	0x6f42	; 0x6f42 <SD_Reset>
	printf_P(PSTR("\nSD Reset: %d\n\n"), res);
    5350:	00 d0       	rcall	.+0      	; 0x5352 <main+0xa0>
    5352:	00 d0       	rcall	.+0      	; 0x5354 <main+0xa2>
    5354:	ed b7       	in	r30, 0x3d	; 61
    5356:	fe b7       	in	r31, 0x3e	; 62
    5358:	31 96       	adiw	r30, 0x01	; 1
    535a:	28 e6       	ldi	r18, 0x68	; 104
    535c:	37 e3       	ldi	r19, 0x37	; 55
    535e:	ad b7       	in	r26, 0x3d	; 61
    5360:	be b7       	in	r27, 0x3e	; 62
    5362:	12 96       	adiw	r26, 0x02	; 2
    5364:	3c 93       	st	X, r19
    5366:	2e 93       	st	-X, r18
    5368:	11 97       	sbiw	r26, 0x01	; 1
    536a:	82 83       	std	Z+2, r24	; 0x02
    536c:	13 82       	std	Z+3, r1	; 0x03
    536e:	0e 94 51 39 	call	0x72a2	; 0x72a2 <printf_P>
    5372:	02 e3       	ldi	r16, 0x32	; 50
    5374:	10 e0       	ldi	r17, 0x00	; 0
    5376:	0f 90       	pop	r0
    5378:	0f 90       	pop	r0
    537a:	0f 90       	pop	r0
    537c:	0f 90       	pop	r0
    537e:	02 c0       	rjmp	.+4      	; 0x5384 <main+0xd2>
	wait_seconds(1);
    5380:	0e 94 eb 32 	call	0x65d6	; 0x65d6 <video_sync>
    5384:	01 50       	subi	r16, 0x01	; 1
    5386:	10 40       	sbci	r17, 0x00	; 0
    5388:	d9 f7       	brne	.-10     	; 0x5380 <main+0xce>



//while(TCNT1 < 100);

	driver_fill(0);
    538a:	e0 91 71 01 	lds	r30, 0x0171
    538e:	f0 91 72 01 	lds	r31, 0x0172
    5392:	82 e5       	ldi	r24, 0x52	; 82
    5394:	92 e0       	ldi	r25, 0x02	; 2
    5396:	df 01       	movw	r26, r30
    5398:	9c 01       	movw	r18, r24
    539a:	1d 92       	st	X+, r1
    539c:	21 50       	subi	r18, 0x01	; 1
    539e:	30 40       	sbci	r19, 0x00	; 0
    53a0:	e1 f7       	brne	.-8      	; 0x539a <main+0xe8>
    53a2:	02 e3       	ldi	r16, 0x32	; 50
    53a4:	10 e0       	ldi	r17, 0x00	; 0
    53a6:	02 c0       	rjmp	.+4      	; 0x53ac <main+0xfa>
	wait_seconds(1);
    53a8:	0e 94 eb 32 	call	0x65d6	; 0x65d6 <video_sync>
    53ac:	01 50       	subi	r16, 0x01	; 1
    53ae:	10 40       	sbci	r17, 0x00	; 0
    53b0:	d9 f7       	brne	.-10     	; 0x53a8 <main+0xf6>
    53b2:	a0 91 71 01 	lds	r26, 0x0171
    53b6:	b0 91 72 01 	lds	r27, 0x0172
	driver_print_C(3, 1,  "RetroWiz DEMO");
    53ba:	8a e5       	ldi	r24, 0x5A	; 90
    53bc:	97 e3       	ldi	r25, 0x37	; 55
    53be:	fc 01       	movw	r30, r24

static inline void strdump_P(unsigned char* dest, PGM_P src)
{
	while(1)
	{
		char c = pgm_read_byte(src++);
    53c0:	01 96       	adiw	r24, 0x01	; 1
    53c2:	24 91       	lpm	r18, Z+
    53c4:	11 96       	adiw	r26, 0x01	; 1
		if(!c) break;
    53c6:	22 23       	and	r18, r18
    53c8:	21 f0       	breq	.+8      	; 0x53d2 <main+0x120>
		*dest++ = c;
    53ca:	58 96       	adiw	r26, 0x18	; 24
    53cc:	2c 93       	st	X, r18
    53ce:	58 97       	sbiw	r26, 0x18	; 24
    53d0:	f6 cf       	rjmp	.-20     	; 0x53be <main+0x10c>
	driver_print_C(2, 4,  "Commander KEEN 4");
    53d2:	a0 91 71 01 	lds	r26, 0x0171
    53d6:	b0 91 72 01 	lds	r27, 0x0172
    53da:	a6 5a       	subi	r26, 0xA6	; 166
    53dc:	bf 4f       	sbci	r27, 0xFF	; 255
    53de:	89 e4       	ldi	r24, 0x49	; 73
    53e0:	97 e3       	ldi	r25, 0x37	; 55
    53e2:	fc 01       	movw	r30, r24

static inline void strdump_P(unsigned char* dest, PGM_P src)
{
	while(1)
	{
		char c = pgm_read_byte(src++);
    53e4:	01 96       	adiw	r24, 0x01	; 1
    53e6:	24 91       	lpm	r18, Z+
		if(!c) break;
    53e8:	22 23       	and	r18, r18
    53ea:	11 f0       	breq	.+4      	; 0x53f0 <main+0x13e>
		*dest++ = c;
    53ec:	2d 93       	st	X+, r18
    53ee:	f9 cf       	rjmp	.-14     	; 0x53e2 <main+0x130>
	driver_print_C(2, 6,  "==============");
    53f0:	a0 91 71 01 	lds	r26, 0x0171
    53f4:	b0 91 72 01 	lds	r27, 0x0172
    53f8:	aa 57       	subi	r26, 0x7A	; 122
    53fa:	bf 4f       	sbci	r27, 0xFF	; 255
    53fc:	8a e3       	ldi	r24, 0x3A	; 58
    53fe:	97 e3       	ldi	r25, 0x37	; 55
    5400:	fc 01       	movw	r30, r24

static inline void strdump_P(unsigned char* dest, PGM_P src)
{
	while(1)
	{
		char c = pgm_read_byte(src++);
    5402:	01 96       	adiw	r24, 0x01	; 1
    5404:	24 91       	lpm	r18, Z+
		if(!c) break;
    5406:	22 23       	and	r18, r18
    5408:	11 f0       	breq	.+4      	; 0x540e <main+0x15c>
		*dest++ = c;
    540a:	2d 93       	st	X+, r18
    540c:	f9 cf       	rjmp	.-14     	; 0x5400 <main+0x14e>
	driver_print_C(2, 8,  "(AlphaVersion)");
    540e:	a0 91 71 01 	lds	r26, 0x0171
    5412:	b0 91 72 01 	lds	r27, 0x0172
    5416:	ae 54       	subi	r26, 0x4E	; 78
    5418:	bf 4f       	sbci	r27, 0xFF	; 255
    541a:	8b e2       	ldi	r24, 0x2B	; 43
    541c:	97 e3       	ldi	r25, 0x37	; 55
    541e:	fc 01       	movw	r30, r24

static inline void strdump_P(unsigned char* dest, PGM_P src)
{
	while(1)
	{
		char c = pgm_read_byte(src++);
    5420:	01 96       	adiw	r24, 0x01	; 1
    5422:	24 91       	lpm	r18, Z+
		if(!c) break;
    5424:	22 23       	and	r18, r18
    5426:	11 f0       	breq	.+4      	; 0x542c <main+0x17a>
		*dest++ = c;
    5428:	2d 93       	st	X+, r18
    542a:	f9 cf       	rjmp	.-14     	; 0x541e <main+0x16c>
	driver_print_C(3, 16, "PRESS ANY KEY");
    542c:	a0 91 71 01 	lds	r26, 0x0171
    5430:	b0 91 72 01 	lds	r27, 0x0172
    5434:	ad 59       	subi	r26, 0x9D	; 157
    5436:	be 4f       	sbci	r27, 0xFE	; 254
    5438:	8d e1       	ldi	r24, 0x1D	; 29
    543a:	97 e3       	ldi	r25, 0x37	; 55
    543c:	fc 01       	movw	r30, r24

static inline void strdump_P(unsigned char* dest, PGM_P src)
{
	while(1)
	{
		char c = pgm_read_byte(src++);
    543e:	01 96       	adiw	r24, 0x01	; 1
    5440:	24 91       	lpm	r18, Z+
		if(!c) break;
    5442:	22 23       	and	r18, r18
    5444:	19 f4       	brne	.+6      	; 0x544c <main+0x19a>
    5446:	04 e6       	ldi	r16, 0x64	; 100
    5448:	10 e0       	ldi	r17, 0x00	; 0
    544a:	04 c0       	rjmp	.+8      	; 0x5454 <main+0x1a2>
		*dest++ = c;
    544c:	2d 93       	st	X+, r18
    544e:	f6 cf       	rjmp	.-20     	; 0x543c <main+0x18a>
	wait_seconds(2);
    5450:	0e 94 eb 32 	call	0x65d6	; 0x65d6 <video_sync>
    5454:	01 50       	subi	r16, 0x01	; 1
    5456:	10 40       	sbci	r17, 0x00	; 0
    5458:	d9 f7       	brne	.-10     	; 0x5450 <main+0x19e>
	signed char dy1=1,dy2=-1,dxs=1,dys=1;




	driver_fill(128);
    545a:	80 91 71 01 	lds	r24, 0x0171
    545e:	90 91 72 01 	lds	r25, 0x0172
    5462:	60 e8       	ldi	r22, 0x80	; 128
    5464:	70 e0       	ldi	r23, 0x00	; 0
    5466:	42 e5       	ldi	r20, 0x52	; 82
    5468:	52 e0       	ldi	r21, 0x02	; 2
    546a:	0e 94 dd 38 	call	0x71ba	; 0x71ba <memset>
	WINDOW wnd0 = window_add_standard(0, 2);
    546e:	80 e0       	ldi	r24, 0x00	; 0
    5470:	60 e1       	ldi	r22, 0x10	; 16
    5472:	48 ef       	ldi	r20, 0xF8	; 248
    5474:	0e 94 ef 35 	call	0x6bde	; 0x6bde <window_add>
    5478:	98 a3       	std	Y+32, r25	; 0x20
    547a:	8f 8f       	std	Y+31, r24	; 0x1f
	WINDOW wnd1 = window_add_standard(3, DRIVER_HEIGHT-5);
    547c:	88 e1       	ldi	r24, 0x18	; 24
    547e:	60 ea       	ldi	r22, 0xA0	; 160
    5480:	48 ef       	ldi	r20, 0xF8	; 248
    5482:	0e 94 ef 35 	call	0x6bde	; 0x6bde <window_add>
    5486:	9e 8f       	std	Y+30, r25	; 0x1e
    5488:	8d 8f       	std	Y+29, r24	; 0x1d
	wnd2 = window_add_standard(DRIVER_HEIGHT-1, 3); //leave one row for scroll.
    548a:	80 ec       	ldi	r24, 0xC0	; 192
    548c:	68 e1       	ldi	r22, 0x18	; 24
    548e:	48 ef       	ldi	r20, 0xF8	; 248
    5490:	0e 94 ef 35 	call	0x6bde	; 0x6bde <window_add>
    5494:	fc 01       	movw	r30, r24
    5496:	90 93 70 01 	sts	0x0170, r25
    549a:	80 93 6f 01 	sts	0x016F, r24

	//set keen level tileset
	awindow_set_tileset(wnd1, map1_tileset);
    549e:	8b e9       	ldi	r24, 0x9B	; 155
    54a0:	94 e1       	ldi	r25, 0x14	; 20
    54a2:	ad 8d       	ldd	r26, Y+29	; 0x1d
    54a4:	be 8d       	ldd	r27, Y+30	; 0x1e
    54a6:	14 96       	adiw	r26, 0x04	; 4
    54a8:	9c 93       	st	X, r25
    54aa:	8e 93       	st	-X, r24
    54ac:	13 97       	sbiw	r26, 0x03	; 3

	window_select(wnd2);
    54ae:	f0 93 cd 03 	sts	0x03CD, r31
    54b2:	e0 93 cc 03 	sts	0x03CC, r30
    54b6:	80 81       	ld	r24, Z
    54b8:	86 95       	lsr	r24
    54ba:	86 95       	lsr	r24
    54bc:	86 95       	lsr	r24
    54be:	26 e1       	ldi	r18, 0x16	; 22
    54c0:	82 9f       	mul	r24, r18
    54c2:	c0 01       	movw	r24, r0
    54c4:	11 24       	eor	r1, r1
    54c6:	e0 91 71 01 	lds	r30, 0x0171
    54ca:	f0 91 72 01 	lds	r31, 0x0172
    54ce:	e8 0f       	add	r30, r24
    54d0:	f9 1f       	adc	r31, r25
    54d2:	f0 93 c8 03 	sts	0x03C8, r31
    54d6:	e0 93 c7 03 	sts	0x03C7, r30

static void DrawFrame(unsigned char x, unsigned char y, unsigned char width, unsigned char height, unsigned char frame)
{
	unsigned char i;

	window_set_block(x++, y, frame++);
    54da:	88 e1       	ldi	r24, 0x18	; 24
    54dc:	80 83       	st	Z, r24
    54de:	81 e0       	ldi	r24, 0x01	; 1
    54e0:	90 e0       	ldi	r25, 0x00	; 0
	for(i=width; i;i--) window_set_block(x++, y, frame); frame++;
    54e2:	29 e1       	ldi	r18, 0x19	; 25
    54e4:	e0 91 c7 03 	lds	r30, 0x03C7
    54e8:	f0 91 c8 03 	lds	r31, 0x03C8
    54ec:	e8 0f       	add	r30, r24
    54ee:	f9 1f       	adc	r31, r25
    54f0:	20 83       	st	Z, r18
    54f2:	01 96       	adiw	r24, 0x01	; 1
    54f4:	84 31       	cpi	r24, 0x14	; 20
    54f6:	91 05       	cpc	r25, r1
    54f8:	a9 f7       	brne	.-22     	; 0x54e4 <main+0x232>
	window_set_block(x, y++, frame++);
    54fa:	e0 91 c7 03 	lds	r30, 0x03C7
    54fe:	f0 91 c8 03 	lds	r31, 0x03C8
    5502:	8a e1       	ldi	r24, 0x1A	; 26
    5504:	84 8b       	std	Z+20, r24	; 0x14
	for(i=height;i;i--) window_set_block(x, y++, frame); frame++;
    5506:	e0 91 c7 03 	lds	r30, 0x03C7
    550a:	f0 91 c8 03 	lds	r31, 0x03C8
    550e:	8b e1       	ldi	r24, 0x1B	; 27
    5510:	82 a7       	std	Z+42, r24	; 0x2a
	window_set_block(x--, y, frame++);
    5512:	e0 91 c7 03 	lds	r30, 0x03C7
    5516:	f0 91 c8 03 	lds	r31, 0x03C8
    551a:	e0 5c       	subi	r30, 0xC0	; 192
    551c:	ff 4f       	sbci	r31, 0xFF	; 255
    551e:	8c e1       	ldi	r24, 0x1C	; 28
    5520:	80 83       	st	Z, r24
    5522:	8f e3       	ldi	r24, 0x3F	; 63
    5524:	90 e0       	ldi	r25, 0x00	; 0
	for(i=width; i;i--) window_set_block(x--, y, frame); frame++;
    5526:	2d e1       	ldi	r18, 0x1D	; 29
    5528:	e0 91 c7 03 	lds	r30, 0x03C7
    552c:	f0 91 c8 03 	lds	r31, 0x03C8
    5530:	e8 0f       	add	r30, r24
    5532:	f9 1f       	adc	r31, r25
    5534:	20 83       	st	Z, r18
    5536:	01 97       	sbiw	r24, 0x01	; 1
    5538:	8c 32       	cpi	r24, 0x2C	; 44
    553a:	91 05       	cpc	r25, r1
    553c:	a9 f7       	brne	.-22     	; 0x5528 <main+0x276>
	window_set_block(x, y--, frame++);
    553e:	e0 91 c7 03 	lds	r30, 0x03C7
    5542:	f0 91 c8 03 	lds	r31, 0x03C8
    5546:	8e e1       	ldi	r24, 0x1E	; 30
    5548:	84 a7       	std	Z+44, r24	; 0x2c
	for(i=height;i;i--) window_set_block(x, y--, frame); frame++;
    554a:	e0 91 c7 03 	lds	r30, 0x03C7
    554e:	f0 91 c8 03 	lds	r31, 0x03C8
    5552:	8f e1       	ldi	r24, 0x1F	; 31
    5554:	86 8b       	std	Z+22, r24	; 0x16
    5556:	b9 e1       	ldi	r27, 0x19	; 25
    5558:	b8 a7       	std	Y+40, r27	; 0x28
    555a:	bf a3       	std	Y+39, r27	; 0x27
    555c:	e2 e3       	ldi	r30, 0x32	; 50
    555e:	ee a3       	std	Y+38, r30	; 0x26
    5560:	ed a3       	std	Y+37, r30	; 0x25
    5562:	f1 e0       	ldi	r31, 0x01	; 1
    5564:	fc a3       	std	Y+36, r31	; 0x24
    5566:	2f ef       	ldi	r18, 0xFF	; 255
    5568:	2b a3       	std	Y+35, r18	; 0x23
    556a:	fa a3       	std	Y+34, r31	; 0x22
    556c:	f9 a3       	std	Y+33, r31	; 0x21
    556e:	1c 8e       	std	Y+28, r1	; 0x1c
    5570:	1b 8e       	std	Y+27, r1	; 0x1b
    5572:	fa 8f       	std	Y+26, r31	; 0x1a
    5574:	f9 8f       	std	Y+25, r31	; 0x19
    5576:	18 8e       	std	Y+24, r1	; 0x18
    5578:	1f 8a       	std	Y+23, r1	; 0x17
    557a:	fe 8b       	std	Y+22, r31	; 0x16
    557c:	1b 8a       	std	Y+19, r1	; 0x13
    557e:	1a 8a       	std	Y+18, r1	; 0x12
    5580:	54 e6       	ldi	r21, 0x64	; 100
    5582:	25 2e       	mov	r2, r21
    5584:	31 2c       	mov	r3, r1
    5586:	44 e6       	ldi	r20, 0x64	; 100
    5588:	44 2e       	mov	r4, r20
    558a:	51 2c       	mov	r5, r1
    558c:	19 8a       	std	Y+17, r1	; 0x11
    558e:	18 8a       	std	Y+16, r1	; 0x10
    5590:	1f 86       	std	Y+15, r1	; 0x0f
    5592:	1e 86       	std	Y+14, r1	; 0x0e
    5594:	4b e9       	ldi	r20, 0x9B	; 155
    5596:	52 e3       	ldi	r21, 0x32	; 50
    5598:	5d 87       	std	Y+13, r21	; 0x0d
    559a:	4c 87       	std	Y+12, r20	; 0x0c
    559c:	88 ea       	ldi	r24, 0xA8	; 168
    559e:	90 e0       	ldi	r25, 0x00	; 0
    55a0:	9b 87       	std	Y+11, r25	; 0x0b
    55a2:	8a 87       	std	Y+10, r24	; 0x0a
    55a4:	19 86       	std	Y+9, r1	; 0x09
    55a6:	f8 87       	std	Y+8, r31	; 0x08
    55a8:	1f 82       	std	Y+7, r1	; 0x07
	int xxx=DRIVER_WIDTH*8;
	char yyy=0,dyy=1;
	unsigned char ccc=0;
	while(1)
	{
		window_select(wnd0);
    55aa:	af 8d       	ldd	r26, Y+31	; 0x1f
    55ac:	b8 a1       	ldd	r27, Y+32	; 0x20
    55ae:	b0 93 cd 03 	sts	0x03CD, r27
    55b2:	a0 93 cc 03 	sts	0x03CC, r26
    55b6:	2c 91       	ld	r18, X
    55b8:	26 95       	lsr	r18
    55ba:	26 95       	lsr	r18
    55bc:	26 95       	lsr	r18
    55be:	b6 e1       	ldi	r27, 0x16	; 22
    55c0:	2b 9f       	mul	r18, r27
    55c2:	90 01       	movw	r18, r0
    55c4:	11 24       	eor	r1, r1
    55c6:	80 91 71 01 	lds	r24, 0x0171
    55ca:	90 91 72 01 	lds	r25, 0x0172
    55ce:	82 0f       	add	r24, r18
    55d0:	93 1f       	adc	r25, r19
    55d2:	90 93 c8 03 	sts	0x03C8, r25
    55d6:	80 93 c7 03 	sts	0x03C7, r24



static unsigned char mapDraw(signed int x, signed int y, PGM_P map, unsigned char width, unsigned char height)
{
    	x+=7;
    55da:	ea 84       	ldd	r14, Y+10	; 0x0a
    55dc:	fb 84       	ldd	r15, Y+11	; 0x0b
    55de:	f5 94       	asr	r15
    55e0:	e7 94       	ror	r14
    55e2:	f5 94       	asr	r15
    55e4:	e7 94       	ror	r14
    55e6:	e7 e0       	ldi	r30, 0x07	; 7
    55e8:	f0 e0       	ldi	r31, 0x00	; 0
    55ea:	ee 0e       	add	r14, r30
    55ec:	ff 1e       	adc	r15, r31
	y+=7;
    55ee:	f9 85       	ldd	r31, Y+9	; 0x09
    55f0:	0f 2f       	mov	r16, r31
    55f2:	10 e0       	ldi	r17, 0x00	; 0
    55f4:	09 5f       	subi	r16, 0xF9	; 249
    55f6:	1f 4f       	sbci	r17, 0xFF	; 255

	window_adjust_for_background(x, y); 	//adjust window
    55f8:	6e 2d       	mov	r22, r14
    55fa:	60 95       	com	r22
    55fc:	40 2f       	mov	r20, r16
    55fe:	40 95       	com	r20
    5600:	8f 8d       	ldd	r24, Y+31	; 0x1f
    5602:	98 a1       	ldd	r25, Y+32	; 0x20
    5604:	0e 94 5e 36 	call	0x6cbc	; 0x6cbc <awindow_set_scroll>
	x>>=3;
    5608:	23 e0       	ldi	r18, 0x03	; 3
    560a:	f5 94       	asr	r15
    560c:	e7 94       	ror	r14
    560e:	2a 95       	dec	r18
    5610:	e1 f7       	brne	.-8      	; 0x560a <main+0x358>
	y>>=3;
    5612:	93 e0       	ldi	r25, 0x03	; 3
    5614:	15 95       	asr	r17
    5616:	07 95       	ror	r16
    5618:	9a 95       	dec	r25
    561a:	e1 f7       	brne	.-8      	; 0x5614 <main+0x362>

	static signed char lasttmpx, lasttmpy;
	if(x == lasttmpx && y == lasttmpy) return 0; //no need to redraw!
    561c:	80 91 0b 01 	lds	r24, 0x010B
    5620:	99 27       	eor	r25, r25
    5622:	87 fd       	sbrc	r24, 7
    5624:	90 95       	com	r25
    5626:	e8 16       	cp	r14, r24
    5628:	f9 06       	cpc	r15, r25
    562a:	41 f4       	brne	.+16     	; 0x563c <main+0x38a>
    562c:	80 91 0a 01 	lds	r24, 0x010A
    5630:	99 27       	eor	r25, r25
    5632:	87 fd       	sbrc	r24, 7
    5634:	90 95       	com	r25
    5636:	08 17       	cp	r16, r24
    5638:	19 07       	cpc	r17, r25
    563a:	61 f1       	breq	.+88     	; 0x5694 <main+0x3e2>
	lasttmpx=x;
    563c:	e0 92 0b 01 	sts	0x010B, r14
	lasttmpy=y;
    5640:	00 93 0a 01 	sts	0x010A, r16

	//now draw game map and everything attached to it.
	window_fill_scroll(128);
    5644:	e0 91 cc 03 	lds	r30, 0x03CC
    5648:	f0 91 cd 03 	lds	r31, 0x03CD
    564c:	81 81       	ldd	r24, Z+1	; 0x01
    564e:	86 95       	lsr	r24
    5650:	86 95       	lsr	r24
    5652:	86 95       	lsr	r24
    5654:	90 e0       	ldi	r25, 0x00	; 0
    5656:	01 96       	adiw	r24, 0x01	; 1
    5658:	46 e1       	ldi	r20, 0x16	; 22
    565a:	50 e0       	ldi	r21, 0x00	; 0
    565c:	84 9f       	mul	r24, r20
    565e:	90 01       	movw	r18, r0
    5660:	85 9f       	mul	r24, r21
    5662:	30 0d       	add	r19, r0
    5664:	94 9f       	mul	r25, r20
    5666:	30 0d       	add	r19, r0
    5668:	11 24       	eor	r1, r1
    566a:	80 91 c7 03 	lds	r24, 0x03C7
    566e:	90 91 c8 03 	lds	r25, 0x03C8
    5672:	60 e8       	ldi	r22, 0x80	; 128
    5674:	70 e0       	ldi	r23, 0x00	; 0
    5676:	a9 01       	movw	r20, r18
    5678:	0e 94 dd 38 	call	0x71ba	; 0x71ba <memset>
	char yyy=0,dyy=1;
	unsigned char ccc=0;
	while(1)
	{
		window_select(wnd0);
		mapDraw( xxx>>2, yyy, text1, strlen_P(text1), 1 );
    567c:	8f ef       	ldi	r24, 0xFF	; 255
    567e:	93 e0       	ldi	r25, 0x03	; 3
    5680:	0e 94 d4 38 	call	0x71a8	; 0x71a8 <strlen_P>
    5684:	28 2f       	mov	r18, r24
	lasttmpy=y;

	//now draw game map and everything attached to it.
	window_fill_scroll(128);

	background_draw( x, y, map, width, height );
    5686:	8e 2d       	mov	r24, r14
    5688:	60 2f       	mov	r22, r16
    568a:	4f ef       	ldi	r20, 0xFF	; 255
    568c:	53 e0       	ldi	r21, 0x03	; 3
    568e:	01 e0       	ldi	r16, 0x01	; 1
    5690:	0e 94 20 2f 	call	0x5e40	; 0x5e40 <background_draw>
	while(1)
	{
		window_select(wnd0);
		mapDraw( xxx>>2, yyy, text1, strlen_P(text1), 1 );

		if(++ttttt>8)
    5694:	5b 8d       	ldd	r21, Y+27	; 0x1b
    5696:	5f 5f       	subi	r21, 0xFF	; 255
    5698:	5b 8f       	std	Y+27, r21	; 0x1b
    569a:	59 30       	cpi	r21, 0x09	; 9
    569c:	58 f0       	brcs	.+22     	; 0x56b4 <main+0x402>
		{
			ttttt=0;
			yyy+=dyy; if((yyy>=7)||(yyy<=0)) dyy=-dyy;
    569e:	89 85       	ldd	r24, Y+9	; 0x09
    56a0:	98 85       	ldd	r25, Y+8	; 0x08
    56a2:	89 0f       	add	r24, r25
    56a4:	89 87       	std	Y+9, r24	; 0x09
    56a6:	81 50       	subi	r24, 0x01	; 1
    56a8:	86 30       	cpi	r24, 0x06	; 6
    56aa:	18 f0       	brcs	.+6      	; 0x56b2 <main+0x400>
    56ac:	a8 85       	ldd	r26, Y+8	; 0x08
    56ae:	a1 95       	neg	r26
    56b0:	a8 87       	std	Y+8, r26	; 0x08
    56b2:	1b 8e       	std	Y+27, r1	; 0x1b
		}

		xxx-=2;
		//if(-xxx > (strlen_P(text1)*8)) xxx=DRIVER_WIDTH*8;

		window_set_colormask((ccc++) | 0x80);
    56b4:	6f 81       	ldd	r22, Y+7	; 0x07
    56b6:	60 68       	ori	r22, 0x80	; 128
    56b8:	80 91 cc 03 	lds	r24, 0x03CC
    56bc:	90 91 cd 03 	lds	r25, 0x03CD
    56c0:	0e 94 57 36 	call	0x6cae	; 0x6cae <awindow_set_colormask>




		//render();
		window_select(wnd1);
    56c4:	ed 8d       	ldd	r30, Y+29	; 0x1d
    56c6:	fe 8d       	ldd	r31, Y+30	; 0x1e
    56c8:	f0 93 cd 03 	sts	0x03CD, r31
    56cc:	e0 93 cc 03 	sts	0x03CC, r30
    56d0:	20 81       	ld	r18, Z
    56d2:	26 95       	lsr	r18
    56d4:	26 95       	lsr	r18
    56d6:	26 95       	lsr	r18
    56d8:	f6 e1       	ldi	r31, 0x16	; 22
    56da:	2f 9f       	mul	r18, r31
    56dc:	90 01       	movw	r18, r0
    56de:	11 24       	eor	r1, r1
    56e0:	80 91 71 01 	lds	r24, 0x0171
    56e4:	90 91 72 01 	lds	r25, 0x0172
    56e8:	82 0f       	add	r24, r18
    56ea:	93 1f       	adc	r25, r19
    56ec:	90 93 c8 03 	sts	0x03C8, r25
    56f0:	80 93 c7 03 	sts	0x03C7, r24



static unsigned char RenderMap(signed int x, signed int y)
{
    	x+=7;
    56f4:	08 89       	ldd	r16, Y+16	; 0x10
    56f6:	19 89       	ldd	r17, Y+17	; 0x11
    56f8:	09 5f       	subi	r16, 0xF9	; 249
    56fa:	1f 4f       	sbci	r17, 0xFF	; 255
	y+=7;
    56fc:	ee 84       	ldd	r14, Y+14	; 0x0e
    56fe:	ff 84       	ldd	r15, Y+15	; 0x0f
    5700:	27 e0       	ldi	r18, 0x07	; 7
    5702:	30 e0       	ldi	r19, 0x00	; 0
    5704:	e2 0e       	add	r14, r18
    5706:	f3 1e       	adc	r15, r19

	window_adjust_for_background(x, y); 	//adjust window
    5708:	60 2f       	mov	r22, r16
    570a:	60 95       	com	r22
    570c:	4e 2d       	mov	r20, r14
    570e:	40 95       	com	r20
    5710:	8d 8d       	ldd	r24, Y+29	; 0x1d
    5712:	9e 8d       	ldd	r25, Y+30	; 0x1e
    5714:	0e 94 5e 36 	call	0x6cbc	; 0x6cbc <awindow_set_scroll>
	x>>=3;
	y>>=3;

	static signed char lasttmpx, lasttmpy;
	//if(x == lasttmpx && y == lasttmpy) return 0; //no need to redraw!
	lasttmpx=x;
    5718:	83 e0       	ldi	r24, 0x03	; 3
    571a:	15 95       	asr	r17
    571c:	07 95       	ror	r16
    571e:	8a 95       	dec	r24
    5720:	e1 f7       	brne	.-8      	; 0x571a <main+0x468>
    5722:	00 93 0d 01 	sts	0x010D, r16
	lasttmpy=y;
    5726:	b3 e0       	ldi	r27, 0x03	; 3
    5728:	f5 94       	asr	r15
    572a:	e7 94       	ror	r14
    572c:	ba 95       	dec	r27
    572e:	e1 f7       	brne	.-8      	; 0x5728 <main+0x476>
    5730:	e0 92 0c 01 	sts	0x010C, r14

	//now draw game map and everything attached to it.
	window_fill_scroll(128);
    5734:	e0 91 cc 03 	lds	r30, 0x03CC
    5738:	f0 91 cd 03 	lds	r31, 0x03CD
    573c:	81 81       	ldd	r24, Z+1	; 0x01
    573e:	86 95       	lsr	r24
    5740:	86 95       	lsr	r24
    5742:	86 95       	lsr	r24
    5744:	90 e0       	ldi	r25, 0x00	; 0
    5746:	01 96       	adiw	r24, 0x01	; 1
    5748:	46 e1       	ldi	r20, 0x16	; 22
    574a:	50 e0       	ldi	r21, 0x00	; 0
    574c:	84 9f       	mul	r24, r20
    574e:	90 01       	movw	r18, r0
    5750:	85 9f       	mul	r24, r21
    5752:	30 0d       	add	r19, r0
    5754:	94 9f       	mul	r25, r20
    5756:	30 0d       	add	r19, r0
    5758:	11 24       	eor	r1, r1
    575a:	80 91 c7 03 	lds	r24, 0x03C7
    575e:	90 91 c8 03 	lds	r25, 0x03C8
    5762:	60 e8       	ldi	r22, 0x80	; 128
    5764:	70 e0       	ldi	r23, 0x00	; 0
    5766:	a9 01       	movw	r20, r18
    5768:	0e 94 dd 38 	call	0x71ba	; 0x71ba <memset>


	my_background_draw( x+64*0, y, map1, 146, 44 );
    576c:	80 2f       	mov	r24, r16
    576e:	6e 2d       	mov	r22, r14
    5770:	4a e8       	ldi	r20, 0x8A	; 138
    5772:	57 e3       	ldi	r21, 0x37	; 55
    5774:	22 e9       	ldi	r18, 0x92	; 146
    5776:	0c e2       	ldi	r16, 0x2C	; 44
    5778:	0e 94 a3 28 	call	0x5146	; 0x5146 <my_background_draw>

		//render();
		window_select(wnd1);

		if(RenderMap(xm, ym))
			overlay_release();
    577c:	10 92 12 01 	sts	0x0112, r1


		//overlay_draw(xb, yb, frame, 16, 16); //nebo: xs, ys


		unsigned int xb = x+xm, yb = y+ym; //poloha postavy na obrazovce.
    5780:	c8 88       	ldd	r12, Y+16	; 0x10
    5782:	d9 88       	ldd	r13, Y+17	; 0x11
    5784:	c2 0c       	add	r12, r2
    5786:	d3 1c       	adc	r13, r3
    5788:	ae 84       	ldd	r10, Y+14	; 0x0e
    578a:	bf 84       	ldd	r11, Y+15	; 0x0f
    578c:	a4 0c       	add	r10, r4
    578e:	b5 1c       	adc	r11, r5

		overlay_draw_param(xb, yb, frame, 16, 16, ldx < 0 ? OVERLAY_HFLIP : 0); //nebo: xs, ys
    5790:	ed 88       	ldd	r14, Y+21	; 0x15
    5792:	ee 1c       	adc	r14, r14
    5794:	ee 24       	eor	r14, r14
    5796:	ee 1c       	adc	r14, r14
    5798:	e2 94       	swap	r14
    579a:	a0 ef       	ldi	r26, 0xF0	; 240
    579c:	ea 22       	and	r14, r26
    579e:	c6 01       	movw	r24, r12
    57a0:	b5 01       	movw	r22, r10
    57a2:	4c 85       	ldd	r20, Y+12	; 0x0c
    57a4:	5d 85       	ldd	r21, Y+13	; 0x0d
    57a6:	20 e1       	ldi	r18, 0x10	; 16
    57a8:	00 e1       	ldi	r16, 0x10	; 16
    57aa:	0e 94 23 34 	call	0x6846	; 0x6846 <overlay_draw_param>

                //overlay_draw_sprite(0, 0, 1);
		overlay_draw_sprite_deftileset(xs, ys, 1);
    57ae:	40 91 c5 03 	lds	r20, 0x03C5
    57b2:	50 91 c6 03 	lds	r21, 0x03C6
    57b6:	40 5e       	subi	r20, 0xE0	; 224
    57b8:	5f 4f       	sbci	r21, 0xFF	; 255
    57ba:	8e a1       	ldd	r24, Y+38	; 0x26
    57bc:	90 e0       	ldi	r25, 0x00	; 0
    57be:	6d a1       	ldd	r22, Y+37	; 0x25
    57c0:	70 e0       	ldi	r23, 0x00	; 0
    57c2:	28 e0       	ldi	r18, 0x08	; 8
    57c4:	08 e0       	ldi	r16, 0x08	; 8
    57c6:	ee 24       	eor	r14, r14
    57c8:	0e 94 23 34 	call	0x6846	; 0x6846 <overlay_draw_param>
		xs+=dxs; if(xs >= DRIVER_RESX-8 || xs <= 0) dxs=-dxs;
    57cc:	5e a1       	ldd	r21, Y+38	; 0x26
    57ce:	8a a1       	ldd	r24, Y+34	; 0x22
    57d0:	58 0f       	add	r21, r24
    57d2:	5e a3       	std	Y+38, r21	; 0x26
    57d4:	85 2f       	mov	r24, r21
    57d6:	81 50       	subi	r24, 0x01	; 1
    57d8:	8f 39       	cpi	r24, 0x9F	; 159
    57da:	18 f0       	brcs	.+6      	; 0x57e2 <main+0x530>
    57dc:	9a a1       	ldd	r25, Y+34	; 0x22
    57de:	91 95       	neg	r25
    57e0:	9a a3       	std	Y+34, r25	; 0x22
		ys+=dys; if(ys >= window_get_num_lines()-8 || ys <= 0) dys=-dys;
    57e2:	ad a1       	ldd	r26, Y+37	; 0x25
    57e4:	b9 a1       	ldd	r27, Y+33	; 0x21
    57e6:	ab 0f       	add	r26, r27
    57e8:	ad a3       	std	Y+37, r26	; 0x25
    57ea:	2a 2f       	mov	r18, r26
    57ec:	30 e0       	ldi	r19, 0x00	; 0
    57ee:	e0 91 cc 03 	lds	r30, 0x03CC
    57f2:	f0 91 cd 03 	lds	r31, 0x03CD
    57f6:	81 81       	ldd	r24, Z+1	; 0x01
    57f8:	90 e0       	ldi	r25, 0x00	; 0
    57fa:	08 97       	sbiw	r24, 0x08	; 8
    57fc:	28 17       	cp	r18, r24
    57fe:	39 07       	cpc	r19, r25
    5800:	14 f4       	brge	.+4      	; 0x5806 <main+0x554>
    5802:	aa 23       	and	r26, r26
    5804:	19 f4       	brne	.+6      	; 0x580c <main+0x55a>
    5806:	e9 a1       	ldd	r30, Y+33	; 0x21
    5808:	e1 95       	neg	r30
    580a:	e9 a3       	std	Y+33, r30	; 0x21



	//	overlay_draw_sprite_param(48, +y1, 'A', 8);
		overlay_draw_sprite_param_deftileset(64, +y2, 'V', 8|1);
    580c:	40 91 c5 03 	lds	r20, 0x03C5
    5810:	50 91 c6 03 	lds	r21, 0x03C6
    5814:	40 54       	subi	r20, 0x40	; 64
    5816:	55 4f       	sbci	r21, 0xF5	; 245
    5818:	80 e4       	ldi	r24, 0x40	; 64
    581a:	90 e0       	ldi	r25, 0x00	; 0
    581c:	6f a1       	ldd	r22, Y+39	; 0x27
    581e:	70 e0       	ldi	r23, 0x00	; 0
    5820:	28 e0       	ldi	r18, 0x08	; 8
    5822:	08 e0       	ldi	r16, 0x08	; 8
    5824:	f9 e0       	ldi	r31, 0x09	; 9
    5826:	ef 2e       	mov	r14, r31
    5828:	0e 94 23 34 	call	0x6846	; 0x6846 <overlay_draw_param>
		overlay_draw_sprite_param_deftileset(80, +y1, 'G', 8|2);
    582c:	40 91 c5 03 	lds	r20, 0x03C5
    5830:	50 91 c6 03 	lds	r21, 0x03C6
    5834:	40 52       	subi	r20, 0x20	; 32
    5836:	57 4f       	sbci	r21, 0xF7	; 247
    5838:	80 e5       	ldi	r24, 0x50	; 80
    583a:	90 e0       	ldi	r25, 0x00	; 0
    583c:	68 a5       	ldd	r22, Y+40	; 0x28
    583e:	70 e0       	ldi	r23, 0x00	; 0
    5840:	28 e0       	ldi	r18, 0x08	; 8
    5842:	ea e0       	ldi	r30, 0x0A	; 10
    5844:	ee 2e       	mov	r14, r30
    5846:	0e 94 23 34 	call	0x6846	; 0x6846 <overlay_draw_param>
		overlay_draw_sprite_param_deftileset(96, +y2, 'A', 8|3);
    584a:	40 91 c5 03 	lds	r20, 0x03C5
    584e:	50 91 c6 03 	lds	r21, 0x03C6
    5852:	40 5e       	subi	r20, 0xE0	; 224
    5854:	57 4f       	sbci	r21, 0xF7	; 247
    5856:	80 e6       	ldi	r24, 0x60	; 96
    5858:	90 e0       	ldi	r25, 0x00	; 0
    585a:	6f a1       	ldd	r22, Y+39	; 0x27
    585c:	70 e0       	ldi	r23, 0x00	; 0
    585e:	28 e0       	ldi	r18, 0x08	; 8
    5860:	3b e0       	ldi	r19, 0x0B	; 11
    5862:	e3 2e       	mov	r14, r19
    5864:	0e 94 23 34 	call	0x6846	; 0x6846 <overlay_draw_param>
		if(tttt)
    5868:	fc 8d       	ldd	r31, Y+28	; 0x1c
    586a:	ff 23       	and	r31, r31
    586c:	e1 f0       	breq	.+56     	; 0x58a6 <main+0x5f4>
		{
		 y1+=dy1; if(y1 >= 90) { y1=90; dy1=-dy1; } else dy1++;
    586e:	28 a5       	ldd	r18, Y+40	; 0x28
    5870:	3c a1       	ldd	r19, Y+36	; 0x24
    5872:	23 0f       	add	r18, r19
    5874:	28 a7       	std	Y+40, r18	; 0x28
    5876:	2a 35       	cpi	r18, 0x5A	; 90
    5878:	28 f0       	brcs	.+10     	; 0x5884 <main+0x5d2>
    587a:	31 95       	neg	r19
    587c:	3c a3       	std	Y+36, r19	; 0x24
    587e:	4a e5       	ldi	r20, 0x5A	; 90
    5880:	48 a7       	std	Y+40, r20	; 0x28
    5882:	03 c0       	rjmp	.+6      	; 0x588a <main+0x5d8>
    5884:	5c a1       	ldd	r21, Y+36	; 0x24
    5886:	5f 5f       	subi	r21, 0xFF	; 255
    5888:	5c a3       	std	Y+36, r21	; 0x24
		 y2+=dy2; if(y2 >= 90) { y2=90; dy2=-dy2; } else dy2++;
    588a:	8f a1       	ldd	r24, Y+39	; 0x27
    588c:	9b a1       	ldd	r25, Y+35	; 0x23
    588e:	89 0f       	add	r24, r25
    5890:	8f a3       	std	Y+39, r24	; 0x27
    5892:	8a 35       	cpi	r24, 0x5A	; 90
    5894:	28 f0       	brcs	.+10     	; 0x58a0 <main+0x5ee>
    5896:	91 95       	neg	r25
    5898:	9b a3       	std	Y+35, r25	; 0x23
    589a:	aa e5       	ldi	r26, 0x5A	; 90
    589c:	af a3       	std	Y+39, r26	; 0x27
    589e:	03 c0       	rjmp	.+6      	; 0x58a6 <main+0x5f4>
    58a0:	bb a1       	ldd	r27, Y+35	; 0x23
    58a2:	bf 5f       	subi	r27, 0xFF	; 255
    58a4:	bb a3       	std	Y+35, r27	; 0x23

    	//frameMove();

		//user input
		//unsigned char event = key_get_event();
		if(event & KEY_UP && !air) { sound_play(snd_jump); jump = 1; dy = -3; }
    58a6:	80 91 07 01 	lds	r24, 0x0107
    58aa:	82 ff       	sbrs	r24, 2
    58ac:	0b c0       	rjmp	.+22     	; 0x58c4 <main+0x612>
    58ae:	ef 89       	ldd	r30, Y+23	; 0x17
    58b0:	ee 23       	and	r30, r30
    58b2:	41 f4       	brne	.+16     	; 0x58c4 <main+0x612>
    58b4:	8d ea       	ldi	r24, 0xAD	; 173
    58b6:	93 e0       	ldi	r25, 0x03	; 3
    58b8:	0e 94 b4 32 	call	0x6568	; 0x6568 <sound_play>
    58bc:	f1 e0       	ldi	r31, 0x01	; 1
    58be:	f8 8f       	std	Y+24, r31	; 0x18
    58c0:	2d ef       	ldi	r18, 0xFD	; 253
    58c2:	2a 8b       	std	Y+18, r18	; 0x12
		if(event & KEY_LEFT)  a=1;
    58c4:	80 91 07 01 	lds	r24, 0x0107
    58c8:	80 ff       	sbrs	r24, 0
    58ca:	02 c0       	rjmp	.+4      	; 0x58d0 <main+0x61e>
    58cc:	31 e0       	ldi	r19, 0x01	; 1
    58ce:	39 8f       	std	Y+25, r19	; 0x19
		if(event & KEY_RIGHT) a=1;
    58d0:	81 ff       	sbrs	r24, 1
    58d2:	02 c0       	rjmp	.+4      	; 0x58d8 <main+0x626>
    58d4:	41 e0       	ldi	r20, 0x01	; 1
    58d6:	49 8f       	std	Y+25, r20	; 0x19


		//unsigned char status = key_get_status();
		vx=0;

		if(status & KEY_RIGHT) vx+=1; //desired speed
    58d8:	80 91 06 01 	lds	r24, 0x0106
    58dc:	28 2f       	mov	r18, r24
    58de:	30 e0       	ldi	r19, 0x00	; 0
    58e0:	c9 01       	movw	r24, r18
    58e2:	96 95       	lsr	r25
    58e4:	87 95       	ror	r24
    58e6:	58 2f       	mov	r21, r24
    58e8:	51 70       	andi	r21, 0x01	; 1
    58ea:	5c 8b       	std	Y+20, r21	; 0x14
		if(status & KEY_LEFT)  vx-=1; //desired speed
    58ec:	20 ff       	sbrs	r18, 0
    58ee:	02 c0       	rjmp	.+4      	; 0x58f4 <main+0x642>
    58f0:	51 50       	subi	r21, 0x01	; 1
    58f2:	5c 8b       	std	Y+20, r21	; 0x14
		if(status & KEY_DOWN)  ym--;
    58f4:	23 ff       	sbrs	r18, 3
    58f6:	05 c0       	rjmp	.+10     	; 0x5902 <main+0x650>
    58f8:	8e 85       	ldd	r24, Y+14	; 0x0e
    58fa:	9f 85       	ldd	r25, Y+15	; 0x0f
    58fc:	01 97       	sbiw	r24, 0x01	; 1
    58fe:	9f 87       	std	Y+15, r25	; 0x0f
    5900:	8e 87       	std	Y+14, r24	; 0x0e





		if(vx) ldx=vx;
    5902:	9c 89       	ldd	r25, Y+20	; 0x14
    5904:	91 11       	cpse	r25, r1
    5906:	9d 8b       	std	Y+21, r25	; 0x15

		if(!--a)
    5908:	a9 8d       	ldd	r26, Y+25	; 0x19
    590a:	a1 50       	subi	r26, 0x01	; 1
    590c:	a9 8f       	std	Y+25, r26	; 0x19
    590e:	aa 23       	and	r26, r26
    5910:	91 f4       	brne	.+36     	; 0x5936 <main+0x684>
		{
			//dx+=sgn(vx-dx);
			if(vx>dx)dx++;
    5912:	bc 89       	ldd	r27, Y+20	; 0x14
    5914:	eb 89       	ldd	r30, Y+19	; 0x13
    5916:	eb 17       	cp	r30, r27
    5918:	14 f4       	brge	.+4      	; 0x591e <main+0x66c>
    591a:	ef 5f       	subi	r30, 0xFF	; 255
    591c:	eb 8b       	std	Y+19, r30	; 0x13
			if(vx<dx)dx--;
    591e:	fc 89       	ldd	r31, Y+20	; 0x14
    5920:	2b 89       	ldd	r18, Y+19	; 0x13
    5922:	f2 17       	cp	r31, r18
    5924:	1c f0       	brlt	.+6      	; 0x592c <main+0x67a>
    5926:	35 e0       	ldi	r19, 0x05	; 5
    5928:	39 8f       	std	Y+25, r19	; 0x19
    592a:	05 c0       	rjmp	.+10     	; 0x5936 <main+0x684>
    592c:	4b 89       	ldd	r20, Y+19	; 0x13
    592e:	41 50       	subi	r20, 0x01	; 1
    5930:	4b 8b       	std	Y+19, r20	; 0x13
    5932:	55 e0       	ldi	r21, 0x05	; 5
    5934:	59 8f       	std	Y+25, r21	; 0x19
		//ziskat kolizni blok. bereme ze SOUCASNE VIDITELNE MAPY, dopocitavame absolutni polohu.
		//#define window_coords2block() ...
		//xb a yb jsou ted absolutni souradnice leveho horniho bloku MARIA NA OBRAZOVCE.


		xb += window_get_scrollX();
    5936:	e0 91 cc 03 	lds	r30, 0x03CC
    593a:	f0 91 cd 03 	lds	r31, 0x03CD
    593e:	82 81       	ldd	r24, Z+2	; 0x02
    5940:	87 70       	andi	r24, 0x07	; 7
    5942:	46 01       	movw	r8, r12
    5944:	88 0e       	add	r8, r24
    5946:	91 1c       	adc	r9, r1
		yb += window_get_scrollY();  //window_get_startline();
    5948:	80 81       	ld	r24, Z
    594a:	87 70       	andi	r24, 0x07	; 7
    594c:	75 01       	movw	r14, r10
    594e:	e8 0e       	add	r14, r24
    5950:	f1 1c       	adc	r15, r1
		xb >>= 3;
    5952:	b3 e0       	ldi	r27, 0x03	; 3
    5954:	96 94       	lsr	r9
    5956:	87 94       	ror	r8
    5958:	ba 95       	dec	r27
    595a:	e1 f7       	brne	.-8      	; 0x5954 <main+0x6a2>
		yb >>= 3;
    595c:	a3 e0       	ldi	r26, 0x03	; 3
    595e:	f6 94       	lsr	r15
    5960:	e7 94       	ror	r14
    5962:	aa 95       	dec	r26
    5964:	e1 f7       	brne	.-8      	; 0x595e <main+0x6ac>

		unsigned char colwidth = 2;
		unsigned char colheight = 2;
		if(x&7) colwidth++;
    5966:	c1 01       	movw	r24, r2
    5968:	87 70       	andi	r24, 0x07	; 7
    596a:	90 70       	andi	r25, 0x00	; 0
    596c:	89 2b       	or	r24, r25
    596e:	19 f4       	brne	.+6      	; 0x5976 <main+0x6c4>
    5970:	f2 e0       	ldi	r31, 0x02	; 2
    5972:	6f 2e       	mov	r6, r31
    5974:	02 c0       	rjmp	.+4      	; 0x597a <main+0x6c8>
    5976:	e3 e0       	ldi	r30, 0x03	; 3
    5978:	6e 2e       	mov	r6, r30
		if(y&7) colheight++;
    597a:	c2 01       	movw	r24, r4
    597c:	87 70       	andi	r24, 0x07	; 7
    597e:	90 70       	andi	r25, 0x00	; 0
    5980:	89 2b       	or	r24, r25
    5982:	19 f4       	brne	.+6      	; 0x598a <main+0x6d8>
    5984:	72 e0       	ldi	r23, 0x02	; 2
    5986:	77 2e       	mov	r7, r23
    5988:	02 c0       	rjmp	.+4      	; 0x598e <main+0x6dc>
    598a:	63 e0       	ldi	r22, 0x03	; 3
    598c:	76 2e       	mov	r7, r22


vert:	if(dy > 0)  //dole
    598e:	8a 89       	ldd	r24, Y+18	; 0x12
    5990:	18 16       	cp	r1, r24
    5992:	0c f0       	brlt	.+2      	; 0x5996 <main+0x6e4>
    5994:	4b c0       	rjmp	.+150    	; 0x5a2c <main+0x77a>
		{
				   y--;
    5996:	92 01       	movw	r18, r4
    5998:	21 50       	subi	r18, 0x01	; 1
    599a:	30 40       	sbci	r19, 0x00	; 0
				   unsigned char pre = y&0xF8;
				   y += dy;
    599c:	99 27       	eor	r25, r25
    599e:	87 fd       	sbrc	r24, 7
    59a0:	90 95       	com	r25
    59a2:	82 0f       	add	r24, r18
    59a4:	93 1f       	adc	r25, r19
				   unsigned char post = y&0xF8;
    59a6:	58 ef       	ldi	r21, 0xF8	; 248
    59a8:	c5 2e       	mov	r12, r21
    59aa:	c8 22       	and	r12, r24
				   y++;
    59ac:	2c 01       	movw	r4, r24
    59ae:	08 94       	sec
    59b0:	41 1c       	adc	r4, r1
    59b2:	51 1c       	adc	r5, r1
				   if(post == pre) goto horiz;
    59b4:	28 7f       	andi	r18, 0xF8	; 248
    59b6:	c2 16       	cp	r12, r18
    59b8:	09 f4       	brne	.+2      	; 0x59bc <main+0x70a>
    59ba:	6d c0       	rjmp	.+218    	; 0x5a96 <main+0x7e4>

				   unsigned char k = yb + colheight;
				   unsigned char l = xb;
    59bc:	08 2d       	mov	r16, r8
				   for(j=0;j<colwidth;j++) 					//projet radek.
				   {
					 //unsigned char b=window_get_block(l++,k);
                                         unsigned char b=overlay_get_background_block(window_get_block_ptr(l++,k));
    59be:	87 2d       	mov	r24, r7
    59c0:	8e 0d       	add	r24, r14
    59c2:	96 e1       	ldi	r25, 0x16	; 22
    59c4:	89 9f       	mul	r24, r25
    59c6:	50 01       	movw	r10, r0
    59c8:	11 24       	eor	r1, r1
    59ca:	10 e0       	ldi	r17, 0x00	; 0
    59cc:	95 01       	movw	r18, r10
    59ce:	20 0f       	add	r18, r16
    59d0:	31 1d       	adc	r19, r1
    59d2:	80 91 c7 03 	lds	r24, 0x03C7
    59d6:	90 91 c8 03 	lds	r25, 0x03C8
    59da:	0f 5f       	subi	r16, 0xFF	; 255
    59dc:	82 0f       	add	r24, r18
    59de:	93 1f       	adc	r25, r19
    59e0:	0e 94 36 33 	call	0x666c	; 0x666c <overlay_get_background_block>
    59e4:	d8 2e       	mov	r13, r24


					 //if(b > 212 && b < 217 || b == 222 || b == 150 || b == 153) 		//optimalizovat pomoci pointeru na block
					 if(pgm_read_byte(&colldata[b])&0x01)
    59e6:	e8 2f       	mov	r30, r24
    59e8:	f0 e0       	ldi	r31, 0x00	; 0
    59ea:	e5 5e       	subi	r30, 0xE5	; 229
    59ec:	f9 4c       	sbci	r31, 0xC9	; 201
    59ee:	e4 91       	lpm	r30, Z+
    59f0:	e0 ff       	sbrs	r30, 0
    59f2:	18 c0       	rjmp	.+48     	; 0x5a24 <main+0x772>
					 {
					  	dy=0;

						if(air) sound_play(snd_impact);
    59f4:	af 89       	ldd	r26, Y+23	; 0x17
    59f6:	aa 23       	and	r26, r26
    59f8:	21 f0       	breq	.+8      	; 0x5a02 <main+0x750>
    59fa:	8b ed       	ldi	r24, 0xDB	; 219
    59fc:	93 e0       	ldi	r25, 0x03	; 3
    59fe:	0e 94 b4 32 	call	0x6568	; 0x6568 <sound_play>
						air = 0; 		  //muzeme skocit?
						jump = 0;		  //pro animaci
						g = 1;			  //gravity timer
						if(b==222) { sound_play(snd_tram); dy=-6;} //trampolina
    5a02:	be ed       	ldi	r27, 0xDE	; 222
    5a04:	db 16       	cp	r13, r27
    5a06:	11 f0       	breq	.+4      	; 0x5a0c <main+0x75a>
    5a08:	1a 8a       	std	Y+18, r1	; 0x12
    5a0a:	06 c0       	rjmp	.+12     	; 0x5a18 <main+0x766>
    5a0c:	84 ec       	ldi	r24, 0xC4	; 196
    5a0e:	93 e0       	ldi	r25, 0x03	; 3
    5a10:	0e 94 b4 32 	call	0x6568	; 0x6568 <sound_play>
    5a14:	ea ef       	ldi	r30, 0xFA	; 250
    5a16:	ea 8b       	std	Y+18, r30	; 0x12

						//y &= 0xFFF8;
						asm volatile("mov %A0, %1" : "=r" (y) : "r" (post));
    5a18:	4c 2c       	mov	r4, r12
    5a1a:	f1 e0       	ldi	r31, 0x01	; 1
    5a1c:	fa 8f       	std	Y+26, r31	; 0x1a
    5a1e:	18 8e       	std	Y+24, r1	; 0x18
    5a20:	1f 8a       	std	Y+23, r1	; 0x17
    5a22:	39 c0       	rjmp	.+114    	; 0x5a96 <main+0x7e4>
				   y++;
				   if(post == pre) goto horiz;

				   unsigned char k = yb + colheight;
				   unsigned char l = xb;
				   for(j=0;j<colwidth;j++) 					//projet radek.
    5a24:	1f 5f       	subi	r17, 0xFF	; 255
    5a26:	16 15       	cp	r17, r6
    5a28:	88 f2       	brcs	.-94     	; 0x59cc <main+0x71a>
    5a2a:	34 c0       	rjmp	.+104    	; 0x5a94 <main+0x7e2>
				   }
				   //k vertikalni kolizi nedoslo - posunout blok pro horizontalni kolizi
				   //yb++;
				   colheight++;
		}
	    else if(dy < 0) //nahore
    5a2c:	2a 89       	ldd	r18, Y+18	; 0x12
    5a2e:	22 23       	and	r18, r18
    5a30:	91 f1       	breq	.+100    	; 0x5a96 <main+0x7e4>
		{
				  unsigned char pre = y&0xF8;
    5a32:	48 ef       	ldi	r20, 0xF8	; 248
    5a34:	b4 2e       	mov	r11, r20
    5a36:	b4 20       	and	r11, r4
				  y += dy;
    5a38:	82 2f       	mov	r24, r18
    5a3a:	99 27       	eor	r25, r25
    5a3c:	87 fd       	sbrc	r24, 7
    5a3e:	90 95       	com	r25
    5a40:	48 0e       	add	r4, r24
    5a42:	59 1e       	adc	r5, r25
				  unsigned char post = y&0xF8;
				  if(post == pre) goto horiz;
    5a44:	84 2d       	mov	r24, r4
    5a46:	88 7f       	andi	r24, 0xF8	; 248
    5a48:	8b 15       	cp	r24, r11
    5a4a:	29 f1       	breq	.+74     	; 0x5a96 <main+0x7e4>

				  unsigned char k = yb - 1;
				  unsigned char l = xb;
    5a4c:	08 2d       	mov	r16, r8

				  for(j=0;j<colwidth;j++) 						//projet radek.
				  {
				    	//unsigned char b=window_get_block(l++,k);
					unsigned char b=overlay_get_background_block(window_get_block_ptr(l++,k));
    5a4e:	8e 2d       	mov	r24, r14
    5a50:	81 50       	subi	r24, 0x01	; 1
    5a52:	36 e1       	ldi	r19, 0x16	; 22
    5a54:	83 9f       	mul	r24, r19
    5a56:	60 01       	movw	r12, r0
    5a58:	11 24       	eor	r1, r1
    5a5a:	10 e0       	ldi	r17, 0x00	; 0
    5a5c:	96 01       	movw	r18, r12
    5a5e:	20 0f       	add	r18, r16
    5a60:	31 1d       	adc	r19, r1
    5a62:	80 91 c7 03 	lds	r24, 0x03C7
    5a66:	90 91 c8 03 	lds	r25, 0x03C8
    5a6a:	0f 5f       	subi	r16, 0xFF	; 255
    5a6c:	82 0f       	add	r24, r18
    5a6e:	93 1f       	adc	r25, r19
    5a70:	0e 94 36 33 	call	0x666c	; 0x666c <overlay_get_background_block>
					//if(b > 212 && b < 217)
					if(pgm_read_byte(&colldata[b])&0x02)					
    5a74:	e8 2f       	mov	r30, r24
    5a76:	f0 e0       	ldi	r31, 0x00	; 0
    5a78:	e5 5e       	subi	r30, 0xE5	; 229
    5a7a:	f9 4c       	sbci	r31, 0xC9	; 201
    5a7c:	e4 91       	lpm	r30, Z+
    5a7e:	e1 ff       	sbrs	r30, 1
    5a80:	03 c0       	rjmp	.+6      	; 0x5a88 <main+0x7d6>
					{ 
						dy = 0; 
						asm volatile("mov %A0, %1" : "=r" (y) : "r" (pre));
    5a82:	4b 2c       	mov	r4, r11
    5a84:	1a 8a       	std	Y+18, r1	; 0x12
    5a86:	07 c0       	rjmp	.+14     	; 0x5a96 <main+0x7e4>
				  if(post == pre) goto horiz;

				  unsigned char k = yb - 1;
				  unsigned char l = xb;

				  for(j=0;j<colwidth;j++) 						//projet radek.
    5a88:	1f 5f       	subi	r17, 0xFF	; 255
    5a8a:	16 15       	cp	r17, r6
    5a8c:	38 f3       	brcs	.-50     	; 0x5a5c <main+0x7aa>
						goto horiz; 
					}
				  }

				  //k vertikalni kolizi nedoslo - posunout blok pro horizontalni kolizi
				  yb--;
    5a8e:	08 94       	sec
    5a90:	e1 08       	sbc	r14, r1
    5a92:	f1 08       	sbc	r15, r1
				  colheight++;
    5a94:	73 94       	inc	r7
		}
horiz: 	if(dx > 0) //vpravo
    5a96:	4b 89       	ldd	r20, Y+19	; 0x13
    5a98:	14 16       	cp	r1, r20
    5a9a:	ac f5       	brge	.+106    	; 0x5b06 <main+0x854>
		{
				  x--;
    5a9c:	91 01       	movw	r18, r2
    5a9e:	21 50       	subi	r18, 0x01	; 1
    5aa0:	30 40       	sbci	r19, 0x00	; 0
				  unsigned char pre = x&0xF8;
				  x += dx;
    5aa2:	84 2f       	mov	r24, r20
    5aa4:	99 27       	eor	r25, r25
    5aa6:	87 fd       	sbrc	r24, 7
    5aa8:	90 95       	com	r25
    5aaa:	82 0f       	add	r24, r18
    5aac:	93 1f       	adc	r25, r19
				  unsigned char post = x&0xF8;
    5aae:	38 ef       	ldi	r19, 0xF8	; 248
    5ab0:	d3 2e       	mov	r13, r19
    5ab2:	d8 22       	and	r13, r24
				  x++;
    5ab4:	1c 01       	movw	r2, r24
    5ab6:	08 94       	sec
    5ab8:	21 1c       	adc	r2, r1
    5aba:	31 1c       	adc	r3, r1
				  if(post == pre) goto next;
    5abc:	28 7f       	andi	r18, 0xF8	; 248
    5abe:	d2 16       	cp	r13, r18
    5ac0:	09 f4       	brne	.+2      	; 0x5ac4 <main+0x812>
    5ac2:	52 c0       	rjmp	.+164    	; 0x5b68 <main+0x8b6>

				  unsigned char k = xb + colwidth;
    5ac4:	68 0c       	add	r6, r8
				  unsigned char l = yb;
    5ac6:	0e 2d       	mov	r16, r14
    5ac8:	10 e0       	ldi	r17, 0x00	; 0
				  for(j=0;j<colheight;j++) 					//projet sloupecek.
				  {
				 	//unsigned char b=window_get_block(k,l++);
				 	unsigned char b=overlay_get_background_block(window_get_block_ptr(k,l++));
    5aca:	e6 2c       	mov	r14, r6
    5acc:	ff 24       	eor	r15, r15
    5ace:	56 e1       	ldi	r21, 0x16	; 22
    5ad0:	05 9f       	mul	r16, r21
    5ad2:	90 01       	movw	r18, r0
    5ad4:	11 24       	eor	r1, r1
    5ad6:	2e 0d       	add	r18, r14
    5ad8:	3f 1d       	adc	r19, r15
    5ada:	80 91 c7 03 	lds	r24, 0x03C7
    5ade:	90 91 c8 03 	lds	r25, 0x03C8
    5ae2:	0f 5f       	subi	r16, 0xFF	; 255
    5ae4:	82 0f       	add	r24, r18
    5ae6:	93 1f       	adc	r25, r19
    5ae8:	0e 94 36 33 	call	0x666c	; 0x666c <overlay_get_background_block>
					//if(b > 212 && b < 217)
					if(pgm_read_byte(&colldata[b])&0x04)
    5aec:	e8 2f       	mov	r30, r24
    5aee:	f0 e0       	ldi	r31, 0x00	; 0
    5af0:	e5 5e       	subi	r30, 0xE5	; 229
    5af2:	f9 4c       	sbci	r31, 0xC9	; 201
    5af4:	e4 91       	lpm	r30, Z+
    5af6:	e2 ff       	sbrs	r30, 2
    5af8:	02 c0       	rjmp	.+4      	; 0x5afe <main+0x84c>
					{
						dx = 0; 
						//x &= 0xFFF8;
						asm volatile("mov %A0, %1" : "=r" (x) : "r" (post));
    5afa:	2d 2c       	mov	r2, r13
    5afc:	30 c0       	rjmp	.+96     	; 0x5b5e <main+0x8ac>
				  x++;
				  if(post == pre) goto next;

				  unsigned char k = xb + colwidth;
				  unsigned char l = yb;
				  for(j=0;j<colheight;j++) 					//projet sloupecek.
    5afe:	1f 5f       	subi	r17, 0xFF	; 255
    5b00:	17 15       	cp	r17, r7
    5b02:	28 f3       	brcs	.-54     	; 0x5ace <main+0x81c>
    5b04:	31 c0       	rjmp	.+98     	; 0x5b68 <main+0x8b6>
						asm volatile("mov %A0, %1" : "=r" (x) : "r" (post));
						goto next;
					}
				  }
		}
		else if(dx < 0) //vlevo
    5b06:	8b 89       	ldd	r24, Y+19	; 0x13
    5b08:	88 23       	and	r24, r24
    5b0a:	71 f1       	breq	.+92     	; 0x5b68 <main+0x8b6>
		{
				  unsigned char pre = x&0xF8;
    5b0c:	98 ef       	ldi	r25, 0xF8	; 248
    5b0e:	d9 2e       	mov	r13, r25
    5b10:	d2 20       	and	r13, r2
				  x += dx;
    5b12:	99 27       	eor	r25, r25
    5b14:	87 fd       	sbrc	r24, 7
    5b16:	90 95       	com	r25
    5b18:	28 0e       	add	r2, r24
    5b1a:	39 1e       	adc	r3, r25
				  unsigned char post = x&0xF8;
				  if(post == pre) goto next;
    5b1c:	82 2d       	mov	r24, r2
    5b1e:	88 7f       	andi	r24, 0xF8	; 248
    5b20:	8d 15       	cp	r24, r13
    5b22:	11 f1       	breq	.+68     	; 0x5b68 <main+0x8b6>

				  unsigned char k = xb - 1;
    5b24:	88 2d       	mov	r24, r8
    5b26:	81 50       	subi	r24, 0x01	; 1
				  unsigned char l = yb;
    5b28:	0e 2d       	mov	r16, r14
    5b2a:	10 e0       	ldi	r17, 0x00	; 0
				  for(j=0;j<colheight;j++) 					//projet sloupecek.
				  {
				  	//unsigned char b=window_get_block(k,l++);
				  	unsigned char b=overlay_get_background_block(window_get_block_ptr(k,l++));
    5b2c:	e8 2e       	mov	r14, r24
    5b2e:	ff 24       	eor	r15, r15
    5b30:	96 e1       	ldi	r25, 0x16	; 22
    5b32:	09 9f       	mul	r16, r25
    5b34:	90 01       	movw	r18, r0
    5b36:	11 24       	eor	r1, r1
    5b38:	2e 0d       	add	r18, r14
    5b3a:	3f 1d       	adc	r19, r15
    5b3c:	80 91 c7 03 	lds	r24, 0x03C7
    5b40:	90 91 c8 03 	lds	r25, 0x03C8
    5b44:	0f 5f       	subi	r16, 0xFF	; 255
    5b46:	82 0f       	add	r24, r18
    5b48:	93 1f       	adc	r25, r19
    5b4a:	0e 94 36 33 	call	0x666c	; 0x666c <overlay_get_background_block>

					//if(b > 212 && b < 217)
					if(pgm_read_byte(&colldata[b])&0x08)
    5b4e:	e8 2f       	mov	r30, r24
    5b50:	f0 e0       	ldi	r31, 0x00	; 0
    5b52:	e5 5e       	subi	r30, 0xE5	; 229
    5b54:	f9 4c       	sbci	r31, 0xC9	; 201
    5b56:	e4 91       	lpm	r30, Z+
    5b58:	e3 ff       	sbrs	r30, 3
    5b5a:	03 c0       	rjmp	.+6      	; 0x5b62 <main+0x8b0>
					{
					 	dx = 0; 
						asm volatile("mov %A0, %1" : "=r" (x) : "r" (pre));
    5b5c:	2d 2c       	mov	r2, r13
    5b5e:	1b 8a       	std	Y+19, r1	; 0x13
    5b60:	03 c0       	rjmp	.+6      	; 0x5b68 <main+0x8b6>
				  unsigned char post = x&0xF8;
				  if(post == pre) goto next;

				  unsigned char k = xb - 1;
				  unsigned char l = yb;
				  for(j=0;j<colheight;j++) 					//projet sloupecek.
    5b62:	1f 5f       	subi	r17, 0xFF	; 255
    5b64:	17 15       	cp	r17, r7
    5b66:	20 f3       	brcs	.-56     	; 0x5b30 <main+0x87e>
						goto next;
					}
				  }
		}

next:	if(dy>0 && !air) sound_play(snd_fall);
    5b68:	aa 89       	ldd	r26, Y+18	; 0x12
    5b6a:	1a 16       	cp	r1, r26
    5b6c:	44 f4       	brge	.+16     	; 0x5b7e <main+0x8cc>
    5b6e:	bf 89       	ldd	r27, Y+23	; 0x17
    5b70:	bb 23       	and	r27, r27
    5b72:	41 f4       	brne	.+16     	; 0x5b84 <main+0x8d2>
    5b74:	8e ed       	ldi	r24, 0xDE	; 222
    5b76:	93 e0       	ldi	r25, 0x03	; 3
    5b78:	0e 94 b4 32 	call	0x6568	; 0x6568 <sound_play>
    5b7c:	03 c0       	rjmp	.+6      	; 0x5b84 <main+0x8d2>
		if(dy) air=1;
    5b7e:	ea 89       	ldd	r30, Y+18	; 0x12
    5b80:	ee 23       	and	r30, r30
    5b82:	11 f0       	breq	.+4      	; 0x5b88 <main+0x8d6>
    5b84:	f1 e0       	ldi	r31, 0x01	; 1
    5b86:	ff 8b       	std	Y+23, r31	; 0x17
		


		//gravitace, je vyhodnejsi tady nez nahore.
		if(!--g)
    5b88:	2a 8d       	ldd	r18, Y+26	; 0x1a
    5b8a:	21 50       	subi	r18, 0x01	; 1
    5b8c:	2a 8f       	std	Y+26, r18	; 0x1a
    5b8e:	22 23       	and	r18, r18
    5b90:	59 f4       	brne	.+22     	; 0x5ba8 <main+0x8f6>
		{
			if(dy<8) dy++;
    5b92:	3a 89       	ldd	r19, Y+18	; 0x12
    5b94:	38 30       	cpi	r19, 0x08	; 8
    5b96:	1c f0       	brlt	.+6      	; 0x5b9e <main+0x8ec>
    5b98:	47 e0       	ldi	r20, 0x07	; 7
    5b9a:	4a 8f       	std	Y+26, r20	; 0x1a
    5b9c:	05 c0       	rjmp	.+10     	; 0x5ba8 <main+0x8f6>
    5b9e:	5a 89       	ldd	r21, Y+18	; 0x12
    5ba0:	5f 5f       	subi	r21, 0xFF	; 255
    5ba2:	5a 8b       	std	Y+18, r21	; 0x12
    5ba4:	87 e0       	ldi	r24, 0x07	; 7
    5ba6:	8a 8f       	std	Y+26, r24	; 0x1a
			g=7;			//1/acceleration of Earth
		}

		//animace postavy. TODO:!!!!!
		if(!--u)
    5ba8:	9e 89       	ldd	r25, Y+22	; 0x16
    5baa:	91 50       	subi	r25, 0x01	; 1
    5bac:	9e 8b       	std	Y+22, r25	; 0x16
    5bae:	99 23       	and	r25, r25
    5bb0:	91 f4       	brne	.+36     	; 0x5bd6 <main+0x924>
		{
			u=4;
			frame += 128;
    5bb2:	ac 85       	ldd	r26, Y+12	; 0x0c
    5bb4:	bd 85       	ldd	r27, Y+13	; 0x0d
    5bb6:	a0 58       	subi	r26, 0x80	; 128
    5bb8:	bf 4f       	sbci	r27, 0xFF	; 255
    5bba:	bd 87       	std	Y+13, r27	; 0x0d
    5bbc:	ac 87       	std	Y+12, r26	; 0x0c
			if((unsigned int)frame >= (unsigned int)anim1+(128*5))  frame = anim1 + 128;
    5bbe:	ab 51       	subi	r26, 0x1B	; 27
    5bc0:	b5 43       	sbci	r27, 0x35	; 53
    5bc2:	38 f0       	brcs	.+14     	; 0x5bd2 <main+0x920>
    5bc4:	f4 e0       	ldi	r31, 0x04	; 4
    5bc6:	fe 8b       	std	Y+22, r31	; 0x16
    5bc8:	2b e1       	ldi	r18, 0x1B	; 27
    5bca:	33 e3       	ldi	r19, 0x33	; 51
    5bcc:	3d 87       	std	Y+13, r19	; 0x0d
    5bce:	2c 87       	std	Y+12, r18	; 0x0c
    5bd0:	02 c0       	rjmp	.+4      	; 0x5bd6 <main+0x924>
    5bd2:	34 e0       	ldi	r19, 0x04	; 4
    5bd4:	3e 8b       	std	Y+22, r19	; 0x16
		}
		if(!dx) frame = anim1;
    5bd6:	4b 89       	ldd	r20, Y+19	; 0x13
    5bd8:	44 23       	and	r20, r20
    5bda:	21 f4       	brne	.+8      	; 0x5be4 <main+0x932>
    5bdc:	8b e9       	ldi	r24, 0x9B	; 155
    5bde:	92 e3       	ldi	r25, 0x32	; 50
    5be0:	9d 87       	std	Y+13, r25	; 0x0d
    5be2:	8c 87       	std	Y+12, r24	; 0x0c
		if(abs(dx-vx) > 1) frame = anim1 + 128*5;
    5be4:	9b 89       	ldd	r25, Y+19	; 0x13
    5be6:	29 2f       	mov	r18, r25
    5be8:	33 27       	eor	r19, r19
    5bea:	27 fd       	sbrc	r18, 7
    5bec:	30 95       	com	r19
    5bee:	ac 89       	ldd	r26, Y+20	; 0x14
    5bf0:	8a 2f       	mov	r24, r26
    5bf2:	99 27       	eor	r25, r25
    5bf4:	87 fd       	sbrc	r24, 7
    5bf6:	90 95       	com	r25
    5bf8:	28 1b       	sub	r18, r24
    5bfa:	39 0b       	sbc	r19, r25
    5bfc:	37 ff       	sbrs	r19, 7
    5bfe:	03 c0       	rjmp	.+6      	; 0x5c06 <main+0x954>
    5c00:	30 95       	com	r19
    5c02:	21 95       	neg	r18
    5c04:	3f 4f       	sbci	r19, 0xFF	; 255
    5c06:	22 30       	cpi	r18, 0x02	; 2
    5c08:	31 05       	cpc	r19, r1
    5c0a:	24 f0       	brlt	.+8      	; 0x5c14 <main+0x962>
    5c0c:	eb e1       	ldi	r30, 0x1B	; 27
    5c0e:	f5 e3       	ldi	r31, 0x35	; 53
    5c10:	fd 87       	std	Y+13, r31	; 0x0d
    5c12:	ec 87       	std	Y+12, r30	; 0x0c
		if(air) frame = anim1 + 128*4;
    5c14:	ff 89       	ldd	r31, Y+23	; 0x17
    5c16:	ff 23       	and	r31, r31
    5c18:	21 f0       	breq	.+8      	; 0x5c22 <main+0x970>
    5c1a:	2b e9       	ldi	r18, 0x9B	; 155
    5c1c:	34 e3       	ldi	r19, 0x34	; 52
    5c1e:	3d 87       	std	Y+13, r19	; 0x0d
    5c20:	2c 87       	std	Y+12, r18	; 0x0c
		if(jump) frame = anim1 + 128*6;
    5c22:	38 8d       	ldd	r19, Y+24	; 0x18
    5c24:	33 23       	and	r19, r19
    5c26:	21 f0       	breq	.+8      	; 0x5c30 <main+0x97e>
    5c28:	4b e9       	ldi	r20, 0x9B	; 155
    5c2a:	55 e3       	ldi	r21, 0x35	; 53
    5c2c:	5d 87       	std	Y+13, r21	; 0x0d
    5c2e:	4c 87       	std	Y+12, r20	; 0x0c

		//pohyb mapy vzhledem k postave. exponenciala
		signed int tmp2 = (((DRIVER_RESX/2)-(MARIO_WIDTH/2)))   - x;
		xm += (tmp2 - xm)/8;

   	    	tmp2 = (( (window_get_num_lines()/2 + 24) -(MARIO_HEIGHT/2)))  - y;   // ... pridano -16 pro 144x144
    5c30:	e0 91 cc 03 	lds	r30, 0x03CC
    5c34:	f0 91 cd 03 	lds	r31, 0x03CD
    5c38:	21 81       	ldd	r18, Z+1	; 0x01
    5c3a:	26 95       	lsr	r18
    5c3c:	30 e0       	ldi	r19, 0x00	; 0
    5c3e:	20 5f       	subi	r18, 0xF0	; 240
    5c40:	3f 4f       	sbci	r19, 0xFF	; 255
    5c42:	24 19       	sub	r18, r4
    5c44:	35 09       	sbc	r19, r5

		ym += (tmp2 - ym)/8;
    5c46:	c9 01       	movw	r24, r18
    5c48:	ae 85       	ldd	r26, Y+14	; 0x0e
    5c4a:	bf 85       	ldd	r27, Y+15	; 0x0f
    5c4c:	8a 1b       	sub	r24, r26
    5c4e:	9b 0b       	sbc	r25, r27
    5c50:	68 e0       	ldi	r22, 0x08	; 8
    5c52:	70 e0       	ldi	r23, 0x00	; 0
    5c54:	0e 94 a4 38 	call	0x7148	; 0x7148 <__divmodhi4>
    5c58:	ee 85       	ldd	r30, Y+14	; 0x0e
    5c5a:	ff 85       	ldd	r31, Y+15	; 0x0f
    5c5c:	e6 0f       	add	r30, r22
    5c5e:	f7 1f       	adc	r31, r23
    5c60:	ff 87       	std	Y+15, r31	; 0x0f
    5c62:	ee 87       	std	Y+14, r30	; 0x0e
		if(tmp2 - ym < -32) ym += (tmp2-ym) + 32;
    5c64:	2e 1b       	sub	r18, r30
    5c66:	3f 0b       	sbc	r19, r31
    5c68:	ff ef       	ldi	r31, 0xFF	; 255
    5c6a:	20 3e       	cpi	r18, 0xE0	; 224
    5c6c:	3f 07       	cpc	r19, r31
    5c6e:	44 f4       	brge	.+16     	; 0x5c80 <main+0x9ce>
    5c70:	4e 85       	ldd	r20, Y+14	; 0x0e
    5c72:	5f 85       	ldd	r21, Y+15	; 0x0f
    5c74:	40 5e       	subi	r20, 0xE0	; 224
    5c76:	5f 4f       	sbci	r21, 0xFF	; 255
    5c78:	42 0f       	add	r20, r18
    5c7a:	53 1f       	adc	r21, r19
    5c7c:	5f 87       	std	Y+15, r21	; 0x0f
    5c7e:	4e 87       	std	Y+14, r20	; 0x0e




		//ok, wait for retrace.
		window_select(wnd2);
    5c80:	e0 91 6f 01 	lds	r30, 0x016F
    5c84:	f0 91 70 01 	lds	r31, 0x0170
    5c88:	f0 93 cd 03 	sts	0x03CD, r31
    5c8c:	e0 93 cc 03 	sts	0x03CC, r30
    5c90:	80 81       	ld	r24, Z
    5c92:	86 95       	lsr	r24
    5c94:	86 95       	lsr	r24
    5c96:	86 95       	lsr	r24
    5c98:	56 e1       	ldi	r21, 0x16	; 22
    5c9a:	85 9f       	mul	r24, r21
    5c9c:	c0 01       	movw	r24, r0
    5c9e:	11 24       	eor	r1, r1
    5ca0:	20 91 71 01 	lds	r18, 0x0171
    5ca4:	30 91 72 01 	lds	r19, 0x0172
    5ca8:	28 0f       	add	r18, r24
    5caa:	39 1f       	adc	r19, r25
    5cac:	30 93 c8 03 	sts	0x03C8, r19
    5cb0:	20 93 c7 03 	sts	0x03C7, r18
		static char kbtext=0;

		if(!kbtext)
    5cb4:	80 91 09 01 	lds	r24, 0x0109
    5cb8:	88 23       	and	r24, r24
    5cba:	a9 f5       	brne	.+106    	; 0x5d26 <main+0xa74>
    5cbc:	d9 01       	movw	r26, r18
		{
	 	 window_print_P(1, 1, PSTR("x=      y=       "));
    5cbe:	8b e0       	ldi	r24, 0x0B	; 11
    5cc0:	97 e3       	ldi	r25, 0x37	; 55
    5cc2:	fc 01       	movw	r30, r24

static inline void strdump_P(unsigned char* dest, PGM_P src)
{
	while(1)
	{
		char c = pgm_read_byte(src++);
    5cc4:	01 96       	adiw	r24, 0x01	; 1
    5cc6:	24 91       	lpm	r18, Z+
    5cc8:	11 96       	adiw	r26, 0x01	; 1
		if(!c) break;
    5cca:	22 23       	and	r18, r18
    5ccc:	21 f0       	breq	.+8      	; 0x5cd6 <main+0xa24>
		*dest++ = c;
    5cce:	56 96       	adiw	r26, 0x16	; 22
    5cd0:	2c 93       	st	X, r18
    5cd2:	56 97       	sbiw	r26, 0x16	; 22
    5cd4:	f6 cf       	rjmp	.-20     	; 0x5cc2 <main+0xa10>


static void DrawInt16(int x, int y, unsigned int i)
{
	unsigned char str[6];
	itoa(i,str,10);
    5cd6:	c1 01       	movw	r24, r2
    5cd8:	be 01       	movw	r22, r28
    5cda:	6f 5f       	subi	r22, 0xFF	; 255
    5cdc:	7f 4f       	sbci	r23, 0xFF	; 255
    5cde:	4a e0       	ldi	r20, 0x0A	; 10
    5ce0:	50 e0       	ldi	r21, 0x00	; 0
    5ce2:	0e 94 e4 38 	call	0x71c8	; 0x71c8 <itoa>
    5ce6:	e0 91 c7 03 	lds	r30, 0x03C7
    5cea:	f0 91 c8 03 	lds	r31, 0x03C8
    5cee:	de 01       	movw	r26, r28
    5cf0:	11 96       	adiw	r26, 0x01	; 1

static inline void strdump(unsigned char* dest, char* src)
{
	while(1)
	{
		char c = *src++;
    5cf2:	8d 91       	ld	r24, X+
    5cf4:	31 96       	adiw	r30, 0x01	; 1
		if(!c) break;
    5cf6:	88 23       	and	r24, r24
    5cf8:	11 f0       	breq	.+4      	; 0x5cfe <main+0xa4c>
		*dest++ = c;
    5cfa:	80 8f       	std	Z+24, r24	; 0x18
    5cfc:	fa cf       	rjmp	.-12     	; 0x5cf2 <main+0xa40>
    5cfe:	c2 01       	movw	r24, r4
    5d00:	be 01       	movw	r22, r28
    5d02:	6f 5f       	subi	r22, 0xFF	; 255
    5d04:	7f 4f       	sbci	r23, 0xFF	; 255
    5d06:	4a e0       	ldi	r20, 0x0A	; 10
    5d08:	50 e0       	ldi	r21, 0x00	; 0
    5d0a:	0e 94 e4 38 	call	0x71c8	; 0x71c8 <itoa>
    5d0e:	e0 91 c7 03 	lds	r30, 0x03C7
    5d12:	f0 91 c8 03 	lds	r31, 0x03C8
    5d16:	de 01       	movw	r26, r28
    5d18:	11 96       	adiw	r26, 0x01	; 1

static inline void strdump(unsigned char* dest, char* src)
{
	while(1)
	{
		char c = *src++;
    5d1a:	8d 91       	ld	r24, X+
    5d1c:	31 96       	adiw	r30, 0x01	; 1
		if(!c) break;
    5d1e:	88 23       	and	r24, r24
    5d20:	11 f0       	breq	.+4      	; 0x5d26 <main+0xa74>
		*dest++ = c;
    5d22:	80 a3       	std	Z+32, r24	; 0x20
    5d24:	fa cf       	rjmp	.-12     	; 0x5d1a <main+0xa68>
		 DrawInt16(DRIVER_WIDTH-18, 1, x); //show remaining time
		 DrawInt16(DRIVER_WIDTH-10, 1, y); //show remaining time
		}


		if(kkk)
    5d26:	80 91 cb 03 	lds	r24, 0x03CB
    5d2a:	88 23       	and	r24, r24
    5d2c:	19 f1       	breq	.+70     	; 0x5d74 <main+0xac2>
		{
                  if(!kbtext) window_fill(128);
    5d2e:	80 91 09 01 	lds	r24, 0x0109
    5d32:	88 23       	and	r24, r24
    5d34:	a9 f4       	brne	.+42     	; 0x5d60 <main+0xaae>
    5d36:	e0 91 cc 03 	lds	r30, 0x03CC
    5d3a:	f0 91 cd 03 	lds	r31, 0x03CD
    5d3e:	21 81       	ldd	r18, Z+1	; 0x01
    5d40:	26 95       	lsr	r18
    5d42:	26 95       	lsr	r18
    5d44:	26 95       	lsr	r18
    5d46:	86 e1       	ldi	r24, 0x16	; 22
    5d48:	28 9f       	mul	r18, r24
    5d4a:	90 01       	movw	r18, r0
    5d4c:	11 24       	eor	r1, r1
    5d4e:	80 91 c7 03 	lds	r24, 0x03C7
    5d52:	90 91 c8 03 	lds	r25, 0x03C8
    5d56:	60 e8       	ldi	r22, 0x80	; 128
    5d58:	70 e0       	ldi	r23, 0x00	; 0
    5d5a:	a9 01       	movw	r20, r18
    5d5c:	0e 94 dd 38 	call	0x71ba	; 0x71ba <memset>
                  kbtext=1;
    5d60:	81 e0       	ldi	r24, 0x01	; 1
    5d62:	80 93 09 01 	sts	0x0109, r24
                  putch(kkk);
    5d66:	80 91 cb 03 	lds	r24, 0x03CB
    5d6a:	90 e0       	ldi	r25, 0x00	; 0
    5d6c:	0e 94 43 30 	call	0x6086	; 0x6086 <putch>
                  kkk=0;
    5d70:	10 92 cb 03 	sts	0x03CB, r1



		//pohyb mapy vzhledem k postave. exponenciala
		signed int tmp2 = (((DRIVER_RESX/2)-(MARIO_WIDTH/2)))   - x;
		xm += (tmp2 - xm)/8;
    5d74:	8c e4       	ldi	r24, 0x4C	; 76
    5d76:	90 e0       	ldi	r25, 0x00	; 0
    5d78:	82 19       	sub	r24, r2
    5d7a:	93 09       	sbc	r25, r3
    5d7c:	a8 89       	ldd	r26, Y+16	; 0x10
    5d7e:	b9 89       	ldd	r27, Y+17	; 0x11
    5d80:	8a 1b       	sub	r24, r26
    5d82:	9b 0b       	sbc	r25, r27
    5d84:	68 e0       	ldi	r22, 0x08	; 8
    5d86:	70 e0       	ldi	r23, 0x00	; 0
    5d88:	0e 94 a4 38 	call	0x7148	; 0x7148 <__divmodhi4>
    5d8c:	e8 89       	ldd	r30, Y+16	; 0x10
    5d8e:	f9 89       	ldd	r31, Y+17	; 0x11
    5d90:	e6 0f       	add	r30, r22
    5d92:	f7 1f       	adc	r31, r23
    5d94:	f9 8b       	std	Y+17, r31	; 0x11
    5d96:	e8 8b       	std	Y+16, r30	; 0x10
		{
			ttttt=0;
			yyy+=dyy; if((yyy>=7)||(yyy<=0)) dyy=-dyy;
		}

		xxx-=2;
    5d98:	2a 85       	ldd	r18, Y+10	; 0x0a
    5d9a:	3b 85       	ldd	r19, Y+11	; 0x0b
    5d9c:	22 50       	subi	r18, 0x02	; 2
    5d9e:	30 40       	sbci	r19, 0x00	; 0
    5da0:	3b 87       	std	Y+11, r19	; 0x0b
    5da2:	2a 87       	std	Y+10, r18	; 0x0a
		//if(-xxx > (strlen_P(text1)*8)) xxx=DRIVER_WIDTH*8;

		window_set_colormask((ccc++) | 0x80);
    5da4:	3f 81       	ldd	r19, Y+7	; 0x07
    5da6:	3f 5f       	subi	r19, 0xFF	; 255
    5da8:	3f 83       	std	Y+7, r19	; 0x07
		if(tttt)
		{
		 y1+=dy1; if(y1 >= 90) { y1=90; dy1=-dy1; } else dy1++;
		 y2+=dy2; if(y2 >= 90) { y2=90; dy2=-dy2; } else dy2++;
		}
		tttt=!tttt;
    5daa:	80 e0       	ldi	r24, 0x00	; 0
    5dac:	4c 8d       	ldd	r20, Y+28	; 0x1c
    5dae:	44 23       	and	r20, r20
    5db0:	09 f4       	brne	.+2      	; 0x5db4 <main+0xb02>
    5db2:	81 e0       	ldi	r24, 0x01	; 1
    5db4:	8c 8f       	std	Y+28, r24	; 0x1c
		//res = SD_ReadSector(sector++, buf);
		//res = SD_ReadSector(sector++, buf);
		//res = SD_ReadSector(sector++, buf);


		sync();
    5db6:	0e 94 eb 32 	call	0x65d6	; 0x65d6 <video_sync>
    5dba:	f7 cb       	rjmp	.-2066   	; 0x55aa <main+0x2f8>

00005dbc <onKbEvent>:
unsigned char kkk;
unsigned char status=0, event=0;
void onKbEvent(unsigned char code, unsigned char flags)
{
        //special key?
	if(flags & 1) //printf_P(PSTR("Special %d\n"),code);
    5dbc:	60 ff       	sbrs	r22, 0
    5dbe:	2e c0       	rjmp	.+92     	; 0x5e1c <onKbEvent+0x60>
		switch(code)
    5dc0:	82 37       	cpi	r24, 0x72	; 114
    5dc2:	21 f1       	breq	.+72     	; 0x5e0c <onKbEvent+0x50>
    5dc4:	83 37       	cpi	r24, 0x73	; 115
    5dc6:	18 f4       	brcc	.+6      	; 0x5dce <onKbEvent+0x12>
    5dc8:	8b 36       	cpi	r24, 0x6B	; 107
    5dca:	79 f5       	brne	.+94     	; 0x5e2a <onKbEvent+0x6e>
    5dcc:	05 c0       	rjmp	.+10     	; 0x5dd8 <onKbEvent+0x1c>
    5dce:	84 37       	cpi	r24, 0x74	; 116
    5dd0:	59 f0       	breq	.+22     	; 0x5de8 <onKbEvent+0x2c>
    5dd2:	85 37       	cpi	r24, 0x75	; 117
    5dd4:	51 f5       	brne	.+84     	; 0x5e2a <onKbEvent+0x6e>
    5dd6:	12 c0       	rjmp	.+36     	; 0x5dfc <onKbEvent+0x40>
    5dd8:	80 91 06 01 	lds	r24, 0x0106
		{
			case 107: if(flags&2) status &= ~KEY_LEFT;  else status |= KEY_LEFT;  break;
    5ddc:	61 ff       	sbrs	r22, 1
    5dde:	02 c0       	rjmp	.+4      	; 0x5de4 <onKbEvent+0x28>
    5de0:	8e 7f       	andi	r24, 0xFE	; 254
    5de2:	09 c0       	rjmp	.+18     	; 0x5df6 <onKbEvent+0x3a>
    5de4:	81 60       	ori	r24, 0x01	; 1
    5de6:	07 c0       	rjmp	.+14     	; 0x5df6 <onKbEvent+0x3a>
    5de8:	80 91 06 01 	lds	r24, 0x0106
			case 116: if(flags&2) status &= ~KEY_RIGHT; else status |= KEY_RIGHT; break;
    5dec:	61 ff       	sbrs	r22, 1
    5dee:	02 c0       	rjmp	.+4      	; 0x5df4 <onKbEvent+0x38>
    5df0:	8d 7f       	andi	r24, 0xFD	; 253
    5df2:	01 c0       	rjmp	.+2      	; 0x5df6 <onKbEvent+0x3a>
    5df4:	82 60       	ori	r24, 0x02	; 2
    5df6:	80 93 06 01 	sts	0x0106, r24
    5dfa:	17 c0       	rjmp	.+46     	; 0x5e2a <onKbEvent+0x6e>
    5dfc:	80 91 06 01 	lds	r24, 0x0106
			case 117: if(flags&2) status &= ~KEY_UP;    else status |= KEY_UP;    break;
    5e00:	61 ff       	sbrs	r22, 1
    5e02:	02 c0       	rjmp	.+4      	; 0x5e08 <onKbEvent+0x4c>
    5e04:	8b 7f       	andi	r24, 0xFB	; 251
    5e06:	f7 cf       	rjmp	.-18     	; 0x5df6 <onKbEvent+0x3a>
    5e08:	84 60       	ori	r24, 0x04	; 4
    5e0a:	f5 cf       	rjmp	.-22     	; 0x5df6 <onKbEvent+0x3a>
    5e0c:	80 91 06 01 	lds	r24, 0x0106
			case 114: if(flags&2) status &= ~KEY_DOWN;  else status |= KEY_DOWN;  break;
    5e10:	61 ff       	sbrs	r22, 1
    5e12:	02 c0       	rjmp	.+4      	; 0x5e18 <onKbEvent+0x5c>
    5e14:	87 7f       	andi	r24, 0xF7	; 247
    5e16:	ef cf       	rjmp	.-34     	; 0x5df6 <onKbEvent+0x3a>
    5e18:	88 60       	ori	r24, 0x08	; 8
    5e1a:	ed cf       	rjmp	.-38     	; 0x5df6 <onKbEvent+0x3a>
		}
	else if(!(flags&2))
    5e1c:	61 fd       	sbrc	r22, 1
    5e1e:	05 c0       	rjmp	.+10     	; 0x5e2a <onKbEvent+0x6e>
	{
		kkk = keyboard_scan2key(code);
    5e20:	90 e0       	ldi	r25, 0x00	; 0
    5e22:	0e 94 6a 36 	call	0x6cd4	; 0x6cd4 <keyboard_scan2key>
    5e26:	80 93 cb 03 	sts	0x03CB, r24
		//printf_P(PSTR("Key: %d\n"), key);
	}

	static unsigned char last_status;
	event = status & (~last_status);
    5e2a:	90 91 06 01 	lds	r25, 0x0106
    5e2e:	80 91 0e 01 	lds	r24, 0x010E
    5e32:	80 95       	com	r24
    5e34:	89 23       	and	r24, r25
    5e36:	80 93 07 01 	sts	0x0107, r24
	last_status = status;
    5e3a:	90 93 0e 01 	sts	0x010E, r25
}
    5e3e:	08 95       	ret

00005e40 <background_draw>:
#endif


#ifdef BACKGROUND_DRAW
unsigned char background_draw(signed char x, signed char y, PGM_P img, uint8_t width, uint8_t height)
{
    5e40:	ef 92       	push	r14
    5e42:	ff 92       	push	r15
    5e44:	0f 93       	push	r16
    5e46:	1f 93       	push	r17
    5e48:	cf 93       	push	r28
    5e4a:	df 93       	push	r29
    5e4c:	ea 01       	movw	r28, r20
    5e4e:	90 2f       	mov	r25, r16
#ifdef BACKGROUND_WINDOW
	register unsigned char endrow = window_get_height();
    5e50:	e0 91 cc 03 	lds	r30, 0x03CC
    5e54:	f0 91 cd 03 	lds	r31, 0x03CD
    5e58:	31 81       	ldd	r19, Z+1	; 0x01
	register unsigned char *scraddr = window_get_ptr();
    5e5a:	00 91 c7 03 	lds	r16, 0x03C7
    5e5e:	10 91 c8 03 	lds	r17, 0x03C8
#ifdef BACKGROUND_SCROLLABLE
	endrow++;
#endif

	//do all the calculations, to make the loop as fast as possible
	signed int  wx = x + width;
    5e62:	e8 2f       	mov	r30, r24
    5e64:	ff 27       	eor	r31, r31
    5e66:	e7 fd       	sbrc	r30, 7
    5e68:	f0 95       	com	r31
    5e6a:	e2 2e       	mov	r14, r18
    5e6c:	ff 24       	eor	r15, r15
    5e6e:	d7 01       	movw	r26, r14
    5e70:	ae 0f       	add	r26, r30
    5e72:	bf 1f       	adc	r27, r31
    5e74:	a7 31       	cpi	r26, 0x17	; 23
    5e76:	b1 05       	cpc	r27, r1
    5e78:	14 f0       	brlt	.+4      	; 0x5e7e <background_draw+0x3e>
    5e7a:	a6 e1       	ldi	r26, 0x16	; 22
    5e7c:	b0 e0       	ldi	r27, 0x00	; 0
	if(wx > DRIVER_COLUMNS) wx = DRIVER_COLUMNS;
	if(x >= 0) { scraddr += x; wx -= x; }
    5e7e:	87 fd       	sbrc	r24, 7
    5e80:	79 c0       	rjmp	.+242    	; 0x5f74 <background_draw+0x134>
    5e82:	0e 0f       	add	r16, r30
    5e84:	1f 1f       	adc	r17, r31
    5e86:	ae 1b       	sub	r26, r30
    5e88:	bf 0b       	sbc	r27, r31
	else img -= x;
	if(wx <= 0) return 2;
    5e8a:	1a 16       	cp	r1, r26
    5e8c:	1b 06       	cpc	r1, r27
    5e8e:	0c f0       	brlt	.+2      	; 0x5e92 <background_draw+0x52>
    5e90:	77 c0       	rjmp	.+238    	; 0x5f80 <background_draw+0x140>

	signed int  tmp = y + height;
    5e92:	46 2f       	mov	r20, r22
    5e94:	55 27       	eor	r21, r21
    5e96:	47 fd       	sbrc	r20, 7
    5e98:	50 95       	com	r21

#ifdef BACKGROUND_DRAW
unsigned char background_draw(signed char x, signed char y, PGM_P img, uint8_t width, uint8_t height)
{
#ifdef BACKGROUND_WINDOW
	register unsigned char endrow = window_get_height();
    5e9a:	36 95       	lsr	r19
    5e9c:	36 95       	lsr	r19
    5e9e:	36 95       	lsr	r19
    5ea0:	3f 5f       	subi	r19, 0xFF	; 255
    5ea2:	23 2f       	mov	r18, r19
    5ea4:	30 e0       	ldi	r19, 0x00	; 0
    5ea6:	fa 01       	movw	r30, r20
    5ea8:	e9 0f       	add	r30, r25
    5eaa:	f1 1d       	adc	r31, r1
    5eac:	2e 17       	cp	r18, r30
    5eae:	3f 07       	cpc	r19, r31
    5eb0:	0c f4       	brge	.+2      	; 0x5eb4 <background_draw+0x74>
    5eb2:	48 c0       	rjmp	.+144    	; 0x5f44 <background_draw+0x104>
	else img -= x;
	if(wx <= 0) return 2;

	signed int  tmp = y + height;
	if(tmp > endrow) tmp=endrow;
	if(y >= 0) { scraddr += y*DRIVER_COLUMNS; tmp -= y; }
    5eb4:	67 fd       	sbrc	r22, 7
    5eb6:	49 c0       	rjmp	.+146    	; 0x5f4a <background_draw+0x10a>
    5eb8:	9a 01       	movw	r18, r20
    5eba:	22 0f       	add	r18, r18
    5ebc:	33 1f       	adc	r19, r19
    5ebe:	24 0f       	add	r18, r20
    5ec0:	35 1f       	adc	r19, r21
    5ec2:	c9 01       	movw	r24, r18
    5ec4:	88 0f       	add	r24, r24
    5ec6:	99 1f       	adc	r25, r25
    5ec8:	88 0f       	add	r24, r24
    5eca:	99 1f       	adc	r25, r25
    5ecc:	88 0f       	add	r24, r24
    5ece:	99 1f       	adc	r25, r25
    5ed0:	82 1b       	sub	r24, r18
    5ed2:	93 0b       	sbc	r25, r19
    5ed4:	84 0f       	add	r24, r20
    5ed6:	95 1f       	adc	r25, r21
    5ed8:	08 0f       	add	r16, r24
    5eda:	19 1f       	adc	r17, r25
    5edc:	e4 1b       	sub	r30, r20
    5ede:	f5 0b       	sbc	r31, r21
	else img -= y*width;
	if(tmp <= 0) return 3;
    5ee0:	1e 16       	cp	r1, r30
    5ee2:	1f 06       	cpc	r1, r31
    5ee4:	0c f0       	brlt	.+2      	; 0x5ee8 <background_draw+0xa8>
    5ee6:	3e c0       	rjmp	.+124    	; 0x5f64 <background_draw+0x124>


	register unsigned char wy = tmp;
    5ee8:	8a 2f       	mov	r24, r26
    5eea:	81 50       	subi	r24, 0x01	; 1
    5eec:	68 2f       	mov	r22, r24
    5eee:	70 e0       	ldi	r23, 0x00	; 0
    5ef0:	6f 5f       	subi	r22, 0xFF	; 255
    5ef2:	7f 4f       	sbci	r23, 0xFF	; 255
    5ef4:	60 0f       	add	r22, r16
    5ef6:	71 1f       	adc	r23, r17
    5ef8:	a8 01       	movw	r20, r16
    5efa:	9e 2f       	mov	r25, r30
    5efc:	91 50       	subi	r25, 0x01	; 1
		 *scrptr++ = pgm_read_byte(imgptr++);
		 
		scraddr += DRIVER_COLUMNS;
		img += width;
	}
	while(--wy);
    5efe:	86 e1       	ldi	r24, 0x16	; 22
    5f00:	98 9f       	mul	r25, r24
    5f02:	c0 01       	movw	r24, r0
    5f04:	11 24       	eor	r1, r1
    5f06:	80 0f       	add	r24, r16
    5f08:	91 1f       	adc	r25, r17
	if(y >= 0) { scraddr += y*DRIVER_COLUMNS; tmp -= y; }
	else img -= y*width;
	if(tmp <= 0) return 3;


	register unsigned char wy = tmp;
    5f0a:	9e 01       	movw	r18, r28
    5f0c:	da 01       	movw	r26, r20
    5f0e:	f9 01       	movw	r30, r18
	{
		PGM_P imgptr = img;
		register unsigned char *scrptr = scraddr;
		register unsigned char tmp1;
		for(tmp1=wx;tmp1;tmp1--)
		 *scrptr++ = pgm_read_byte(imgptr++);
    5f10:	2f 5f       	subi	r18, 0xFF	; 255
    5f12:	3f 4f       	sbci	r19, 0xFF	; 255
    5f14:	e4 91       	lpm	r30, Z+
    5f16:	ed 93       	st	X+, r30
	do
	{
		PGM_P imgptr = img;
		register unsigned char *scrptr = scraddr;
		register unsigned char tmp1;
		for(tmp1=wx;tmp1;tmp1--)
    5f18:	a6 17       	cp	r26, r22
    5f1a:	b7 07       	cpc	r27, r23
    5f1c:	c1 f7       	brne	.-16     	; 0x5f0e <background_draw+0xce>
    5f1e:	bd 01       	movw	r22, r26
    5f20:	6a 5e       	subi	r22, 0xEA	; 234
    5f22:	7f 4f       	sbci	r23, 0xFF	; 255
		 *scrptr++ = pgm_read_byte(imgptr++);
		 
		scraddr += DRIVER_COLUMNS;
		img += width;
	}
	while(--wy);
    5f24:	48 17       	cp	r20, r24
    5f26:	59 07       	cpc	r21, r25
    5f28:	29 f0       	breq	.+10     	; 0x5f34 <background_draw+0xf4>
		register unsigned char *scrptr = scraddr;
		register unsigned char tmp1;
		for(tmp1=wx;tmp1;tmp1--)
		 *scrptr++ = pgm_read_byte(imgptr++);
		 
		scraddr += DRIVER_COLUMNS;
    5f2a:	4a 5e       	subi	r20, 0xEA	; 234
    5f2c:	5f 4f       	sbci	r21, 0xFF	; 255
		img += width;
    5f2e:	ce 0d       	add	r28, r14
    5f30:	df 1d       	adc	r29, r15
    5f32:	eb cf       	rjmp	.-42     	; 0x5f0a <background_draw+0xca>
	}
	while(--wy);
    5f34:	80 e0       	ldi	r24, 0x00	; 0

	return 0;
}
    5f36:	df 91       	pop	r29
    5f38:	cf 91       	pop	r28
    5f3a:	1f 91       	pop	r17
    5f3c:	0f 91       	pop	r16
    5f3e:	ff 90       	pop	r15
    5f40:	ef 90       	pop	r14
    5f42:	08 95       	ret

#ifdef BACKGROUND_DRAW
unsigned char background_draw(signed char x, signed char y, PGM_P img, uint8_t width, uint8_t height)
{
#ifdef BACKGROUND_WINDOW
	register unsigned char endrow = window_get_height();
    5f44:	f9 01       	movw	r30, r18
	else img -= x;
	if(wx <= 0) return 2;

	signed int  tmp = y + height;
	if(tmp > endrow) tmp=endrow;
	if(y >= 0) { scraddr += y*DRIVER_COLUMNS; tmp -= y; }
    5f46:	67 ff       	sbrs	r22, 7
    5f48:	b7 cf       	rjmp	.-146    	; 0x5eb8 <background_draw+0x78>
	else img -= y*width;
    5f4a:	e4 9e       	mul	r14, r20
    5f4c:	c0 01       	movw	r24, r0
    5f4e:	e5 9e       	mul	r14, r21
    5f50:	90 0d       	add	r25, r0
    5f52:	f4 9e       	mul	r15, r20
    5f54:	90 0d       	add	r25, r0
    5f56:	11 24       	eor	r1, r1
    5f58:	c8 1b       	sub	r28, r24
    5f5a:	d9 0b       	sbc	r29, r25
	if(tmp <= 0) return 3;
    5f5c:	1e 16       	cp	r1, r30
    5f5e:	1f 06       	cpc	r1, r31
    5f60:	0c f4       	brge	.+2      	; 0x5f64 <background_draw+0x124>
    5f62:	c2 cf       	rjmp	.-124    	; 0x5ee8 <background_draw+0xa8>
    5f64:	83 e0       	ldi	r24, 0x03	; 3
		img += width;
	}
	while(--wy);

	return 0;
}
    5f66:	df 91       	pop	r29
    5f68:	cf 91       	pop	r28
    5f6a:	1f 91       	pop	r17
    5f6c:	0f 91       	pop	r16
    5f6e:	ff 90       	pop	r15
    5f70:	ef 90       	pop	r14
    5f72:	08 95       	ret

	//do all the calculations, to make the loop as fast as possible
	signed int  wx = x + width;
	if(wx > DRIVER_COLUMNS) wx = DRIVER_COLUMNS;
	if(x >= 0) { scraddr += x; wx -= x; }
	else img -= x;
    5f74:	ce 1b       	sub	r28, r30
    5f76:	df 0b       	sbc	r29, r31
	if(wx <= 0) return 2;
    5f78:	1a 16       	cp	r1, r26
    5f7a:	1b 06       	cpc	r1, r27
    5f7c:	0c f4       	brge	.+2      	; 0x5f80 <background_draw+0x140>
    5f7e:	89 cf       	rjmp	.-238    	; 0x5e92 <background_draw+0x52>
		register unsigned char tmp1;
		for(tmp1=wx;tmp1;tmp1--)
		 *scrptr++ = pgm_read_byte(imgptr++);
		 
		scraddr += DRIVER_COLUMNS;
		img += width;
    5f80:	82 e0       	ldi	r24, 0x02	; 2
	}
	while(--wy);

	return 0;
}
    5f82:	df 91       	pop	r29
    5f84:	cf 91       	pop	r28
    5f86:	1f 91       	pop	r17
    5f88:	0f 91       	pop	r16
    5f8a:	ff 90       	pop	r15
    5f8c:	ef 90       	pop	r14
    5f8e:	08 95       	ret

00005f90 <background_draw_RLE>:
//      this could be partly solved by indexing the RLE stream somehow......
//
#ifdef BACKGROUND_DRAW_RLE

void background_draw_RLE( signed char x, signed char y, PGM_P img, uint8_t width, uint8_t  height)
{
    5f90:	af 92       	push	r10
    5f92:	bf 92       	push	r11
    5f94:	cf 92       	push	r12
    5f96:	df 92       	push	r13
    5f98:	ef 92       	push	r14
    5f9a:	ff 92       	push	r15
    5f9c:	0f 93       	push	r16
    5f9e:	1f 93       	push	r17
    5fa0:	cf 93       	push	r28
    5fa2:	df 93       	push	r29
    5fa4:	b8 2e       	mov	r11, r24
    5fa6:	a2 2e       	mov	r10, r18
    5fa8:	20 2f       	mov	r18, r16
#ifdef BACKGROUND_WINDOW
	register unsigned char endrow = window_get_height();
    5faa:	e0 91 cc 03 	lds	r30, 0x03CC
    5fae:	f0 91 cd 03 	lds	r31, 0x03CD
    5fb2:	31 81       	ldd	r19, Z+1	; 0x01
	register unsigned char *scraddr = window_get_ptr();
    5fb4:	00 91 c7 03 	lds	r16, 0x03C7
    5fb8:	10 91 c8 03 	lds	r17, 0x03C8
	endrow--;
#endif

	register unsigned char byte=0, cnt=0;

	if(x > 0) scraddr += x;
    5fbc:	18 16       	cp	r1, r24
    5fbe:	2c f4       	brge	.+10     	; 0x5fca <background_draw_RLE+0x3a>
    5fc0:	99 27       	eor	r25, r25
    5fc2:	87 fd       	sbrc	r24, 7
    5fc4:	90 95       	com	r25
    5fc6:	08 0f       	add	r16, r24
    5fc8:	19 1f       	adc	r17, r25
	if(y > 0) scraddr += y*DRIVER_COLUMNS;
    5fca:	16 16       	cp	r1, r22
    5fcc:	34 f4       	brge	.+12     	; 0x5fda <background_draw_RLE+0x4a>
    5fce:	86 e1       	ldi	r24, 0x16	; 22
    5fd0:	68 02       	muls	r22, r24
    5fd2:	c0 01       	movw	r24, r0
    5fd4:	11 24       	eor	r1, r1
    5fd6:	08 0f       	add	r16, r24
    5fd8:	19 1f       	adc	r17, r25

	asm("clt");
    5fda:	e8 94       	clt
    5fdc:	36 95       	lsr	r19
    5fde:	36 95       	lsr	r19
    5fe0:	36 95       	lsr	r19
    5fe2:	c3 2e       	mov	r12, r19
    5fe4:	dd 24       	eor	r13, r13
    5fe6:	30 e0       	ldi	r19, 0x00	; 0
    5fe8:	70 e0       	ldi	r23, 0x00	; 0
    5fea:	c0 e0       	ldi	r28, 0x00	; 0
    5fec:	d0 e0       	ldi	r29, 0x00	; 0
    5fee:	e6 2e       	mov	r14, r22
    5ff0:	ff 24       	eor	r15, r15
    5ff2:	e7 fc       	sbrc	r14, 7
    5ff4:	f0 94       	com	r15

	do
	{
		if(y > endrow) break;
    5ff6:	ce 01       	movw	r24, r28
    5ff8:	8e 0d       	add	r24, r14
    5ffa:	9f 1d       	adc	r25, r15
    5ffc:	c8 16       	cp	r12, r24
    5ffe:	d9 06       	cpc	r13, r25
    6000:	3c f1       	brlt	.+78     	; 0x6050 <nextblk+0x2c>

		asm volatile("brts nxt"); //if(!T)
    6002:	36 f0       	brts	.+12     	; 0x6010 <nxt>
//      this could be partly solved by indexing the RLE stream somehow......
//
#ifdef BACKGROUND_DRAW_RLE

void background_draw_RLE( signed char x, signed char y, PGM_P img, uint8_t width, uint8_t  height)
{
    6004:	86 2f       	mov	r24, r22
    6006:	8c 0f       	add	r24, r28
	do
	{
		if(y > endrow) break;

		asm volatile("brts nxt"); //if(!T)
		if(y >= 0) asm("set"); // v ramci okna
    6008:	87 fd       	sbrc	r24, 7
    600a:	01 c0       	rjmp	.+2      	; 0x600e <background_draw_RLE+0x7e>
    600c:	68 94       	set
		asm volatile("rjmp nxt2"); 
    600e:	02 c0       	rjmp	.+4      	; 0x6014 <nxt2>

00006010 <nxt>:
		asm volatile("nxt:");	  //else
		scraddr += DRIVER_COLUMNS;
    6010:	0a 5e       	subi	r16, 0xEA	; 234
    6012:	1f 4f       	sbci	r17, 0xFF	; 255

00006014 <nxt2>:
		asm volatile("nxt2:");
    6014:	d8 01       	movw	r26, r16
    6016:	c5 01       	movw	r24, r10
    6018:	08 c0       	rjmp	.+16     	; 0x602a <nextblk+0x6>
		register unsigned char tmp1 = width;
		register signed char tmp2 = x;

		do
		{
			RLE_get_next(img);
    601a:	71 50       	subi	r23, 0x01	; 1
			asm("brtc nextblk");
    601c:	1e f4       	brtc	.+6      	; 0x6024 <nextblk>
			//the zero test is fast so there's no need for another flag.
			if(tmp2>=0 && tmp2<DRIVER_COLUMNS) *scrptr++ = byte;
    601e:	96 31       	cpi	r25, 0x16	; 22
    6020:	08 f4       	brcc	.+2      	; 0x6024 <nextblk>
    6022:	3d 93       	st	X+, r19

00006024 <nextblk>:
			asm("nextblk:");
			tmp2++;
		}
		while(--tmp1);
    6024:	81 50       	subi	r24, 0x01	; 1
    6026:	89 f0       	breq	.+34     	; 0x604a <nextblk+0x26>
			RLE_get_next(img);
			asm("brtc nextblk");
			//the zero test is fast so there's no need for another flag.
			if(tmp2>=0 && tmp2<DRIVER_COLUMNS) *scrptr++ = byte;
			asm("nextblk:");
			tmp2++;
    6028:	9f 5f       	subi	r25, 0xFF	; 255
		register unsigned char tmp1 = width;
		register signed char tmp2 = x;

		do
		{
			RLE_get_next(img);
    602a:	77 23       	and	r23, r23
    602c:	b1 f7       	brne	.-20     	; 0x601a <nxt2+0x6>
    602e:	fa 01       	movw	r30, r20
    6030:	4f 5f       	subi	r20, 0xFF	; 255
    6032:	5f 4f       	sbci	r21, 0xFF	; 255
    6034:	34 91       	lpm	r19, Z+
    6036:	37 fd       	sbrc	r19, 7
    6038:	02 c0       	rjmp	.+4      	; 0x603e <nextblk+0x1a>
    603a:	30 68       	ori	r19, 0x80	; 128
    603c:	ef cf       	rjmp	.-34     	; 0x601c <nxt2+0x8>
    603e:	fa 01       	movw	r30, r20
    6040:	4f 5f       	subi	r20, 0xFF	; 255
    6042:	5f 4f       	sbci	r21, 0xFF	; 255
    6044:	74 91       	lpm	r23, Z+
    6046:	30 68       	ori	r19, 0x80	; 128
    6048:	e9 cf       	rjmp	.-46     	; 0x601c <nxt2+0x8>
			asm("brtc nextblk");
			//the zero test is fast so there's no need for another flag.
			if(tmp2>=0 && tmp2<DRIVER_COLUMNS) *scrptr++ = byte;
			asm("nextblk:");
			tmp2++;
    604a:	21 96       	adiw	r28, 0x01	; 1
		}
		while(--tmp1);
		
		y++;
	}
	while(--height);
    604c:	2c 17       	cp	r18, r28
    604e:	99 f6       	brne	.-90     	; 0x5ff6 <background_draw_RLE+0x66>
}
    6050:	df 91       	pop	r29
    6052:	cf 91       	pop	r28
    6054:	1f 91       	pop	r17
    6056:	0f 91       	pop	r16
    6058:	ff 90       	pop	r15
    605a:	ef 90       	pop	r14
    605c:	df 90       	pop	r13
    605e:	cf 90       	pop	r12
    6060:	bf 90       	pop	r11
    6062:	af 90       	pop	r10
    6064:	08 95       	ret

00006066 <console_init>:

static unsigned char curx=0, cury=0;

console_init()
{
	curx=0;
    6066:	10 92 10 01 	sts	0x0110, r1
	cury=0;
    606a:	10 92 0f 01 	sts	0x010F, r1
}
    606e:	08 95       	ret

00006070 <console_init_stdio>:



console_init_stdio()
{
   fdevopen(putch, 0); //getch);
    6070:	83 e4       	ldi	r24, 0x43	; 67
    6072:	90 e3       	ldi	r25, 0x30	; 48
    6074:	60 e0       	ldi	r22, 0x00	; 0
    6076:	70 e0       	ldi	r23, 0x00	; 0
    6078:	0e 94 05 39 	call	0x720a	; 0x720a <fdevopen>

static unsigned char curx=0, cury=0;

console_init()
{
	curx=0;
    607c:	10 92 10 01 	sts	0x0110, r1
	cury=0;
    6080:	10 92 0f 01 	sts	0x010F, r1

console_init_stdio()
{
   fdevopen(putch, 0); //getch);
   console_init();
    6084:	08 95       	ret

00006086 <putch>:
	cury=0;
}


void putch (char ch)
{
    6086:	1f 93       	push	r17
    6088:	18 2f       	mov	r17, r24

#ifdef CONSOLE_WINDOW
	register unsigned char endrow = window_get_height();
    608a:	e0 91 cc 03 	lds	r30, 0x03CC
    608e:	f0 91 cd 03 	lds	r31, 0x03CD
    6092:	31 81       	ldd	r19, Z+1	; 0x01
    6094:	36 95       	lsr	r19
    6096:	36 95       	lsr	r19
    6098:	36 95       	lsr	r19
	register unsigned char *scraddr = window_get_ptr();
    609a:	60 91 c7 03 	lds	r22, 0x03C7
    609e:	70 91 c8 03 	lds	r23, 0x03C8
#else
	register unsigned char endrow = DRIVER_ROWS;
	register unsigned char *scraddr = driver_get_ptr();
#endif

	if(cury >= endrow) console_init();
    60a2:	20 91 0f 01 	lds	r18, 0x010F
    60a6:	23 17       	cp	r18, r19
    60a8:	78 f1       	brcs	.+94     	; 0x6108 <putch+0x82>

static unsigned char curx=0, cury=0;

console_init()
{
	curx=0;
    60aa:	10 92 10 01 	sts	0x0110, r1
	cury=0;
    60ae:	10 92 0f 01 	sts	0x010F, r1
	register unsigned char *scraddr = driver_get_ptr();
#endif

	if(cury >= endrow) console_init();

	if(curx >= DRIVER_WIDTH || ch == '\n' || ch == '\r')
    60b2:	1a 30       	cpi	r17, 0x0A	; 10
    60b4:	09 f4       	brne	.+2      	; 0x60b8 <putch+0x32>
    60b6:	54 c0       	rjmp	.+168    	; 0x6160 <putch+0xda>
    60b8:	1d 30       	cpi	r17, 0x0D	; 13
    60ba:	09 f4       	brne	.+2      	; 0x60be <putch+0x38>
    60bc:	51 c0       	rjmp	.+162    	; 0x6160 <putch+0xda>
		}
	}



	if(ch>20)
    60be:	15 31       	cpi	r17, 0x15	; 21
    60c0:	08 f1       	brcs	.+66     	; 0x6104 <putch+0x7e>
	{
#ifdef CONSOLE_WINDOW
		window_set_block(curx, cury, ch);
    60c2:	60 91 10 01 	lds	r22, 0x0110
    60c6:	40 91 0f 01 	lds	r20, 0x010F
    60ca:	50 e0       	ldi	r21, 0x00	; 0
    60cc:	9a 01       	movw	r18, r20
    60ce:	22 0f       	add	r18, r18
    60d0:	33 1f       	adc	r19, r19
    60d2:	24 0f       	add	r18, r20
    60d4:	35 1f       	adc	r19, r21
    60d6:	c9 01       	movw	r24, r18
    60d8:	88 0f       	add	r24, r24
    60da:	99 1f       	adc	r25, r25
    60dc:	88 0f       	add	r24, r24
    60de:	99 1f       	adc	r25, r25
    60e0:	88 0f       	add	r24, r24
    60e2:	99 1f       	adc	r25, r25
    60e4:	82 1b       	sub	r24, r18
    60e6:	93 0b       	sbc	r25, r19
    60e8:	84 0f       	add	r24, r20
    60ea:	95 1f       	adc	r25, r21
    60ec:	86 0f       	add	r24, r22
    60ee:	91 1d       	adc	r25, r1
    60f0:	e0 91 c7 03 	lds	r30, 0x03C7
    60f4:	f0 91 c8 03 	lds	r31, 0x03C8
    60f8:	e8 0f       	add	r30, r24
    60fa:	f9 1f       	adc	r31, r25
    60fc:	10 83       	st	Z, r17
#else
		driver_set_block(curx, cury, ch);
#endif
		curx++;
    60fe:	6f 5f       	subi	r22, 0xFF	; 255
    6100:	60 93 10 01 	sts	0x0110, r22
	}
}
    6104:	1f 91       	pop	r17
    6106:	08 95       	ret
	register unsigned char *scraddr = driver_get_ptr();
#endif

	if(cury >= endrow) console_init();

	if(curx >= DRIVER_WIDTH || ch == '\n' || ch == '\r')
    6108:	80 91 10 01 	lds	r24, 0x0110
    610c:	85 31       	cpi	r24, 0x15	; 21
    610e:	88 f2       	brcs	.-94     	; 0x60b2 <putch+0x2c>
	{
		curx=0;
    6110:	10 92 10 01 	sts	0x0110, r1
		cury++;
    6114:	82 2f       	mov	r24, r18
    6116:	8f 5f       	subi	r24, 0xFF	; 255
    6118:	80 93 0f 01 	sts	0x010F, r24
		if(cury >= endrow) //scroll up
    611c:	83 17       	cp	r24, r19
    611e:	78 f2       	brcs	.-98     	; 0x60be <putch+0x38>
		{
			unsigned char *ptr  = scraddr;
			unsigned char *ptr2 = ptr + DRIVER_WIDTH+HSCROLL;
			unsigned int i;

			for(i=0;i<((endrow-1)*(DRIVER_WIDTH+HSCROLL));i++) *ptr++=*ptr2++;
    6120:	86 e1       	ldi	r24, 0x16	; 22
    6122:	38 9f       	mul	r19, r24
    6124:	a0 01       	movw	r20, r0
    6126:	11 24       	eor	r1, r1
    6128:	46 51       	subi	r20, 0x16	; 22
    612a:	50 40       	sbci	r21, 0x00	; 0
    612c:	e1 f0       	breq	.+56     	; 0x6166 <putch+0xe0>
    612e:	fb 01       	movw	r30, r22
    6130:	20 e0       	ldi	r18, 0x00	; 0
    6132:	30 e0       	ldi	r19, 0x00	; 0
    6134:	86 89       	ldd	r24, Z+22	; 0x16
    6136:	81 93       	st	Z+, r24
    6138:	2f 5f       	subi	r18, 0xFF	; 255
    613a:	3f 4f       	sbci	r19, 0xFF	; 255
    613c:	24 17       	cp	r18, r20
    613e:	35 07       	cpc	r19, r21
    6140:	c8 f3       	brcs	.-14     	; 0x6134 <putch+0xae>
    6142:	cb 01       	movw	r24, r22
    6144:	84 0f       	add	r24, r20
    6146:	95 1f       	adc	r25, r21

			memset(ptr,128,DRIVER_WIDTH+HSCROLL);
    6148:	60 e8       	ldi	r22, 0x80	; 128
    614a:	70 e0       	ldi	r23, 0x00	; 0
    614c:	46 e1       	ldi	r20, 0x16	; 22
    614e:	50 e0       	ldi	r21, 0x00	; 0
    6150:	0e 94 dd 38 	call	0x71ba	; 0x71ba <memset>
			cury--;
    6154:	80 91 0f 01 	lds	r24, 0x010F
    6158:	81 50       	subi	r24, 0x01	; 1
    615a:	80 93 0f 01 	sts	0x010F, r24
    615e:	af cf       	rjmp	.-162    	; 0x60be <putch+0x38>
    6160:	20 91 0f 01 	lds	r18, 0x010F
    6164:	d5 cf       	rjmp	.-86     	; 0x6110 <putch+0x8a>
		{
			unsigned char *ptr  = scraddr;
			unsigned char *ptr2 = ptr + DRIVER_WIDTH+HSCROLL;
			unsigned int i;

			for(i=0;i<((endrow-1)*(DRIVER_WIDTH+HSCROLL));i++) *ptr++=*ptr2++;
    6166:	cb 01       	movw	r24, r22
    6168:	ef cf       	rjmp	.-34     	; 0x6148 <putch+0xc2>

0000616a <__vector_13>:
//interrupt starts one line before first video line scanned

.global	TIMER1_OVF_vect
TIMER1_OVF_vect:

	push	r0
    616a:	0f 92       	push	r0
	in	r0, 0x3f	; sreg
    616c:	0f b6       	in	r0, 0x3f	; 63
	push	r0
    616e:	0f 92       	push	r0
	push	r1
    6170:	1f 92       	push	r1
	push	r2
    6172:	2f 92       	push	r2
	push	r3
    6174:	3f 92       	push	r3
	push	r4
    6176:	4f 92       	push	r4
	push	r5
    6178:	5f 92       	push	r5
	push	r6
    617a:	6f 92       	push	r6
	push	r7
    617c:	7f 92       	push	r7
	push	r8
    617e:	8f 92       	push	r8
	push	r9
    6180:	9f 92       	push	r9
	push	r10
    6182:	af 92       	push	r10
	push	r11
    6184:	bf 92       	push	r11
	push	r12
    6186:	cf 92       	push	r12
	push	r13
    6188:	df 92       	push	r13
	push	r14
    618a:	ef 92       	push	r14
	push	r15
    618c:	ff 92       	push	r15
	push	r16
    618e:	0f 93       	push	r16
	push	r17
    6190:	1f 93       	push	r17
	push	r18
    6192:	2f 93       	push	r18
	push	r19
    6194:	3f 93       	push	r19
	push	r20
    6196:	4f 93       	push	r20
	push	r21
    6198:	5f 93       	push	r21
	push	r22
    619a:	6f 93       	push	r22
	push	r23
    619c:	7f 93       	push	r23
	push	r24
    619e:	8f 93       	push	r24
	push	r25
    61a0:	9f 93       	push	r25
	push	r26
    61a2:	af 93       	push	r26
	push	r27
    61a4:	bf 93       	push	r27

	push	r28
    61a6:	cf 93       	push	r28
	push	r29
    61a8:	df 93       	push	r29

	push	r30
    61aa:	ef 93       	push	r30
	push	r31
    61ac:	ff 93       	push	r31


	sbi VIDEO_VSYNC_PORT, VIDEO_VSYNC_PIN
    61ae:	29 9a       	sbi	0x05, 1	; 5

	clr zero
    61b0:	44 27       	eor	r20, r20

000061b2 <synth>:

synth:	ldi tmp2,1
    61b2:	21 e0       	ldi	r18, 0x01	; 1
	out TIFR1, tmp2
    61b4:	26 bb       	out	0x16, r18	; 22
	
	


; keyboard driver
lds tmp2, UCSR0A
    61b6:	20 91 c0 00 	lds	r18, 0x00C0
sbrs tmp2, RXC0
    61ba:	27 ff       	sbrs	r18, 7
rjmp nokb
    61bc:	0f c0       	rjmp	.+30     	; 0x61dc <nokb>

lds ZL,   _kbuf
    61be:	e0 91 30 07 	lds	r30, 0x0730
lds ZH,   _kbuf+1
    61c2:	f0 91 31 07 	lds	r31, 0x0731
lds tmp3, _kcnt
    61c6:	30 91 32 07 	lds	r19, 0x0732
add ZL, tmp3
    61ca:	e3 0f       	add	r30, r19
adc ZH, zero
    61cc:	f4 1f       	adc	r31, r20
lds tmp2, UDR0
    61ce:	20 91 c6 00 	lds	r18, 0x00C6
st Z, tmp2
    61d2:	20 83       	st	Z, r18
inc tmp3
    61d4:	33 95       	inc	r19
andi tmp3, 7
    61d6:	37 70       	andi	r19, 0x07	; 7
sts _kcnt, tmp3
    61d8:	30 93 32 07 	sts	0x0732, r19

000061dc <nokb>:


	; end of regular code

	;are we scanning?
	brie waitln0
    61dc:	af f1       	brie	.+106    	; 0x6248 <waitln0>

	; load line count number
	lds linecnl, c0
    61de:	80 91 1c 07 	lds	r24, 0x071C
        lds linecnh, c0+1
    61e2:	90 91 1d 07 	lds	r25, 0x071D

	; last line?
        sbiw linecnl, 1
    61e6:	01 97       	sbiw	r24, 0x01	; 1
        breq newframe
    61e8:	29 f0       	breq	.+10     	; 0x61f4 <newframe>

	; go to scan?
        cpi linecnl,  0xBA
    61ea:	8a 3b       	cpi	r24, 0xBA	; 186
        ldi tmp0, 0x01
    61ec:	01 e0       	ldi	r16, 0x01	; 1
        cpc linecnh,  tmp0     //440
    61ee:	90 07       	cpc	r25, r16
        brne end2
    61f0:	21 f4       	brne	.+8      	; 0x61fa <end2>
	rjmp scan
    61f2:	38 c0       	rjmp	.+112    	; 0x6264 <scan>

000061f4 <newframe>:
	;rjmp end2



newframe:
        ldi linecnl, 0x0D   //525 lines in total
    61f4:	8d e0       	ldi	r24, 0x0D	; 13
	ldi linecnh, 0x02
    61f6:	92 e0       	ldi	r25, 0x02	; 2
       	cbi VIDEO_VSYNC_PORT, VIDEO_VSYNC_PIN
    61f8:	29 98       	cbi	0x05, 1	; 5

000061fa <end2>:

end2:	;store current line number
        sts c0,   linecnl
    61fa:	80 93 1c 07 	sts	0x071C, r24
        sts c0+1, linecnh
    61fe:	90 93 1d 07 	sts	0x071D, r25


	pop	r31
    6202:	ff 91       	pop	r31
	pop	r30
    6204:	ef 91       	pop	r30

	pop	r29
    6206:	df 91       	pop	r29
	pop	r28
    6208:	cf 91       	pop	r28

	pop	r27
    620a:	bf 91       	pop	r27
	pop	r26
    620c:	af 91       	pop	r26
	pop	r25
    620e:	9f 91       	pop	r25
	pop	r24
    6210:	8f 91       	pop	r24
	pop	r23
    6212:	7f 91       	pop	r23
	pop	r22
    6214:	6f 91       	pop	r22
	pop	r21
    6216:	5f 91       	pop	r21
	pop	r20
    6218:	4f 91       	pop	r20
	pop	r19
    621a:	3f 91       	pop	r19
	pop	r18
    621c:	2f 91       	pop	r18
	pop	r17
    621e:	1f 91       	pop	r17
	pop	r16
    6220:	0f 91       	pop	r16
	pop	r15
    6222:	ff 90       	pop	r15
	pop	r14
    6224:	ef 90       	pop	r14
	pop	r13
    6226:	df 90       	pop	r13
	pop	r12
    6228:	cf 90       	pop	r12
	pop	r11
    622a:	bf 90       	pop	r11
	pop	r10
    622c:	af 90       	pop	r10
	pop	r9
    622e:	9f 90       	pop	r9
	pop	r8
    6230:	8f 90       	pop	r8
	pop	r7
    6232:	7f 90       	pop	r7
	pop	r6
    6234:	6f 90       	pop	r6
	pop	r5
    6236:	5f 90       	pop	r5
	pop	r4
    6238:	4f 90       	pop	r4
	pop	r3
    623a:	3f 90       	pop	r3
	pop	r2
    623c:	2f 90       	pop	r2
	pop	r1
